:020000040800F2
:1000000000000220713E0008E5070008E70700082D
:10001000E9070008EB070008ED07000800000000F2
:100020000000000000000000000000004115000872
:10003000EF07000800000000E11500084516000861
:10004000C13E0008C13E0008C13E0008C13E000894
:10005000C13E0008C13E0008C13E0008C13E000884
:10006000C13E0008C13E0008C13E0008C13E000874
:10007000F1070008C13E000801080008C13E000861
:10008000C13E0008C13E0008C13E0008C13E000854
:10009000C13E0008C13E0008C13E0008C13E000844
:1000A000C13E0008C13E0008C13E0008C13E000834
:1000B000C13E0008C13E0008C13E0008C13E000824
:1000C000C13E0008C13E0008C13E0008C13E000814
:1000D000C13E000811080008C13E000821080008C0
:1000E000C13E0008C13E0008C13E0008C13E0008F4
:1000F000C13E000831080008C13E0008C13E0008AA
:10010000C13E0008C13E0008C13E0008C13E0008D3
:10011000C13E0008C13E0008C13E0008C13E0008C3
:10012000C13E0008C13E0008C13E0008C13E0008B3
:10013000C13E00080000000000000000C13E0008B1
:10014000C13E0008C13E0008C13E0008C13E000893
:10015000C13E0008C13E0008C13E0008C13E000883
:10016000C13E0008C13E0008C13E0008C13E000873
:10017000C13E0008C13E0008000000000000000071
:08018000C13E0008C13E000869
:1001900010B5054C237833B9044B13B10448AFF3C1
:1001A00000800123237010BD7400002000000000B7
:1001B000B840000808B5034B1BB103490348AFF32F
:1001C000008008BD0000000078000020B840000852
:1001D00053B94AB9002908BF00281CBF4FF0FF31AE
:1001E0004FF0FF3000F074B9ADF1080C6DE904CEAA
:1001F00000F006F8DDF804E0DDE9022304B0704702
:100200002DE9F047089D04468E46002B4DD18A42C9
:10021000944669D9B2FA82F252B101FA02F3C2F1FC
:10022000200120FA01F10CFA02FC41EA030E94408D
:100230004FEA1C48210CBEFBF8F61FFA8CF708FBAE
:1002400016E341EA034306FB07F199420AD91CEB86
:10025000030306F1FF3080F01F81994240F21C81B8
:10026000023E63445B1AA4B2B3FBF8F008FB103300
:1002700044EA034400FB07F7A7420AD91CEB040435
:1002800000F1FF3380F00A81A74240F20781644405
:10029000023840EA0640E41B00261DB1D44000238A
:1002A000C5E900433146BDE8F0878B4209D9002DEE
:1002B00000F0EF800026C5E9000130463146BDE878
:1002C000F087B3FA83F6002E4AD18B4202D38242E2
:1002D00000F2F980841A61EB030301209E46002D91
:1002E000E0D0C5E9004EDDE702B9FFDEB2FA82F2E6
:1002F000002A40F09280A1EB0C014FEA1C471FFA44
:100300008CFE0126200CB1FBF7F307FB131140EA2A
:1003100001410EFB03F0884208D91CEB010103F1F7
:10032000FF3802D2884200F2CB804346091AA4B2B9
:10033000B1FBF7F007FB101144EA01440EFB00FE8D
:10034000A64508D91CEB040400F1FF3102D2A645F2
:1003500000F2BB800846A4EB0E0440EA03409CE791
:10036000C6F12007B34022FA07FC4CEA030C20FA3E
:1003700007F401FA06F31C43F9404FEA1C4900FA5E
:1003800006F3B1FBF9F8200C1FFA8CFE09FB1811DB
:1003900040EA014108FB0EF0884202FA06F20BD94E
:1003A0001CEB010108F1FF3A80F08880884240F29E
:1003B0008580A8F102086144091AA4B2B1FBF9F0E2
:1003C00009FB101144EA014100FB0EFE8E4508D9DD
:1003D0001CEB010100F1FF346CD28E456AD9023862
:1003E000614440EA0840A0FB0294A1EB0E01A14247
:1003F000C846A64656D353D05DB1B3EB080261EBB5
:100400000E0101FA07F722FA06F3F1401F43C5E98E
:10041000007100263146BDE8F087C2F12003D840C4
:100420000CFA02FC21FA03F3914001434FEA1C4706
:100430001FFA8CFEB3FBF7F007FB10360B0C43EAF8
:10044000064300FB0EF69E4204FA02F408D91CEBA8
:10045000030300F1FF382FD29E422DD902386344A6
:100460009B1B89B2B3FBF7F607FB163341EA034146
:1004700006FB0EF38B4208D91CEB010106F1FF3895
:1004800016D28B4214D9023E6144C91A46EA00468C
:1004900038E72E46284605E70646E3E61846F8E61E
:1004A0004B45A9D2B9EB020864EB0C0E0138A3E767
:1004B0004646EAE7204694E74046D1E7D0467BE748
:1004C000023B614432E7304609E76444023842E7C0
:1004D000704700BF08B50268034B9A4200D008BDC0
:1004E00002F064FDFBE700BF0020004072B6FEE7AB
:1004F00000B595B03022002108A803F023FD0023A9
:10050000039304930593069307930193214A116C77
:1005100041F080511164126C02F080520192019AF4
:1005200002931D4B1A6842F480421A601B6803F460
:1005300080430293029B012308934FF48033099375
:1005400002230E934FF480020F92192210924FF45F
:10055000A872119212930423139308A801F01AFEB3
:1005600098B90F23039302230493002305934FF4B8
:10057000A05306934FF480530793052103A802F07C
:1005800057F820B915B05DF804FBFFF7AFFFFFF790
:10059000ADFF00BF003802400070004008B502F017
:1005A000EBFCFFF7A5FF00F013F800F095F900F061
:1005B0004FF800F0B3F900F031F801F061FD034BA2
:1005C000186000F071F900F003FEFEE790000020D3
:1005D00084B000220192104B196B41F08001196325
:1005E000196B01F08001019101990292196B41F0A0
:1005F00002011963196B01F0020102910299039241
:100600001A6B42F001021A631B6B03F001030393A0
:10061000039B04B0704700BF0038024008B50A4889
:100620000A4B03604FF4E133436000238360C360EF
:1006300003610C2242618361C36103F096F800B943
:1006400008BDFFF753FFFBE75401002000100140F5
:1006500008B50A480A4B03604FF4E13343600023B6
:100660008360C36003610C2242618361C36103F054
:100670007CF800B908BDFFF739FFFBE79C010020BB
:100680000048004030B58BB00023059306930793D4
:100690000893099303684A4A934205D00446494A9D
:1006A00093422DD00BB030BD00240194464B5A6CC0
:1006B00042F010025A645A6C02F010020192019A40
:1006C00002941A6B42F001021A631B6B03F00103E0
:1006D0000293029B4FF4C063059302230693032306
:1006E00008930723099305A9384802F095F8224694
:1006F0000521252002F0FAFB252002F02FFCD1E78E
:1007000000250395304B1A6C42F480221A641A6C4F
:1007100002F480220392039A04951A6B42F00202BB
:100720001A631B6B03F002030493049B4FF44063B2
:10073000059302230693032308930723099305A92E
:10074000234802F069F82348234B03604FF000630D
:1007500043608560C5604FF48063036145618561D6
:10076000C5610562456202F0C9F918BB194BE36324
:100770009C631A481A4B03604FF0006343604023A8
:1007800083600023C3604FF4806202614361836130
:10079000C3610362436202F0B1F970B90F4BA36306
:1007A0009C6300220521272002F0A0FB272002F0F5
:1007B000D5FB77E7FFF79AFED8E7FFF797FEEDE75F
:1007C0000010014000480040003802400000024094
:1007D000000402409400002028600240F400002041
:1007E00058600240FEE7FEE7FEE7FEE7FEE77047DF
:1007F00008B5024802F07AFA08BD00BF9400002054
:1008000008B5024802F072FA08BD00BFF4000020EB
:1008100008B5024803F0F8F808BD00BF54010020F5
:1008200008B5024803F0F0F808BD00BF9C010020A5
:1008300008B5024802F043FC08BD00BFC0440020D8
:1008400000B583B0002200920D4B596C41F48041F9
:100850005964596C01F48041009100990192196C1E
:1008600041F0805119641B6C03F080530193019B8C
:100870000F216FF0010002F039FB03B05DF804FBBB
:100880000038024008B5012000F0DCFCFBE7000066
:10089000034B0360034B0B6080231360704700BF62
:1008A000E8030020E801002010B588B00DF1040C29
:1008B000074C0FCCACE80F0094E807008CE8070069
:1008C000002101A800F089FC024B186008B010BD9F
:1008D000D0400008E401002010B582B0002401944B
:1008E0000D4B1A6B42F400121A631B6B03F40013D6
:1008F0000193019B224605210C2002F0F7FA0C20FF
:1009000002F02CFB224605210E2002F0EFFA0E2009
:1009100002F024FB02B010BD0038024000B587B0E1
:1009200000230293039304930593009301931548C6
:10093000154A0260436083604FF6FF72C260036134
:100940004361836102F0D6FC90B94FF48053029367
:1009500002A90C4802F007FD68B900230093019337
:100960006946084802F07EFD40B907B05DF804FB17
:10097000FFF7BCFDE9E7FFF7B9FDEEE7FFF7B6FDCE
:10098000F3E700BF3C040020000001400268094B6F
:100990009A4200D0704782B000230193064B5A6CF4
:1009A00042F001025A645B6C03F001030193019B66
:1009B00002B07047000001400038024000F1080317
:1009C00043604FF0FF328260C36003610023036025
:1009D000704700230361704743684B609A688A60E0
:1009E000516099600861036801330360704730B457
:1009F0000D68B5F1FF3F11D000F108031C465B689C
:100A00001A68AA42FAD963684B6099608C60616089
:100A1000086103680133036030BC70470469F2E782
:100A20000369416882688A60416851605A688242FD
:100A300006D0002202611A68013A1A6018687047ED
:100A400082685A60F5E70000084B1B681B6823B9F1
:100A5000074B4FF0FF321A607047044B1B68DB688E
:100A6000DB685A68024B1A60704700BF8804002098
:100A70005C0500202DE9F04707469846089DDDF803
:100A800024900A9C266B02F18042013A06EB820612
:100A900026F0070600293AD08E464FF0000CBCF134
:100AA0000F0F0BD81EF80C2004EB0C0383F8342036
:100AB0001EF80C3013B10CF1010CF0E7002384F8A0
:100AC0004330062D00D90625E56265644FF0000A23
:100AD000C4F848A0201DFFF77CFF04F11800FFF7C1
:100AE00078FF2461C5F10705A5616462C4F84CA0D4
:100AF00084F850A042463946304600F009FD206097
:100B0000B9F1000F01D0C9F80040BDE8F08700231B
:100B100084F83430D5E7000038B5002407E004EB52
:100B2000840293000E481844FFF748FF0134062C56
:100B3000F5D90C4D2846FFF741FF0B4C2046FFF737
:100B40003DFF0A48FFF73AFF0948FFF737FF09481A
:100B5000FFF734FF084B1D60084B1C6038BD00BF19
:100B60009004002030050020440500206805002086
:100B70009405002080050020880400208C040020BB
:100B800010B5044600F0EEFC214A136801331360EF
:100B9000204B1B685BB1204B1B686BB91D4B1B685E
:100BA000DA6AE36A9A4207D81A4B1C6004E0194BD0
:100BB0001C601368012B28D0184A13680133136096
:100BC000E06A01238340164A11680B43136000EB6F
:100BD0008000211D134B03EB8000FFF7FDFE00F0AA
:100BE000E3FC0D4B1B687BB10A4B1B68DA6AE36AB6
:100BF0009A4209D24FF0E0234FF08052C3F8042DFF
:100C0000BFF34F8FBFF36F8F10BDFFF785FFD3E7A3
:100C10001C050020840400207C05002028050020FD
:100C20002C0500209004002010B5044690F85130A7
:100C300063B1012B11D0022B0ED04FF0500383F380
:100C40001188BFF36F8FBFF34F8FFEE7006B00F08B
:100C5000E3FB204600F0E0FB10BD00F0DDFBFBE70E
:100C60000F4B1B68D3B110B500F07CFC0D4BDB685B
:100C7000DC68201DFFF7D4FE0B4A1368013B1360AC
:100C8000074A1368013B136000F08EFC2046FFF713
:100C9000CBFF034B1B68002BE6D110BD704700BF94
:100CA00020050020940500201C05002008B5FFF752
:100CB000D7FF074B1B68012BF9D94FF0E0234FF00A
:100CC0008052C3F8042DBFF34F8FBFF36F8FEEE751
:100CD0009004002070B504460D461D4B1E681D4B48
:100CE00018680430FFF79CFE50B91A4B1B68DA6A8B
:100CF000012303FA02F218490B6823EA02030B608E
:100D0000B4F1FF3F0DD03444124B1B685C60A64227
:100D100010D9124B18680F4B19680431FFF767FEA2
:100D200070BD002DEFD00B4B196804310C48FFF754
:100D300053FEF5E70B4B1868064B19680431FFF7B3
:100D400056FE094B1B68A342EAD9074B1C60E7E734
:100D5000A8050020840400202C0500208C0400201D
:100D600080050020880400205C05002030B587B095
:100D70000B9C7CB10C9DB5B154250495049D542D5C
:100D80001AD04FF0500383F31188BFF36F8FBFF376
:100D90004F8FFEE74FF0500383F31188BFF36F8F3F
:100DA000BFF34F8FFEE74FF0500383F31188BFF37B
:100DB0006F8FBFF34F8FFEE7049D0C9D2C630224C1
:100DC00085F8514000240394029505AC01940A9CD7
:100DD0000094FFF74FFE0C98FFF7D2FE059807B07E
:100DE00030BD2DE9F04385B00746884614461E46BF
:100DF000900000F093FA00B38146542000F08EFA80
:100E00000546B0B1C0F83090E5B1002385F8513007
:100E1000039302950D9B01930C9B0093334622464E
:100E200041463846FFF726FE2846FFF7A9FE012077
:100E300005E0484600F0F0FAE6E74FF0FF3005B075
:100E4000BDE8F0834FF0FF30F9E7000010B588B03F
:100E500000240594069407AA06A905A8FFF718FD23
:100E6000059B0293069B019300942346079A0E4923
:100E70000E48FFF77BFF0E4B186090B14FF0500308
:100E800083F31188BFF36F8FBFF34F8F094B4FF080
:100E9000FF321A60084B01221A60084B1C6000F0F8
:100EA000FBFB08B010BD00BFF8400008AD0C000807
:100EB000580500205C0500207C050020A8050020C6
:100EC000024A136801331360704700BF24050020F5
:100ED000F8B53A4B1B68002B69D1394B1D680135B9
:100EE0001D60C5B9374B1B681B6843B14FF05003F9
:100EF00083F31188BFF36F8FBFF34F8FFEE7314A43
:100F00001168314B186810601960304A136801335A
:100F10001360FFF799FD2E4B1B68AB423DD90027AC
:100F20002C4B1B68DB6A03EB83039A002A4B9B580C
:100F3000012B00D90127294B1B68002B3CD001272E
:100F40003AE001271F4B1B681B6843B31D4B1B680E
:100F5000DB68DC6863689D4226D3261D3046FFF7B8
:100F60005FFDA36A1BB104F11800FFF759FDE36AA6
:100F700001229A401A49086802430A6003EB83037E
:100F80009A00314614481044FFF726FDE26A114BDF
:100F90001B68DB6A9A42D4D2D4E70027D2E70C4B15
:100FA0004FF0FF321A60BBE7094A1360B8E70D4AF9
:100FB00013680133136000273846F8BD240500206C
:100FC000A8050020880400208C0400206005002073
:100FD0005C0500208404002090040020AC05002063
:100FE0002C0500206405002038B5354B1B6843B93B
:100FF0004FF0500383F31188BFF36F8FBFF34F8F10
:10100000FEE700F0AFFA2E4B1A68013A1A601B682F
:10101000002B4FD12B4B1B680BB900244BE0002455
:10102000294B1B681BB3284BDB68DC6804F11800F4
:10103000FFF7F6FC251D2846FFF7F2FCE06A0123C6
:101040008340224A11680B43136000EB800029465D
:101050001F4B03EB8000FFF7BFFCE26A1D4B1B68D0
:10106000DB6A9A42DCD31C4B01221A60D8E70CB130
:10107000FFF7EAFC194B1C6884B9174B1C68D4B104
:101080004FF0E0234FF08052C3F8042DBFF34F8F91
:10109000BFF36F8F01240EE0013C07D0FFF718FF6C
:1010A0000028F9D00C4B01221A60F5E70B4B002207
:1010B0001A60E2E7002400F077FA204638BD00BF4E
:1010C000240500201C050020680500202C050020B8
:1010D0009004002084040020AC050020640500205A
:1010E00010B5A8B10446104B1B6843B14FF0500334
:1010F00083F31188BFF36F8FBFF34F8FFEE7FFF7C6
:10110000DFFE00212046FFF7E5FDFFF76DFF48B940
:101110004FF0E0234FF08052C3F8042DBFF34F8F00
:10112000BFF36F8F10BD00BF24050020204B1B684C
:101130001BB1204B01221A6070471E4B00221A601F
:101140001D4B1B68B3FA83F3DBB2C3F11F0303EB40
:1011500083018A0019498A5842B94FF0500383F33A
:101160001188BFF36F8FBFF34F8FFEE7134903EB77
:10117000830082000A4450684068506003EB830C8F
:101180004FEA8C0208321144884209D003EB8303F2
:101190009A000A4B13445B68DA68094B1A6070477F
:1011A000406862469100054A0A445060EEE700BF7D
:1011B00024050020AC0500202C0500209004002010
:1011C00084040020842801D0033070470020704739
:1011D00008B5FFF73BFE002008BD2DE9F04387B0BE
:1011E00004460F464569BDB18669AEB1D0F80480AA
:1011F000D0F80090B0F90800FFF7E4FF02960195DF
:1012000000903B46226949464046FFF7AFFD0590F6
:10121000059807B0BDE8F08365682668D4F81080AB
:10122000B4F90800FFF7CEFF05AB019300903B46F1
:101230001FFA88F231462846FFF7D3FD0128E7D090
:101240000020E6E708B500B90120FFF749FF0020BC
:1012500008BD0000124A12F0070F1ED0D11D21F068
:101260000701C1F5705313440A460E48026000217D
:1012700041601344083B23F007030B4803605960A7
:101280001960991A51601360084B1960084B196076
:10129000084B4FF000421A6070474FF47053E4E778
:1012A000B4050020C8410020B0050020BC4100204A
:1012B000B8410020B4410020164B1A461B688342F7
:1012C000FBD3516802EB010C844509D0416800EB67
:1012D000010C634509D00360904219D0106070473B
:1012E0004068014451601046F0E710B40A4C24688D
:1012F000A3420BD05B681944416013681B6803600C
:10130000904200D010605DF8044B70470460F7E72E
:10131000704700BFC8410020B005002070B50546E9
:10132000FFF7CEFD364B1B68A3B1364B1B681D4241
:101330004ED135B1083515F0070F02D025F007055D
:101340000835002D46D0304B1B68AB4251D32F4A95
:10135000146804E0FFF77EFFE7E722461C46636857
:10136000AB4202D22368002BF7D1254B1B68A34266
:1013700041D0166808362368136063685B1B102B26
:1013800010D9601910F0070F08D04FF0500383F305
:101390001188BFF36F8FBFF34F8FFEE74360656027
:1013A000FFF78AFF626818490B689B1A0B6018499F
:1013B00009688B4201D216490B60124B1B6813431C
:1013C000636000232360134A13680133136002E053
:1013D000002600E00026FFF707FE16F0070F0CD0EE
:1013E0004FF0500383F31188BFF36F8FBFF34F8F1C
:1013F000FEE70026EFE70026EDE7304670BD00BFB0
:10140000B0050020B4410020B8410020C8410020B0
:10141000BC410020C0410020002834D038B504462B
:10142000A0F1080550F8043C174A1268134208D18D
:101430004FF0500383F31188BFF36F8FBFF34F8FCB
:10144000FEE750F8081C41B14FF0500383F31188B8
:10145000BFF36F8FBFF34F8FFEE723EA020340F81D
:10146000043CFFF72DFD54F8041C084A13680B4494
:1014700013602846FFF720FF054A13680133136005
:10148000FFF7B2FD38BD7047B4410020B8410020DD
:10149000C441002082B0002301930D4B1B68B3F1BF
:1014A000FF3F08D04FF0500383F31188BFF36F8FD5
:1014B000BFF34F8FFEE74FF0500383F31188BFF364
:1014C0006F8FBFF34F8F019B002BFCD002B0704792
:1014D0000000002008480068006880F308884FF08A
:1014E000000080F3148862B661B6BFF34F8FBFF37C
:1014F0006F8F00DF00BF000008ED00E0DFF80C0098
:10150000016841F4700101607047000088ED00E05F
:101510004FF0807340F8043C21F0010140F8081CB2
:10152000054B40F80C3C40F8202C6FF0020340F8CB
:10153000243C4438704700BF9514000800000000A8
:10154000074B19680868B0E8F04F80F30988BFF3CB
:101550006F8F4FF0000080F311887047AFF3008069
:10156000840400204FF0500383F31188BFF36F8F82
:10157000BFF34F8F0B4A136801331360012B00D068
:1015800070474FF0E023D3F8043D13F0FF0FF7D07E
:101590004FF0500383F31188BFF36F8FBFF34F8F6A
:1015A000FEE700BF00000020094B1B6843B94FF065
:1015B000500383F31188BFF36F8FBFF34F8FFEE7A4
:1015C000013B034A13600BB983F31188704700BFD6
:1015D00000000020000000000000000000000000EB
:1015E000EFF30980BFF36F8F154B1A681EF0100FD1
:1015F00008BF20ED108A20E9F04F10602DE90900A6
:101600004FF0500080F31188BFF34F8FBFF36F8FFF
:10161000FFF78CFD4FF0000080F3118809BC1968BA
:101620000868B0E8F04F1EF0100F08BFB0EC108A49
:1016300080F30988BFF36F8F704700BFAFF300805E
:101640008404002008B54FF0500383F31188BFF3E2
:101650006F8FBFF34F8FFFF73BFC28B14FF0E023B4
:101660004FF08052C3F8042D002383F3118808BD86
:101670004FF0E022002313619361054B1B6805497D
:10168000A1FB03139B09013B5361072313617047BF
:101690000C000020D34D62104FF0E023D3F8002D52
:1016A0003D4B9A421CD04FF0E023D3F8002D3B4B2A
:1016B0009A421ED030B583B0394B1A78D2B201921B
:1016C000FF221A701B78DBB28DF803309DF80330CF
:1016D00003F05003334A1370334B07221A601BE0A8
:1016E0004FF0500383F31188BFF36F8FBFF34F8F19
:1016F000FEE74FF0500383F31188BFF36F8FBFF302
:101700004F8FFEE7284A1368013B13609DF80330B2
:101710005B00DBB28DF803309DF8033013F0800FCF
:10172000F0D1214B1B68032B08D04FF0500383F3FB
:101730001188BFF36F8FBFF34F8FFEE71B021A4A6A
:10174000136003F4E0631360019BDBB2144A13706F
:101750004FF0E024D4F8203D43F47003C4F8203D5A
:10176000D4F8203D43F07043C4F8203DFFF780FFDC
:1017700000250E4B1D60FFF7C1FED4F8343F43F047
:101780004043C4F8343FFFF7A5FEFFF7CFFCFFF757
:1017900081FE284603B030BD71C20F4170C20F41B7
:1017A00000E400E0D0410020D441002000000020EF
:1017B0000E4B1B78C3B982B00C4B01221A700C4B34
:1017C0005B680193019A0B4B1B689A4203D20A4A49
:1017D000136801331360064B5A68064B1A60034BBB
:1017E00000221A7002B07047704700BFEC41002021
:1017F000001000E0E4410020E841002008B5124A52
:10180000D2F8FC3043F08073C2F8FC300F4B00215B
:1018100059601A6842F001021A600D4B03FB00F098
:101820000C4B18600C4BA3FB00239B090B4A136065
:101830000B4BA3FB0030800C0A4B18600A4B19605D
:10184000FFF7B6FF08BD00BF00ED00E0001000E0AC
:1018500040420F00D8410020D34D6210DC410020EF
:1018600083DE1B43E0410020E84100200A4B5A6818
:10187000094B5B689B1A07EE903AB8EE677A074B04
:10188000D3ED007AF8EE677A67EE807AB4EEE77A05
:10189000F1EE10FAECD47047001000E0D8410020BF
:1018A00008B507EE900AF8EE677A9FED030A87EE17
:1018B000800AFFF7DBFF08BD00007A4408B5014647
:1018C000002301E00133DBB20B4A12789A4212D9AD
:1018D0000A4A52F8230002688A42F3D191F81CE0C8
:1018E00042684FEA920C012202FA0CF29645E9D1C5
:1018F000436903B1984708BDED410020F041002045
:1019000010B5044690F800210146D0F8040102F019
:101910006DFAD4F80431DB6B1A68136823F00803FE
:10192000136010BD38B505464FF4867002F0F4FA26
:1019300004464FF48672002102F004FB6B68C4F881
:1019400004312B7884F80031AB68C4F80831064ABA
:101950001378591C1170054A42F823402046FFF7BE
:10196000CFFF204638BD00BF304200203442002067
:1019700008B50A4601230146014801F026FF08BDCB
:101980009C01002038B50C46002301E00133DBB296
:10199000104A92F800C09C451BD91D460E4A52F8C9
:1019A0002320D2F804118142F0D1D2F808313BB1A2
:1019B000984722460021084B53F8250002F0C2FA4E
:1019C000054B53F8251091F80021D1F8040102F0DD
:1019D0000DFA38BD304200203442002010B54FF0DF
:1019E000000C4FF0FF0E72460BE010F80C30534025
:1019F000064AD25C82EA0E02054C14F803E00CF1B0
:101A0000010C6145F1DC4EEA022010BD00410008E6
:101A10000042000884460020034604E01CF803202E
:101A20001044C0B201338B42F8D370472DE9F04126
:101A30008F1D50380F2822D8DFE800F00E082353FE
:101A4000292F34393E4348212121214D01240325EA
:101A50004FF04008342603E000240425A046302639
:101A6000032A44D055B16A00294800EB460002F031
:101A70005BFA284B1B68294630469847D4BBBDE823
:101A8000F08100240425A04637260322E8E700243D
:101A90000425A0463A260322E2E700240425A046B6
:101AA0004126DDE700240425A0464526D8E700248A
:101AB0000425A0464926D3E700240425A0464D2648
:101AC000CEE700240425A0465126C9E700240425BA
:101AD000A0465526C4E7104B1E6800240425A046E6
:101AE000BEE7012403254FF02E083D26B8E7154632
:101AF0000024B8E762003946054800EB480002F0D0
:101B000013FA044B1B68214640469847B7E700BFCD
:101B1000544200204C4200207844002018B1034A6F
:101B20001060002070476FF00500704750420020A1
:101B3000F0B583B0514B1E6866B3514B1D68691CEC
:101B40001960504B5855504B1B68012B4ED016D87E
:101B5000DBB94C4B1B78552B1ED10A2915D9494CA2
:101B60000A212046FFF756FFA37A83421CD0444B3C
:101B70001D6020462A46611C02F0D6F90AE0023BAD
:101B8000012B02D83E4B00221A603D4B1B68B3F577
:101B9000807F6FD003B0F0BD394B1D6039482A46B5
:101BA000411C02F0C1F9F5E7364BD9789A7842EA40
:101BB0000122ADF8002059791A7942EA0122ADF8E4
:101BC0000220D9799A7942EA0122ADF80420597AA3
:101BD0001A7A42EA0122ADF80620042269465878B2
:101BE000FFF724FF264B00221A60CEE70229CCD94A
:101BF000244B5B78032B26D1224B9F787B1D994287
:101C0000C8D38A1E1F4B9C5C40EA042491B218463C
:101C1000FFF7E4FE84421ED179080D460023AB4253
:101C200021D25A00D01C174C14F800C00432A05C1A
:101C3000164A12681A4440EA0C20154C24F8120087
:101C400001339BB2EBE70E4B1D600E482A46411C48
:101C500002F06AF99EE70A4B1D600A482A46411CB9
:101C600002F062F996E7094B1868B047044B00226E
:101C70001A608AE7024B00221A608BE74C42002070
:101C80007C440020744300207444002078440020E9
:101C90005442002018B1034A1060002070476FF0D2
:101CA000050070474C4200208F286FD810B582B0D5
:101CB0003F4B1B68032B6CD8DFE803F002193C5341
:101CC0003C4B1B68002B67D0FF228DF80020AA2216
:101CD0008DF801208DF802008DF80310090A8DF8A7
:101CE0000410052168469847002002B010BD314B12
:101CF0001C68002C53D0304B1B788DF80030062325
:101D00008DF80130020A8DF802208DF803000A0ACE
:101D10008DF804208DF8051019466846FFF75EFE21
:101D2000030A8DF806308DF8070008216846A047A1
:101D30000020DAE7214B1B68A3B3FF228DF80020B7
:101D4000AA228DF801208DF802008DF80310090AEF
:101D50008DF804100522694617480078984700203E
:101D6000C3E7174B1C6804B38DF80010090A8DF8FF
:101D70000110114B93F800C04FEA4C0C02236A4645
:101D8000C1B20CF0FE00A0470020AEE76FF00500E6
:101D900070476FF00500A8E76FF00400A5E76FF04B
:101DA0000400A2E76FF004009FE76FF004009CE7D7
:101DB00074440020504200200400002040420020D3
:101DC00048420020032807D8054B1860054B1970BE
:101DD0000020054B186070476FF00500704700BF8A
:101DE00074440020040000207C44002018B1034A01
:101DF0001060002070476FF00500704744420020DB
:101E0000884203DB904203DD0020704700207047CA
:101E10000120704708B54BF288516920FFF744FF55
:101E200098B90D4B1B68012B05D043B90B4B1B68B0
:101E30000120984703E0094B1B68142098470121B3
:101E40000846FFF731FF18B908BD6FF00200FBE745
:101E50006FF00200F8E700BF744400204442002005
:101E600008B54BF288516920FFF71EFF90B90B4B64
:101E70001B68012B05D043B9094B1B68012098470B
:101E800003E0074B1B6814209847FF210020FFF751
:101E90000BFF08B16FF0020008BD00BF74440020C2
:101EA0004442002010B504460722012100B2FFF78A
:101EB000A7FFC8B14BF288516920FFF7F5FEB0B912
:101EC0000E4B1B68012B05D043B90D4B1B6801203D
:101ED000984703E00A4B1B6814209847A1B20420DE
:101EE000FFF7E2FE30B910BD6FF00500FBE76FF0C1
:101EF0000200F8E76FF00200F5E700BF744400202D
:101F00004442002037283CD03D2865D034281BD0DF
:101F1000704703F13400334A32F9102007EE902A5B
:101F2000F8EEE77A9FED307A67EE877AB3EE007AC3
:101F300067EE877A981C2D4A02EB8002C2ED027A86
:101F400001338B42E5D370470023FAE703F13700F2
:101F5000244A32F9102007EE902AF8EEE77A9FED36
:101F6000227A67EE877A9FED227A67EE877A981D4C
:101F70001E4A02EB8002C2ED017A01338B42E5D3A7
:101F800070470023FAE703F13D00164A32F91020AA
:101F900007EE902AF8EEE77A9FED137A67EE877ADC
:101FA0009FED147A67EE877A104A02EB8302C2ED46
:101FB000017A01338B42E6D30C4BD3ED037AF5EE75
:101FC000C07AF1EE10FA09DD9FED0B7A77EE677AB1
:101FD000064BC3ED037A9BE70023EBE7F1EE677A4C
:101FE000F6E700BF5442002000000038844400207F
:101FF0000000FA44000034430000B44310B500244C
:1020000005E0044B1B68185DFFF792FD0134202C9E
:10201000F7DD10BD8444002030B585B00546124B75
:102020000393124B029321238DF8043001A8FFF78C
:1020300079FC0F4C44F8040B50210020FFF7C2FE3E
:102040000C48FFF76BFD0C48FFF7D0FE0B48FFF77D
:1020500021FE2846FFF726FFFFF7DCFE6420FFF78E
:102060001FFC204605B030BDFD1F00089C0100206C
:102070008444002071190008A1180008051F0008F9
:1020800010B5A820FFF7BAFB0620FFF7C5FF054CE7
:102090002060FFF7E5FEB0EE000AFFF7E7FB204601
:1020A00010BD00BF8044002010B503460C4A0D4906
:1020B0000D48006840B10C4800680344521A93422E
:1020C00006D8094A136010BD0748084C0460F2E7BF
:1020D00001F0F8FE0C2303604FF0FF30F3E700BF80
:1020E0000000022000040000BC4400202045002025
:1020F00030B589B0044600230193214B1A6C42F499
:1021000080721A641B6C03F480730193019B02A913
:1021100003A800F063FB069BCBB900F03FFB03462E
:102120001848A0FB03239B0C013B1748174A026089
:1021300040F2E732C2604360002303618360836141
:1021400001F0D8F8054630B1284609B030BD00F09E
:1021500025FB4300E4E70C4800F06AFF0546002831
:10216000F2D12D2000F0FAFE0F2C01D90125EBE76A
:10217000002221462D2000F0B9FE054B1C60E3E74C
:102180000038024083DE1B43C04400200020004092
:1021900008000020002800F0E08170B582B00446FD
:1021A000036813F0010F3BD09F4B9B6803F00C03B7
:1021B000042B2CD09C4B9B6803F00C03082B21D0E4
:1021C0006368B3F5803F4FD0B3F5A02F52D0964B44
:1021D0001A6822F480321A601A6822F480221A6087
:1021E0006368002B50D000F0EDFE05468E4B1B6857
:1021F00013F4003F14D100F0E5FE401B6428F5D92C
:102200000320B1E1884B5B6813F4800FD8D0864B74
:102210001B6813F4003F03D06368002B00F09F811C
:10222000236813F0020F54D07F4B9B6813F00C0F00
:102230003ED07D4B9B6803F00C03082B33D0E36842
:10224000002B68D0794B01221A6000F0BBFE0546D6
:10225000754B1B6813F0020F54D100F0B3FE401B06
:102260000228F5D903207FE16F4A136843F48033D5
:102270001360B5E76C4B1A6842F480221A601A6842
:1022800042F480321A60ABE700F09CFE0546664BD4
:102290001B6813F4003FC3D000F094FE401B642879
:1022A000F5D9032060E1604B5B6813F4800FC6D161
:1022B0005D4B1B6813F0020F03D0E368012B40F065
:1022C0005081594A136823F0F803216943EAC10396
:1022D0001360236813F0080F42D063696BB3534B4C
:1022E0000122C3F8802E00F06DFE05464E4B5B6F59
:1022F00013F0020F34D100F065FE401B0228F5D91F
:10230000032031E1484A136823F0F803216943EAC6
:10231000C1031360DDE7454B00221A6000F052FE56
:102320000546414B1B6813F0020FD2D000F04AFE65
:10233000401B0228F5D9032016E13C4B0022C3F8CC
:10234000802E00F03FFE0546374B5B6F13F0020F07
:1023500006D000F037FE401B0228F5D9032003E128
:10236000236813F0040F77D02F4B1B6C13F0805FA2
:1023700033D1002301932C4B1A6C42F080521A6423
:102380001B6C03F080530193019B0125284B1B68B4
:1023900013F4807F23D0A368012B34D0052B38D0D1
:1023A000214B1A6F22F001021A671A6F22F0040201
:1023B0001A67A368002B3DD000F004FE06461A4BB6
:1023C0001B6F13F0020F46D100F0FCFD801B41F2A1
:1023D00088339842F3D90320C6E00025D6E7144A93
:1023E000136843F48073136000F0ECFD0646104B55
:1023F0001B6813F4807FCED100F0E4FD801B02281F
:10240000F5D90320B0E0084A136F43F001031367C6
:10241000CFE7054B1A6F42F004021A671A6F42F0B9
:1024200001021A67C5E700BF0038024000004742BA
:102430000070004000F0C6FD0646524B1B6F13F0C3
:10244000020F08D000F0BEFD801B41F28833984295
:10245000F3D9032088E0EDB9A369002B00F0838055
:10246000484A926802F00C02082A51D0022B17D079
:10247000454B00221A6600F0A5FD0446414B1B683F
:1024800013F0007F42D000F09DFD001B0228F5D91B
:10249000032069E03B4A136C23F080531364DBE7AD
:1024A000394B00221A6600F08DFD0546354B1B683E
:1024B00013F0007F06D000F085FD401B0228F5D9FF
:1024C000032051E0E369226A1343626A43EA8213FC
:1024D000A26A5208013A43EA0243E26A43EA02630B
:1024E000284A5360284B01221A6600F06BFD04460F
:1024F000244B1B6813F0007F06D100F063FD001B26
:102500000228F5D903202FE000202DE000202BE049
:10251000012B2BD01B4B5B6803F48001E2699142D5
:1025200026D103F03F02216A8A4223D1616A47F62D
:10253000C0721A40B2EB811F1ED103F44031A26A6F
:102540005208013AB1EB024F18D103F07063E26A0E
:10255000B3EB026F14D1002006E001207047012088
:1025600002E0012000E0002002B070BD0120FBE786
:102570000120F9E70120F7E70120F5E70120F3E763
:102580000120F1E7003802400000474208B5254B22
:102590009B6803F00C03042B3FD0082B3FD1214B49
:1025A0005A6802F03F025B6813F4800F12D01D4B93
:1025B0005968C1F388111C480023A1FB0001FDF7F5
:1025C00007FE184B5B68C3F3014301335B00B0FBAC
:1025D000F3F025E0134B5968C1F3881C4FEA4C1106
:1025E000B1EB0C006EEB0E0E4FEA8E1343EA9063D4
:1025F0008101091A63EB0E03DB0043EA5173C90042
:1026000011EB0C0C43F10003990200234FEA8C20DC
:1026100041EA9C51FDF7DCFDD3E7034800E00348A5
:1026200008BD00BF0038024040787D010024F4005E
:10263000002800F09B8070B50D4604464F4B1B6888
:1026400003F007038B4208D2CBB24C4A13701368D5
:1026500003F007038B4240F08B80236813F0020FD6
:1026600017D013F0040F04D0454A936843F4E053A5
:102670009360236813F0080F04D0414A936843F431
:10268000604393603E4A936823F0F003A1680B43D4
:102690009360236813F0010F32D06368012B21D0BF
:1026A0009A1E012A25D9364A126812F0020F61D00B
:1026B00033498A6822F0030213438B6000F082FCE6
:1026C00006462F4B9B6803F00C036268B3EB820F46
:1026D00016D000F077FC801B41F288339842F0D985
:1026E000032042E0264A126812F4003FE0D10120A4
:1026F0003BE0234A126812F0007FD9D1012034E078
:102700001E4B1B6803F00703AB4207D9EAB21B4B11
:102710001A701B6803F00703AB422DD1236813F036
:10272000040F06D0164A936823F4E053E1680B4384
:102730009360236813F0080F07D0114A936823F4BD
:102740006043216943EAC1039360FFF71FFF0C4B0D
:102750009B68C3F303130B4AD35CD8400A4B186041
:102760000A4B1868FFF7C4FC002070BD01207047B9
:102770000120FAE70120F8E70120F6E7003C0240DB
:1027800000380240084300080C0000200800002028
:10279000014B1868704700BF0C00002008B5FFF718
:1027A000F7FF044B9B68C3F38223034AD35CD840F2
:1027B00008BD00BF003802401843000808B5FFF705
:1027C000E7FF044B9B68C3F34233034AD35CD84012
:1027D00008BD00BF00380240184300080F23036003
:1027E0000B4B9A6802F0030242609A6802F0F00212
:1027F00082609A6802F4E052C2609B68DB0803F4CE
:10280000E0530361034B1B6803F007030B60704741
:1028100000380240003C024000230F2B00F2E4800D
:1028200070B582B060E085685E000324B44025EA9C
:102830000405CC68B4402C438460456825EA020551
:102840004C68C4F300129A402A4342605AE0DC0804
:10285000083450F8246003F0070295000F22AA40C4
:1028600026EA020E0A69AA4042EA0E0240F8242033
:102870005CE0072200E0002202FA0EF22A43023452
:102880005A4D45F824205A4A94686FEA0C0224EA0B
:102890000C054E6816F4801F01D04CEA0405544C18
:1028A000A560E46802EA04054E6816F4001F01D032
:1028B0004CEA04054E4CE560646802EA04054E6883
:1028C00016F4003F01D04CEA0405494C65602468C9
:1028D00022404D6815F4803F01D04CEA0402444C7C
:1028E000226001330F2B7DD801229A400C6804EA44
:1028F000020C32EA0404F4D14C6804F00304013CF5
:10290000012C90D94A6802F00302032A09D0C46856
:102910005D000322AA4024EA02048A68AA402243F6
:10292000C2604A6802F00302022A90D004684FEAAB
:10293000430E032202FA0EF224EA02044A6802F06D
:10294000030202FA0EF2224302604A6812F4403F88
:10295000C7D000220192274A546C44F48044546446
:10296000526C02F480420192019A9C08A51C1F4AF5
:1029700052F8255003F003024FEA820E0F2202FAAA
:102980000EF225EA02051C4A90423FF474AF02F5AC
:10299000806290421AD002F58062904218D002F50F
:1029A0008062904216D002F58062904214D002F507
:1029B0008062904212D002F58062904210D002F5FF
:1029C000806290423FF455AF082255E7012253E759
:1029D000022251E703224FE704224DE705224BE78D
:1029E000062249E702B070BD704700BF00380140C1
:1029F000003C0140003802400000024030B405684D
:102A00002C6824F480242C60046863608368402B65
:102A100005D0036899600368DA6030BC70470368CA
:102A20009A600368D960F8E710B40368D9B2103926
:102A30000C4AA2FB014212090B4CA25CC2655F2941
:102A400009D923F47F7323F0030304338365806D76
:102A50005DF8044B704723F47F7323F00303836511
:102A6000F5E700BFABAAAAAA00430008836A8269FF
:102A700092B9012B0AD0022B02D00BB10020704773
:102A8000C36A13F0807F28D100207047C36AB3F176
:102A9000C07F24D000207047B2F5005F09D0022B20
:102AA00025D9032B25D1C36A13F0807F23D10020C1
:102AB0007047032B03D8DFE803F01404140A002046
:102AC0007047C36A13F0807F0DD100207047C36A3E
:102AD000B3F1C07F09D0002070470120704701206A
:102AE0007047012070470120704701207047012086
:102AF00070470020704701207047000070B5044601
:102B000000F060FA002C5BD00546022384F83530D3
:102B1000002384F834302268136823F00103136023
:102B200023681A6812F0010F0AD000F04BFA431B19
:102B3000052BF5D920236365032084F8350070BD8B
:102B40001A68204810406168A2680A43E1680A4395
:102B500021690A4361690A43A1690A43E1690A4399
:102B6000216A0A430243616A04291ED01A6026685A
:102B7000756925F00705636A1D43042B07D1A36A15
:102B80001D43E36A1BB12046FFF770FF90B97561E2
:102B90002046FFF749FFE26D3F239340836000200A
:102BA0006065012384F83530C9E7E16A206B014391
:102BB0000A43DBE740236365012084F83500BEE764
:102BC0000120BCE73F8010F038B50446856D90F8D1
:102BD000340001282BD0012084F8340094F835000B
:102BE000C0B2012804D0002384F83430022038BD5C
:102BF000022084F83500002060652046FFF7FEFEC5
:102C0000E26D3F239340AB602268136843F01603E4
:102C10001360236C23B12268136843F00803136028
:102C20002268136843F0010313600020DFE70220ED
:102C3000DDE770B50446866D00F0C4F994F83530D0
:102C4000DBB2022B06D080236365002384F8343086
:102C5000012070BD05462268136823F01603136037
:102C60002268536923F080035361236CE3B1226827
:102C7000136823F0080313602268136823F001032C
:102C8000136023681B6813F0010F11D000F09AF94C
:102C9000431B052BF5D920236365032084F83500F9
:102CA000002384F83430D4E7A36C002BDFD1E3E7B2
:102CB000E26D3F239340B360012384F83530002058
:102CC00084F83400C5E790F83530DBB2022B03D02E
:102CD0008023436501207047052380F83530026862
:102CE000136823F00103136000207047F0B583B030
:102CF000044600230193724B1D68724BA3FB0535FC
:102D0000AD0A876D3E68C26D08239340334210D0F0
:102D100003681A6812F0040F0BD01A6822F004023C
:102D20001A60C26D08239340BB60436D43F00103FA
:102D30004365E26D01239340334209D02268526912
:102D400012F0800F04D0BB60636D43F00203636533
:102D5000E26D04239340334209D02268126812F0D6
:102D6000020F04D0BB60636D43F004036365E26D42
:102D700010239340334224D02268126812F0080FC7
:102D80001FD0BB6023681A6812F4802F0DD01B6817
:102D900013F4002F04D1236C9BB12046984710E018
:102DA000A36C73B1204698470BE01A6812F4807F39
:102DB00003D11A6822F008021A60236C0BB1204676
:102DC0009847E26D20239340334255D02268126821
:102DD00012F0100F50D0BB6094F83530DBB2052BE9
:102DE0000ED023681A6812F4802F33D01B6813F4B6
:102DF000002F2AD1636C002B3ED0204698473BE041
:102E00002268136823F0160313602268536923F0C5
:102E100080035361236CA3B12268136823F0080375
:102E20001360E26D3F239340BB60012384F835308B
:102E3000002384F83430236D002B3FD02046984780
:102E40003CE0A36C002BE7D1EBE7E36BA3B120469A
:102E5000984711E01A6812F4807F09D11A6822F0AD
:102E600010021A60012384F83530002384F83430CE
:102E7000E36B0BB120469847636DFBB1636D13F0B4
:102E8000010F17D0052384F835302268136823F02A
:102E900001031360019B01330193AB4204D8236803
:102EA0001B6813F0010FF5D1012384F8353000239E
:102EB00084F83430E36C0BB12046984703B0F0BD82
:102EC0000C000020B5814E1B074AD36823F4E06351
:102ED0001B041B0C000200F4E060034343F0BF63DB
:102EE00043F40033D360704700ED00E000B5194BA8
:102EF000DB68C3F30223C3F1070CBCF1040F28BF46
:102F00004FF0040C03F1040EBEF1060F18D9033B79
:102F10004FF0FF3E0EFA0CFC21EA0C0199400EFA2C
:102F200003F322EA0303194300280BDB0901C9B2AA
:102F300000F1604000F5614080F800135DF804FB8B
:102F40000023E5E700F00F000901C9B2024B195454
:102F5000F4E700BF00ED00E014ED00E0002807DB1F
:102F600000F01F02400901239340024A42F820303A
:102F7000704700BF00E100E008B50B4B1A6842F44F
:102F800000721A601A6842F480621A601A6842F489
:102F900080721A600320FFF797FF0020FFF7A8F860
:102FA000FDF74EFC002008BD003C0240034A1168BA
:102FB000034B1B780B441360704700BF084500208B
:102FC00005000020014B1868704700BF084500202D
:102FD00010B4036A046A24F001040462846924F0D2
:102FE000F00C4CEA021223F00A030B4382610362E5
:102FF0005DF8044B704710B4036A046A24F01004AF
:103000000462846924F4704C4CEA023223F0A00379
:1030100043EA0113826103625DF8044B70478368E1
:1030200023F070030B4343F00703836070470000F5
:1030300090F83D30DBB2012B37D1022380F83D30D0
:103040000268D36843F00103D3600368194A9342CE
:1030500020D0B3F1804F1DD0A2F57C42934219D00D
:1030600002F58062934215D002F58062934211D03E
:1030700002F5784293420DD002F57052934209D086
:10308000A2F59432934205D01A6842F001021A6008
:10309000002070479A6802F00702062A07D01A68D3
:1030A00042F001021A6000207047012070470020A2
:1030B000704700BF0000014070477047704770B50F
:1030C00004460368DE681D6915F0020F10D016F083
:1030D000020F0DD06FF002021A610123037703681B
:1030E0009B6913F0030F5ED0FFF7E7FF0023237700
:1030F00015F0040F12D016F0040F0FD023686FF0F4
:1031000004021A610223237723689B6913F4407F2A
:103110004FD02046FFF7D1FF0023237715F0080F8B
:1031200012D016F0080F0FD023686FF008021A6152
:10313000042323772368DB6913F0030F40D0204674
:10314000FFF7BBFF0023237715F0100F12D016F006
:10315000100F0FD023686FF010021A610823237735
:103160002368DB6913F4407F31D02046FFF7A5FFC9
:103170000023237715F0010F02D016F0010F2DD197
:1031800015F0800F02D016F0800F2FD115F0400FF0
:1031900002D016F0400F31D115F0200F02D016F0FA
:1031A000200F33D170BDFFF787FF2046FEF786FB67
:1031B0009CE72046FFF780FF2046FEF77FFBABE74A
:1031C0002046FFF779FF2046FEF778FBBAE7204656
:1031D000FFF772FF2046FEF771FBC9E723686FF027
:1031E00001021A612046FDF775F9C9E723686FF0FF
:1031F00080021A61204600F07CF9C7E723686FF06F
:1032000040021A612046FFF759FFC5E723686FF0B7
:1032100020021A61204600F06BF9C3E70368344AC4
:10322000904212D0B0F1804F0FD0A2F57C42904274
:103230000BD002F58062904207D002F58062904286
:1032400003D002F57842904203D123F070034A681C
:103250001343274A90422AD0B0F1804F27D0A2F5DD
:103260007C42904223D002F5806290421FD002F54A
:10327000806290421BD002F57842904217D002F54E
:103280007052904213D002F5806290420FD002F546
:10329000806290420BD0A2F59832904207D002F59E
:1032A0008062904203D002F58062904203D123F401
:1032B0004073CA68134323F080034A6913430360D1
:1032C0008B68C3620B688362094B984203D003F595
:1032D0008063984201D10B69036301234361036951
:1032E00013F0010F03D0036923F00103036170475A
:1032F0000000014040B310B5044690F83D30F3B1F2
:10330000022384F83D30214651F8040BFFF786FF75
:10331000012384F8463084F83E3084F83F3084F846
:10332000403084F8413084F8423084F8433084F8E7
:10333000443084F8453084F83D30002010BD80F8DA
:103340003C30FDF723FBDBE70120704710B48468B5
:1033500024F47F4C42EA03220A4342EA0C028260D0
:103360005DF8044B704790F83C30012B78D010B5D5
:103370000446012380F83C30022380F83D30026887
:10338000936823F47F4323F0770393600B68602BEB
:103390004CD029D8402B54D00CD9502B22D1CA68FC
:1033A00049680068FFF714FE50212068FFF737FED8
:1033B000002005E0202B0DD009D9302B0AD00120A8
:1033C000012384F83D30002384F83C3010BD0BB15C
:1033D000102B05D119462068FFF721FE0020EFE7EA
:1033E0000120EDE70120EBE7B3F5805F34D0B3F5C2
:1033F000005F0CD1CB684A6889680068FFF7A6FFB8
:103400002268936843F4804393600020D8E7702BD0
:1034100024D1CB684A6889680068FFF797FF226863
:10342000936843F0770393600020C9E7CA6849684E
:103430000068FFF7E0FD60212068FFF7F0FD002045
:10344000BEE7CA6849680068FFF7C2FD40212068EE
:10345000FFF7E5FD0020B3E70020B1E70120AFE76B
:103460000220704790F83C30012B3DD010B401236E
:1034700080F83C30022380F83D3003685A689C682D
:1034800022F0700C0A6842EA0C025A600368174A7C
:1034900093421AD0B3F1804F17D0A2F57C429342E9
:1034A00013D002F5806293420FD002F580629342FE
:1034B0000BD002F57842934207D002F57052934246
:1034C00003D0A2F59432934204D124F080044A68D8
:1034D00014439C60012380F83D30002380F83C3089
:1034E00018465DF8044B7047022070470000014009
:1034F00070477047026802F10C0353E8003F23F065
:10350000C0030C3242E800310029F3D1202380F8B7
:1035100041307047026802F10C0353E8003F23F486
:1035200090730C3242E800310029F3D1026802F1B5
:10353000140353E8003F23F00103143242E8003142
:103540000029F3D1036B012B05D0202380F84230F2
:10355000002303637047026802F10C0353E8003F45
:1035600023F010030C3242E800310029F3D1ECE7DC
:1035700090F84130DBB2212B01D0022070478368E4
:10358000B3F5805F17D0036A5A1C02621A78036889
:103590005A60C38C9BB2013B9BB2C3844BB9026897
:1035A000D36823F08003D3600268D36843F04003FC
:1035B000D360002070470369002BE4D1036A1B88A5
:1035C0000268C3F308035360036A02330362E0E74F
:1035D00038B504460268136923F44053C1680B43AD
:1035E000136183680269134342691343C2691A4332
:1035F0000168CB6823F4164323F00C031343CB601C
:103600000268536923F4407381690B435361036873
:10361000314A934206D002F58062934202D0FFF70E
:10362000BDF801E0FFF7CAF8E369B3F5004F29D010
:103630000021031849411B1841F10001C90041EA6A
:103640005371DB00181863684FEA83024FEA9373E3
:1036500041F10001FCF7BCFD204DA5FB00325109F2
:10366000642303FB11031B013233A5FB03235B0916
:1036700003F0F00202EB011203F00F032168134480
:103680008B6038BD0023021843EB0301121841F18F
:103690000001C90041EA5271D200101841F1000145
:1036A000626892185B41FCF793FD0C4DA5FB00325C
:1036B0005109642303FB1103DB003233A5FB032311
:1036C0005B095A0002F4F87202EB011203F00703DF
:1036D000216813448B60D4E7001001401F85EB5133
:1036E0002DE9F04383B005460E4617469946DDF8AE
:1036F00028802C68246836EA04030CBF4FF0010CC4
:103700004FF0000CBC4528D1B8F1FF3FF1D0FFF7D6
:1037100059FCA0EB0900404523D8B8F1000F22D096
:103720002B68DA6812F0040FE3D0802EE1D0402E2F
:10373000DFD01A6812F0080FDBD0002401941A6859
:1037400001925B680193019B2846FFF7E3FE082383
:103750006B6485F84040012000E0002003B0BDE824
:10376000F0830320FAE70320F8E760B310B50446BE
:1037700090F8413013B3242384F841302268D36891
:1037800023F40053D3602046FFF722FF2268136919
:1037900023F4904313612268536923F02A03536191
:1037A0002268D36843F40053D36000206064202370
:1037B00084F8413084F84230606310BD80F84030B6
:1037C000FCF760FFD7E7012070472DE9F04182B098
:1037D0001E4690F84130DBB2202B56D104460D46F0
:1037E0009046002955D00AB901204FE000234364D8
:1037F000212380F84130FFF7E5FB0746A4F8248039
:10380000A4F82680A368B3F5805F02D04FF00008CB
:1038100014E023692BB34FF000080FE0202384F855
:103820004130032032E038F8023B2268C3F308033A
:103830005360E28C92B2013A92B2E284E38C9BB282
:1038400093B100963B46002280212046FFF748FFB7
:103850000028E3D1002DE6D015F8012B23685A602B
:10386000E7E7A8460025E9E700963B46002240210D
:103870002046FFF735FF18B9202384F8413005E0D2
:10388000202384F84130032000E0022002B0BDE88C
:10389000F0810120FAE7704708B50168CA6822F094
:1038A0004002CA60202280F84120FFF7F4FF002088
:1038B00008BD70477047704710B5846B23685A691C
:1038C00094F84130DBB2212B10D023685A6902F002
:1038D000400294F84230DBB2222B11D0636C43F0EB
:1038E000100363642046FFF7E6FF10BD02F080027C
:1038F000002AEAD00023E3842046FFF7FBFDE4E73B
:10390000002AEBD00023E3852046FFF703FEE5E71E
:1039100008B5806B0023C385C384FFF7CCFF08BDC7
:1039200090F84230DBB2222B69D18368B3F5805F17
:103930004FD0826AB3F5805F04D0002B56D1036963
:10394000002B53D103685B681370836A0133836271
:10395000C38D9BB2013B9BB2C385002B51D100B5F7
:1039600083B00268D36823F02003D3600268D36871
:1039700023F48073D3600268536923F00103536119
:10398000202380F8423000234363036B012B33D1A3
:1039900000230363026802F10C0353E8003F23F0A5
:1039A00010030C3242E800310029F3D103681A6891
:1039B00012F0100F06D0002201921A6801925B6883
:1039C0000193019B818DFDF7DDFF002003B05DF8C1
:1039D00004FB0269002AACD1826A03685B68C3F306
:1039E00008031380836A02338362B1E703685B686C
:1039F00003F07F031370A8E7FFF75BFFE5E7022002
:103A0000704700207047000030B583B0044602685C
:103A10001368D068516913F00F0505D113F0200F1A
:103A200002D010F0200F19D12DB111F0010119D1E0
:103A300010F4907F16D1216B01297DD013F0800FF7
:103A400003D010F0800F40F0198113F0400F03D025
:103A500010F0400F40F0168103B030BD2046FFF754
:103A60005FFFF9E713F0010F06D010F4807F03D059
:103A7000626C42F00102626413F0040F04D019B1C9
:103A8000626C42F00202626413F0020F04D019B1BA
:103A9000626C42F00402626413F0080F07D010F069
:103AA000200F00D119B1626C42F008026264626CAE
:103AB000002AD1D013F0200F02D010F0200F29D10E
:103AC00023685B6903F04003626C12F0080F00D1B9
:103AD00063B32046FFF71EFD23685B6913F0400FB8
:103AE00020D0226802F1140353E8003F23F0400382
:103AF000143242E800310029F3D1E36B73B1634A19
:103B00001A65E06BFFF7DFF80028A5D0E06B036DC6
:103B10009847A1E72046FFF703FFD1E72046FFF7CC
:103B2000CAFE99E72046FFF7C6FE95E72046FFF755
:103B3000C2FE002363648FE713F0100F3FF47EAFE3
:103B400010F0100F3FF47AAF002301931368019334
:103B500053680193019B536913F0400F52D0E26BFD
:103B600013685B689BB2002B3FF476AFA18D99423E
:103B70007FF672AFE385D369B3F5807F37D02268D3
:103B800002F10C0353E8003F23F480730C3242E847
:103B900000310029F3D1226802F1140353E8003FF9
:103BA00023F00103143242E800310029F3D12268E6
:103BB00002F1140353E8003F23F04003143242E8BB
:103BC00000310029F3D1202384F8423000232363FD
:103BD000226802F10C0353E8003F23F010030C327B
:103BE00042E800310029F3D1E06BFFF722F802230D
:103BF0006363A18DE38D9BB2C91A89B22046FDF79C
:103C0000C1FE29E7A18DE38D9BB2C91A89B2E38D6C
:103C10009BB2002B3FF420AF00293FF41DAF226878
:103C200002F10C0353E8003F23F490730C3242E896
:103C300000300028F3D1226802F1140353E8003F5A
:103C400023F00103143242E800300028F3D120238E
:103C500084F8423000232363226802F10C0353E806
:103C6000003F23F010030C3242E800300028F3D16B
:103C7000022363632046FDF785FEEDE62046FFF74D
:103C800077FCE9E62046FFF707FEE5E61139000874
:103C900008B5806B01234363036B012B02D0FFF750
:103CA00009FE08BD818D4908FDF76CFEF9E708B5EE
:103CB0000346806B1B681B6813F4807F2BD10023A5
:103CC000C385026802F10C0353E8003F23F48073BC
:103CD0000C3242E800310029F3D1026802F11403EA
:103CE00053E8003F23F00103143242E80031002979
:103CF000F3D1026802F1140353E8003F23F04003BC
:103D0000143242E800310029F3D1202380F84230F8
:103D1000036B012B07D000234363036B012B0FD0F0
:103D2000FFF7C7FD08BD026802F10C0353E8003F2E
:103D300023F010030C3242E800310029F3D1EAE706
:103D4000818DFDF71FFEEDE730B583B004461346C5
:103D50008162828500254564222280F84220C26B60
:103D60001F48D063E26B1F481064E26B1E48D064AA
:103D7000E26B156520680A46011DE06BFEF724FF23
:103D8000019523681A6801925B680193019B23697E
:103D90005BB1226802F10C0353E8003F43F48073E7
:103DA0000C3242E800310029F3D1226802F11403F9
:103DB00053E8003F43F00103143242E80031002988
:103DC000F3D1226802F1140353E8003F43F04003AB
:103DD000143242E800310029F3D1002003B030BD95
:103DE000AF3C0008913C0008B938000890F8423018
:103DF000DBB2202B29D110B582B0044639B312B9F9
:103E0000012002B010BD0123036300234363FFF7C9
:103E10009BFF0028F5D1236B012B01D00120F0E797
:103E20000023019323681A6801925B680193019B48
:103E3000226802F10C0353E8003F43F010030C32F8
:103E400042E800310029F3D1DBE70220704701206E
:103E5000D7E70000054BD3F8882042F47002C3F87E
:103E600088204FF000629A60704700BF00ED00E0CC
:103E7000DFF834D0002103E00C4B5B584350043191
:103E80000B480C4B42189A42F6D30B4A02E000232F
:103E900042F8043B094B9A42F9D3FFF7DBFF00F0ED
:103EA00017F8FCF77BFB7047000002203043000846
:103EB0000000002074000020740000201C45002039
:103EC000FEE70000014B1868704700BF100000209B
:103ED00070B50D4D0D4C641BA4100026A64209D1EF
:103EE0000B4D0C4C00F0E8F8641BA4100026A64211
:103EF00005D170BD55F8043B98470136EEE755F8FB
:103F0000043B98470136F2E728430008284300089D
:103F1000284300082C430008024B0146186800F0B3
:103F200039B800BF100000200A44914200F1FF336D
:103F300000D1704710B511F8014B03F8014F9142C1
:103F4000F9D110BD02440346934200D1704703F8F3
:103F5000011BF9E770B50E4E0C463168054611B9E4
:103F600000F08CF830602146284600F087F8431CAA
:103F70000AD0C41C24F00304A04207D0211A28460A
:103F800000F07CF8013001D14FF0FF34204670BDC5
:103F9000104500202DE9F041CD1C25F00305083522
:103FA0000C2D38BF0C25002D074601DBA94205D991
:103FB0000C233B6000263046BDE8F0812E4E00F019
:103FC0006DF833681C4634BB29463846FFF7C2FFFC
:103FD000431C04464DD134682646002E40D1236848
:103FE0003146384604EB030800F048F880453AD1E2
:103FF000216803356D1A25F0030508350C2D38BFEF
:104000000C2529463846FFF7A5FF01302BD0236841
:104010002B4423600EE02268521B1ED40B2A16D9B3
:104020006119A342256018BF5960636808BF3160F9
:1040300062514B60384604F10B0600F035F826F06B
:104040000706231DF21AB6D09B1BA350B3E7626884
:10405000A3420CBF32605A60ECE723466468B2E7C3
:1040600034467668B9E70C233B60384600F01CF80C
:10407000A1E72560DEE700BF0C45002038B5064DFE
:104080000023044608462B60FEF70EF8431C02D1BD
:104090002B6803B1236038BD14450020014800F0AF
:1040A00009B800BF18450020014800F004B800BF5F
:1040B0001845002070477047F8B500BFF8BC08BC31
:1040C0009E467047F8B500BFF8BC08BC9E467047D6
:1040D000EC40000885080008000000000000000017
:1040E00080000000000000000000000064656661C0
:1040F000756C745461736B0049444C4500000000BA
:1041000000C1814001C0804101C0804100C18140A7
:1041100001C0804100C1814000C1814001C0804197
:1041200001C0804100C1814000C1814001C0804187
:1041300000C1814001C0804101C0804100C1814077
:1041400001C0804100C1814000C1814001C0804167
:1041500000C1814001C0804101C0804100C1814057
:1041600000C1814001C0804101C0804100C1814047
:1041700001C0804100C1814000C1814001C0804137
:1041800001C0804100C1814000C1814001C0804127
:1041900000C1814001C0804101C0804100C1814017
:1041A00000C1814001C0804101C0804100C1814007
:1041B00001C0804100C1814000C1814001C08041F7
:1041C00000C1814001C0804101C0804100C18140E7
:1041D00001C0804100C1814000C1814001C08041D7
:1041E00001C0804100C1814000C1814001C08041C7
:1041F00000C1814001C0804101C0804100C18140B7
:1042000000C0C101C30302C2C60607C705C5C40476
:10421000CC0C0DCD0FCFCE0E0ACACB0BC90908C8E6
:10422000D81819D91BDBDA1A1EDEDF1FDD1D1CDCD6
:1042300014D4D515D71716D6D21213D311D1D01046
:10424000F03031F133F3F23236F6F737F53534F436
:104250003CFCFD3DFF3F3EFEFA3A3BFB39F9F838A6
:1042600028E8E929EB2B2AEAEE2E2FEF2DEDEC2C96
:10427000E42425E527E7E62622E2E323E12120E006
:10428000A06061A163A3A26266A6A767A56564A4F6
:104290006CACAD6DAF6F6EAEAA6A6BAB69A9A86866
:1042A00078B8B979BB7B7ABABE7E7FBF7DBDBC7C56
:1042B000B47475B577B7B67672B2B373B17170B0C6
:1042C00050909151935352929656579755959454B6
:1042D0009C5C5D9D5F9F9E5E5A9A9B5B9959589826
:1042E000884849894B8B8A4A4E8E8F4F8D4D4C8C16
:1042F0004484854587474686824243834181804086
:104300000006101600061016000000000000000055
:10431000010203040607080900000000010203046B
:08432000E0BEFF7F0100000078
:04432800B5010008D3
:04432C0091010008F3
:10433000AAAAAAAAFF010000100000000024F400AD
:104340001400002000000000000000000000000039
:10435000000000000000000000000000000000005D
:10436000000000000000000000000000000000004D
:10437000000000000000000000000000000000003D
:10438000000000000000000000000000000000002D
:10439000000000000000000000000000000000001D
:0443A0000000000019
:0400000508003E7140
:00000001FF
