:020000040800F2
:1000000000000220551500087D0600087F06000844
:10001000810600088306000885060008000000002D
:10002000000000000000000000000000870600083B
:1000300089060008000000008B0600088D060008F5
:10004000A5150008A5150008A5150008A5150008A8
:10005000A5150008A5150008A5150008A515000898
:10006000A5150008A5150008A5150008A515000888
:10007000A5150008A5150008A5150008A515000878
:10008000A5150008A5150008A5150008A515000868
:10009000A5150008A5150008A5150008A515000858
:1000A000A5150008A5150008A5150008A515000848
:1000B000A5150008A5150008A5150008A515000838
:1000C000A5150008A5150008A5150008A515000828
:1000D000A5150008A5150008A51500089506000837
:1000E000A5150008A5150008A5150008A515000808
:1000F000A5150008A5150008A5150008A5150008F8
:10010000A5150008A5150008A5150008A5150008E7
:10011000A5150008A5150008A5150008A5150008D7
:10012000A5150008A5150008A5150008A5150008C7
:10013000A51500080000000000000000A51500083B
:10014000A5150008A5150008A5150008A5150008A7
:10015000A5150008A5150008A5150008A515000897
:10016000A5150008A5150008A5150008A515000887
:10017000A5150008A51500080000000000000000FB
:08018000A5150008A5150008F3
:1001880010B5054C237833B9044B13B10448AFF3C9
:1001980000800123237010BD0C0000200000000027
:1001A8000016000808B5034B1BB103490348AFF319
:1001B800008008BD000000001000002000160008A4
:1001C80053B94AB9002908BF00281CBF4FF0FF31B6
:1001D8004FF0FF3000F074B9ADF1080C6DE904CEB2
:1001E80000F006F8DDF804E0DDE9022304B070470A
:1001F8002DE9F047089D04468E46002B4DD18A42D2
:10020800944669D9B2FA82F252B101FA02F3C2F104
:10021800200120FA01F10CFA02FC41EA030E944095
:100228004FEA1C48210CBEFBF8F61FFA8CF708FBB6
:1002380016E341EA034306FB07F199420AD91CEB8E
:10024800030306F1FF3080F01F81994240F21C81C0
:10025800023E63445B1AA4B2B3FBF8F008FB103308
:1002680044EA034400FB07F7A7420AD91CEB04043D
:1002780000F1FF3380F00A81A74240F2078164440D
:10028800023840EA0640E41B00261DB1D440002392
:10029800C5E900433146BDE8F0878B4209D9002DF6
:1002A80000F0EF800026C5E9000130463146BDE880
:1002B800F087B3FA83F6002E4AD18B4202D38242EA
:1002C80000F2F980841A61EB030301209E46002D99
:1002D800E0D0C5E9004EDDE702B9FFDEB2FA82F2EE
:1002E800002A40F09280A1EB0C014FEA1C471FFA4C
:1002F8008CFE0126200CB1FBF7F307FB131140EA33
:1003080001410EFB03F0884208D91CEB010103F1FF
:10031800FF3802D2884200F2CB804346091AA4B2C1
:10032800B1FBF7F007FB101144EA01440EFB00FE95
:10033800A64508D91CEB040400F1FF3102D2A645FA
:1003480000F2BB800846A4EB0E0440EA03409CE799
:10035800C6F12007B34022FA07FC4CEA030C20FA46
:1003680007F401FA06F31C43F9404FEA1C4900FA66
:1003780006F3B1FBF9F8200C1FFA8CFE09FB1811E3
:1003880040EA014108FB0EF0884202FA06F20BD956
:100398001CEB010108F1FF3A80F08880884240F2A6
:1003A8008580A8F102086144091AA4B2B1FBF9F0EA
:1003B80009FB101144EA014100FB0EFE8E4508D9E5
:1003C8001CEB010100F1FF346CD28E456AD902386A
:1003D800614440EA0840A0FB0294A1EB0E01A1424F
:1003E800C846A64656D353D05DB1B3EB080261EBBD
:1003F8000E0101FA07F722FA06F3F1401F43C5E997
:10040800007100263146BDE8F087C2F12003D840CC
:100418000CFA02FC21FA03F3914001434FEA1C470E
:100428001FFA8CFEB3FBF7F007FB10360B0C43EA00
:10043800064300FB0EF69E4204FA02F408D91CEBB0
:10044800030300F1FF382FD29E422DD902386344AE
:100458009B1B89B2B3FBF7F607FB163341EA03414E
:1004680006FB0EF38B4208D91CEB010106F1FF389D
:1004780016D28B4214D9023E6144C91A46EA004694
:1004880038E72E46284605E70646E3E61846F8E626
:100498004B45A9D2B9EB020864EB0C0E0138A3E76F
:1004A8004646EAE7204694E74046D1E7D0467BE750
:1004B800023B614432E7304609E76444023842E7C8
:1004C800704700BF72B6FEE700B595B03022002134
:1004D80008A801F089F80023039304930593069371
:1004E80007930193214A116C41F080511164126CF9
:1004F80002F080520192019A02931D4B1A6842F44D
:1005080080421A601B6803F480430293029B012314
:1005180008934FF48033099302230E934FF480021B
:100528000F92192210924FF4A87211921293042379
:10053800139308A800F024FB98B90F230393022310
:100548000493002305934FF4A05306934FF480536C
:100558000793052103A800F05BFD20B915B05DF8ED
:1005680004FBFFF7AFFFFFF7ADFF00BF0038024005
:100578000070004008B500F0AFFFFFF7A5FF00F0DE
:1005880003F800F01DF8FEE782B0002100910B4B44
:100598001A6B42F080021A631A6B02F08002009212
:1005A800009A01911A6B42F002021A631B6B03F066
:1005B80002030193019B02B0704700BF003802405C
:1005C80008B50A480A4B03604FF4E133436000233F
:1005D8008360C36003610C2242618361C36100F0E0
:1005E800A5F900B908BDFFF76DFFFBE7280000205B
:1005F8000048004010B588B0002303930493059386
:10060800069307930268194B9A4201D008B010BDAF
:100618000024019403F5F8331A6C42F480221A641A
:100628001A6C02F480220192019A02941A6B42F029
:1006380002021A631B6B03F002030293029B4FF43E
:10064800406303930223049303230693072307932A
:1006580003A9074800F0B2FD22462146272000F0F2
:10066800BBFE272000F0F0FED0E700BF00480040A6
:1006780000040240FEE7FEE7FEE7FEE7FEE77047FC
:100688007047704708B500F041FF08BD08B502483B
:1006980000F0DAF908BD00BF2800002082B0002170
:1006A80000910B4B5A6C42F480425A645A6C02F423
:1006B80080420092009A01911A6C42F080521A64AA
:1006C8001B6C03F080530193019B02B0704700BF7D
:1006D800003802400268D36823F49073D36002683C
:1006E800536923F001035361202380F83A3070479F
:1006F80090F83930DBB2212B01D002207047836893
:10070800B3F5805F17D0036A5A1C02621A7803682F
:100718005A60C38C9BB2013B9BB2C3844BB902683D
:10072800D36823F08003D3600268D36843F04003A2
:10073800D36000207047036A1B880268C3F308036C
:10074800536003691BB9036A02330362E1E7036A72
:1007580001330362DDE7000038B504460268136917
:1007680023F44053C1680B43136183680269134340
:1007780042691343C2691A430168CB6823F41643DC
:1007880023F00C031343CB600268536923F44073CE
:1007980081690B435361C369B3F5004F35D00368D2
:1007A800604A934200F0918002F58062934200F023
:1007B8008C8000F0E3FC0021031849411B1841F12B
:1007C8000001C90041EA5371DB00181863684FEA59
:1007D80083024FEA937341F10001FFF7F1FC524D98
:1007E800A5FB00325109642303FB11031B013233BB
:1007F800A5FB03235B0903F0F00202EB011203F0EF
:100808000F03216813448B608AE00368454A9342CA
:100818002FD002F5806293422BD000F0AFFC00236A
:10082800021843EB0301121841F10001C90041EA23
:100838005271D200101841F10001626892185B41B0
:10084800FFF7BEFC384DA5FB00325109642303FBBA
:100858001103DB003233A5FB03235B095A0002F4C2
:10086800F87202EB011203F00703216813448B604E
:1008780056E000F093FC0023021843EB0301121822
:1008880041F10001C90041EA5271D200101841F14A
:100898000001626892185B41FFF792FC224DA5FBAC
:1008A80000325109642303FB1103DB003233A5FB3B
:1008B80003235B095A0002F4F87202EB011203F0F9
:1008C8000703216813448B602AE000F067FC0021CD
:1008D800031849411B1841F10001C90041EA53714D
:1008E800DB00181863684FEA83024FEA937341F1FB
:1008F8000001FFF765FC0C4DA5FB0032510964238C
:1009080003FB11031B013233A5FB03235B0903F02F
:10091800F00202EB011203F00F03216813448B600D
:1009280038BD00BF001001401F85EB5158B310B50A
:10093800044690F839300BB3242384F83930226800
:10094800D36823F40053D3602046FFF705FF2268DD
:10095800136923F4904313612268536923F02A032F
:1009680053612268D36843F40053D3600020E063E6
:10097800202384F8393084F83A3010BD80F83830B4
:10098800FFF738FED8E701207047704708B50168BF
:10099800CA6822F04002CA60202280F83920FFF796
:1009A800F4FF002008BD704708B590F83A30DBB274
:1009B800222B46D18368B3F5805F0FD003690BBB48
:1009C80003685A68836A591C81621A70C38D9BB286
:1009D800013B9BB2C385F3B1002008BD826A03695D
:1009E80043B903685B68C3F308031380836A02335F
:1009F8008362EBE703685B68DBB21380836A0133C9
:100A08008362E3E703685B68826A511C816203F0D2
:100A18007F031370DAE70268D36823F02003D360FA
:100A28000268D36823F48073D3600268536923F0A3
:100A380001035361202380F83A30FFF7B4FF002008
:100A4800CBE70220C9E7704710B50446026813686F
:100A5800D168526913F00F0005D113F0200F02D0AE
:100A680011F0200F13D128B112F0010213D111F4A3
:100A7800907F10D113F0800F02D011F0800F6CD14D
:100A880013F0400F02D011F0400F6AD110BD20467C
:100A9800FFF78AFFFAE713F0010F06D011F4807F01
:100AA80003D0E06B40F00100E06313F0040F04D0C2
:100AB8001AB1E06B40F00200E06313F0020F04D0BB
:100AC8001AB1E06B40F00400E06313F0080F07D0A0
:100AD80011F0200F00D11AB1E26B42F00802E26374
:100AE800E26B002AD2D013F0200F02D011F0200FB1
:100AF80021D123685B6903F04003E26B12F0080F11
:100B080000D123B32046FFF7E5FD23685A6912F0A8
:100B1800400F18D05A6922F040025A61636B73B1D2
:100B2800124A1A65606B00F031FC0028AED0606B89
:100B3800036D9847AAE72046FFF736FFD9E7204616
:100B4800FFF781FFA2E72046FFF77DFF9EE72046DB
:100B5800FFF779FF0023E36398E72046FFF7C8FD16
:100B680094E72046FFF712FF90E700BF790B0008D3
:100B780008B5806B0023C385C384FFF764FF08BDF5
:100B8800002800F0DA8170B582B00446036813F0DB
:100B9800010F3BD09F4B9B6803F00C03042B2CD018
:100BA8009C4B9B6803F00C03082B21D06368B3F5BA
:100BB800803F4FD0B3F5A02F52D0964B1A6822F43D
:100BC80080321A601A6822F480221A606368002B47
:100BD80050D000F0A7FC05468E4B1B6813F4003F6D
:100BE80014D100F09FFC401B6428F5D90320ABE129
:100BF800884B5B6813F4800FD8D0864B1B6813F4BE
:100C0800003F03D06368002B00F09981236813F03C
:100C1800020F54D07F4B9B6813F00C0F3ED07D4BD6
:100C28009B6803F00C03082B33D0E368002B68D0D3
:100C3800794B01221A6000F075FC0546754B1B685C
:100C480013F0020F54D100F06DFC401B0228F5D9B7
:100C5800032079E16F4A136843F480331360B5E7E2
:100C68006C4B1A6842F480221A601A6842F4803287
:100C78001A60ABE700F056FC0546664B1B6813F498
:100C8800003FC3D000F04EFC401B6428F5D9032078
:100C98005AE1604B5B6813F4800FC6D15D4B1B684B
:100CA80013F0020F03D0E368012B40F04A81594A40
:100CB800136823F0F803216943EAC103136023682A
:100CC80013F0080F42D063696BB3534B0122C3F88A
:100CD800802E00F027FC05464E4B5B6F13F0020F89
:100CE80034D100F01FFC401B0228F5D903202BE16A
:100CF800484A136823F0F803216943EAC1031360E3
:100D0800DDE7454B00221A6000F00CFC0546414B1C
:100D18001B6813F0020FD2D000F004FC401B02281D
:100D2800F5D9032010E13C4B0022C3F8802E00F0D7
:100D3800F9FB0546374B5B6F13F0020F06D000F046
:100D4800F1FB401B0228F5D90320FDE0236813F0CE
:100D5800040F77D02F4B1B6C13F0805F33D1002327
:100D680001932C4B1A6C42F080521A641B6C03F0EE
:100D780080530193019B0125284B1B6813F4807F46
:100D880023D0A368012B34D0052B38D0214B1A6F00
:100D980022F001021A671A6F22F004021A67A36888
:100DA800002B3DD000F0BEFB06461A4B1B6F13F01C
:100DB800020F46D100F0B6FB801B41F288339842FF
:100DC800F3D90320C0E00025D6E7144A136843F49A
:100DD8008073136000F0A6FB0646104B1B6813F4E3
:100DE800807FCED100F09EFB801B0228F5D903201E
:100DF800AAE0084A136F43F001031367CFE7054BD6
:100E08001A6F42F004021A671A6F42F001021A6759
:100E1800C5E700BF003802400000474200700040AC
:100E280000F080FB06464F4B1B6F13F0020F08D0F3
:100E380000F078FB801B41F288339842F3D90320F5
:100E480082E0E5B9A369002B7DD0464A926802F09A
:100E58000C02082A51D0022B17D0434B00221A66E5
:100E680000F060FB04463F4B1B6813F0007F42D044
:100E780000F058FB001B0228F5D9032064E0394A2A
:100E8800136C23F080531364DCE7374B00221A6697
:100E980000F048FB0546334B1B6813F0007F06D073
:100EA80000F040FB401B0228F5D903204CE0E36921
:100EB800226A1343626A43EA8213A26A5208013A19
:100EC80043EA0243E26A43EA0263264A5360264B36
:100ED80001221A6600F026FB0446224B1B6813F019
:100EE800007F06D100F01EFB001B0228F5D9032065
:100EF8002AE0002028E0002026E0012B26D0194B0C
:100F08005B6803F48001E269914221D103F03F025A
:100F1800216A8A421ED1616A47F6C0721A408A4223
:100F28001AD103F44032A16A8A4217D103F07063E0
:100F3800E26A934214D1002006E0012070470120A4
:100F480002E0012000E0002002B070BD0120FBE7B4
:100F58000120F9E70120F7E70120F5E70120F3E791
:100F68000120F1E7003802400000474208B5254B50
:100F78009B6803F00C03042B3FD0082B3FD1214B77
:100F88005A6802F03F025B6813F4800F12D01D4BC1
:100F98005968C1F388111C480023A1FB0001FFF721
:100FA8000FF9184B5B68C3F3014301335B00B0FBD7
:100FB800F3F025E0134B5968C1F3881C4FEA4C1134
:100FC800B1EB0C006EEB0E0E4FEA8E1343EA906302
:100FD8008101091A63EB0E03DB0043EA5173C90070
:100FE80011EB0C0C43F10003990200234FEA8C200B
:100FF80041EA9C51FFF7E4F8D3E7034800E00348CF
:1010080008BD00BF0038024040787D010024F4008C
:10101800002800F09B8070B50D4604464F4B1B68B6
:1010280003F00F038B4208D2CBB24C4A13701368FB
:1010380003F00F038B4240F08B80236813F0020FFC
:1010480017D013F0040F04D0454A936843F4E053D3
:101058009360236813F0080F04D0414A936843F45F
:10106800604393603E4A936823F0F003A1680B4302
:101078009360236813F0010F32D06368012B21D0ED
:101088009A1E012A25D9364A126812F0020F61D039
:1010980033498A6822F0030213438B6000F042FA56
:1010A80006462F4B9B6803F00C036268B3EB820F74
:1010B80016D000F037FA801B41F288339842F0D9F5
:1010C800032042E0264A126812F4003FE0D10120D2
:1010D8003BE0234A126812F0007FD9D1012034E0A6
:1010E8001E4B1B6803F00F03AB4207D9EAB21B4B38
:1010F8001A701B6803F00F03AB422DD1236813F05D
:10110800040F06D0164A936823F4E053E1680B43B2
:101118009360236813F0080F07D0114A936823F4EB
:101128006043216943EAC1039360FFF71FFF0C4B3B
:101138009B68C3F303130B4AD35CD8400A4B18606F
:101148000A4B186800F0A2F9002070BD0120704712
:101158000120FAE70120F8E70120F6E7003C024009
:10116800003802401816000808000020040000207B
:10117800014B1868704700BF0800002008B5FFF74A
:10118800F7FF044B9B68C3F38223034AD35CD84020
:1011980008BD00BF003802402816000808B5FFF750
:1011A800E7FF044B9B68C3F34233034AD35CD84040
:1011B80008BD00BF003802402816000800230F2B86
:1011C80000F2DA80F0B583B03AE0072200E00022AE
:1011D800AA4032430234694D45F82420684A14680D
:1011E8006FEA0C0224EA0C054E6816F4803F01D021
:1011F8004CEA0405624C2560646802EA04054E68FE
:1012080016F4003F01D04CEA04055D4C6560A46803
:1012180002EA04054E6816F4801F01D04CEA040562
:10122800574CA560E46822404D6815F4001F01D0B2
:101238004CEA0402524CE26001330F2B00F29A8010
:1012480001229A400C6804EA020C32EA0404F3D141
:101258004C68651E012D03D9112C01D0122C12D116
:1012680085685E000324B44025EA0405CC68B440D0
:101278002C438460456825EA02054C68C4F30012D3
:101288009A402A434260C5684FEA430E032404FA91
:101298000EF4E24325EA04058C6804FA0EF42C43A4
:1012A800C4604C68022C01D0122C0FD1DD0808351F
:1012B80050F8257003F00704A6000F24B44027EA6D
:1012C80004070C69B4403C4340F8254004681440C6
:1012D8004A6802F0030202FA0EF2224302604A68E8
:1012E80012F0805FA8D000220192264A546C44F480
:1012F80080445464526C02F480420192019A9C0822
:10130800A51C1E4A52F8256003F0030295000F221F
:10131800AA4026EA02061C4A90423FF458AF02F55A
:10132800806290421AD002F58062904218D002F58D
:101338008062904216D002F58062904214D002F585
:101348008062904212D002F58062904210D002F57D
:10135800806290423FF439AF082239E7012237E72B
:10136800022235E7032233E7042231E705222FE77B
:1013780006222DE703B0F0BD704700BF00380140DA
:10138800003C0140003802400000024090F835302F
:10139800DBB2022B03D0802343650120704705236D
:1013A80080F835300268136823F0010313600020C9
:1013B80070470000074AD36823F4E0631B041B0C42
:1013C800000200F4E060034343F0BF6343F40033DA
:1013D800D360704700ED00E000B5194BDB68C3F33C
:1013E8000223C3F1070CBCF1040F28BF4FF0040C13
:1013F80003F1040EBEF1060F18D9033B4FF0FF3E70
:101408000EFA0CFC21EA0C0199400EFA03F322EAC9
:101418000303194300280BDB0901C9B200F160403E
:1014280000F5614080F800135DF804FB0023E5E750
:1014380000F00F000901C9B2024B1954F4E700BFCC
:1014480000ED00E014ED00E0002807DB00F01F02CB
:10145800400901239340024A42F82030704700BFF8
:1014680000E100E00138B0F1807F0BD24FF0E023BB
:101478005861054AF02182F823100020986107225C
:101488001A6170470120704700ED00E010B504466E
:101498000E4B18784FF47A73B3FBF0F30C4A1068CC
:1014A800B0FBF3F0FFF7DEFF68B90F2C01D901207C
:1014B8000AE0002221464FF0FF30FFF78DFF054B71
:1014C8001C60002000E0012010BD00BF00000020CB
:1014D800080000200400002008B50B4B1A6842F4ED
:1014E80000721A601A6842F480621A601A6842F43C
:1014F80080721A600320FFF75DFF0020FFF7C6FF28
:10150800FFF7CCF8002008BD003C0240034A1168F0
:10151800034B1B780B441360704700BF6800002022
:1015280000000020014B1868704700BF68000020C9
:10153800054BD3F8882042F47002C3F888204FF096
:1015480000629A60704700BF00ED00E0DFF834D019
:10155800002103E00C4B5B58435004310B480C4B03
:1015680042189A42F6D30B4A02E0002342F8043BA1
:10157800094B9A42F9D3FFF7DBFF00F011F8FEF7A9
:10158800F9FF704700000220401600080000002004
:101598000C0000200C0000206C000020FEE700007A
:1015A80070B50D4D0D4C641BA4100026A64209D140
:1015B8000B4D0C4C00F020F8641BA4100026A6422A
:1015C80005D170BD55F8043B98470136EEE755F84C
:1015D800043B98470136F2E7381600083816000829
:1015E800381600083C16000802440346934200D10E
:1015F800704703F8011BF9E7F8B500BFF8BC08BC51
:101608009E467047F8B500BFF8BC08BC9E467047B8
:10161800000000000000000001020304060708099A
:081628000000000001020304B0
:08163000C8EBFF7F0100000080
:04163800AD010008F8
:04163C008901000818
:0C16400001000000100000000024F40075
:040000050800155585
:00000001FF
