:020000040800F2
:1000000000000220D12900087108000873080008C8
:10001000750800087708000879080008000000004B
:100020000000000000000000000000007B08000845
:100030007D080008000000007F0800088108000813
:10004000212A0008212A0008212A0008212A000864
:10005000212A0008212A0008212A0008212A000854
:10006000212A0008212A0008212A0008212A000844
:1000700089080008212A000899080008212A000898
:10008000212A0008212A0008212A0008212A000824
:10009000212A0008212A0008212A0008212A000814
:1000A000212A0008212A0008212A0008212A000804
:1000B000212A0008212A0008212A0008212A0008F4
:1000C000212A0008212A0008212A0008212A0008E4
:1000D000212A0008A9080008212A0008B9080008F8
:1000E000212A0008212A0008212A0008212A0008C4
:1000F000212A0008212A0008212A0008212A0008B4
:10010000212A0008212A0008212A0008212A0008A3
:10011000212A0008212A0008212A0008212A000893
:10012000212A0008212A0008C9080008212A0008FD
:10013000212A00080000000000000000212A000819
:10014000212A0008212A0008212A0008212A000863
:10015000212A0008212A0008D9080008212A0008BD
:10016000212A0008212A0008212A0008212A000843
:10017000212A0008212A00080000000000000000D9
:08018000212A0008212A0008D1
:1001880010B5054C237833B9044B13B10448AFF3C9
:1001980000800123237010BD0C0000200000000027
:1001A8007C2A000808B5034B1BB103490348AFF389
:1001B800008008BD00000000100000207C2A000814
:1001C80053B94AB9002908BF00281CBF4FF0FF31B6
:1001D8004FF0FF3000F074B9ADF1080C6DE904CEB2
:1001E80000F006F8DDF804E0DDE9022304B070470A
:1001F8002DE9F047089D04468E46002B4DD18A42D2
:10020800944669D9B2FA82F252B101FA02F3C2F104
:10021800200120FA01F10CFA02FC41EA030E944095
:100228004FEA1C48210CBEFBF8F61FFA8CF708FBB6
:1002380016E341EA034306FB07F199420AD91CEB8E
:10024800030306F1FF3080F01F81994240F21C81C0
:10025800023E63445B1AA4B2B3FBF8F008FB103308
:1002680044EA034400FB07F7A7420AD91CEB04043D
:1002780000F1FF3380F00A81A74240F2078164440D
:10028800023840EA0640E41B00261DB1D440002392
:10029800C5E900433146BDE8F0878B4209D9002DF6
:1002A80000F0EF800026C5E9000130463146BDE880
:1002B800F087B3FA83F6002E4AD18B4202D38242EA
:1002C80000F2F980841A61EB030301209E46002D99
:1002D800E0D0C5E9004EDDE702B9FFDEB2FA82F2EE
:1002E800002A40F09280A1EB0C014FEA1C471FFA4C
:1002F8008CFE0126200CB1FBF7F307FB131140EA33
:1003080001410EFB03F0884208D91CEB010103F1FF
:10031800FF3802D2884200F2CB804346091AA4B2C1
:10032800B1FBF7F007FB101144EA01440EFB00FE95
:10033800A64508D91CEB040400F1FF3102D2A645FA
:1003480000F2BB800846A4EB0E0440EA03409CE799
:10035800C6F12007B34022FA07FC4CEA030C20FA46
:1003680007F401FA06F31C43F9404FEA1C4900FA66
:1003780006F3B1FBF9F8200C1FFA8CFE09FB1811E3
:1003880040EA014108FB0EF0884202FA06F20BD956
:100398001CEB010108F1FF3A80F08880884240F2A6
:1003A8008580A8F102086144091AA4B2B1FBF9F0EA
:1003B80009FB101144EA014100FB0EFE8E4508D9E5
:1003C8001CEB010100F1FF346CD28E456AD902386A
:1003D800614440EA0840A0FB0294A1EB0E01A1424F
:1003E800C846A64656D353D05DB1B3EB080261EBBD
:1003F8000E0101FA07F722FA06F3F1401F43C5E997
:10040800007100263146BDE8F087C2F12003D840CC
:100418000CFA02FC21FA03F3914001434FEA1C470E
:100428001FFA8CFEB3FBF7F007FB10360B0C43EA00
:10043800064300FB0EF69E4204FA02F408D91CEBB0
:10044800030300F1FF382FD29E422DD902386344AE
:100458009B1B89B2B3FBF7F607FB163341EA03414E
:1004680006FB0EF38B4208D91CEB010106F1FF389D
:1004780016D28B4214D9023E6144C91A46EA004694
:1004880038E72E46284605E70646E3E61846F8E626
:100498004B45A9D2B9EB020864EB0C0E0138A3E76F
:1004A8004646EAE7204694E74046D1E7D0467BE750
:1004B800023B614432E7304609E76444023842E7C8
:1004C800704700BF72B6FEE700B595B03022002134
:1004D80008A802F0C7FA0023039304930593069330
:1004E80007930193204A116C41F080511164126CFA
:1004F80002F080520192019A02931C4B1A6842F44E
:1005080080421A601B6803F480430293029B012314
:1005180008934FF48033099302230E934FF480021B
:100528000F9206221092A822119212930423139379
:1005380008A800F0CDFB98B90F2303930223049376
:10054800002305934FF4A05306934FF48053079369
:10055800052103A800F00AFE20B915B05DF804FBD8
:10056800FFF7B0FFFFF7AEFF003802400070004011
:1005780008B501F0C1FAFFF7A7FF00F00BF800F08B
:10058800CBF900F06DF800F075FA00F04FF800F0C4
:1005980001FBFEE7F0B589B00024039404940594A8
:1005A8000694079400941F4B1A6B42F080021A635A
:1005B8001A6B02F080020092009A01941A6B42F0C2
:1005C80001021A631A6B02F001020192019A029465
:1005D8001A6B42F002021A631B6B03F002030293C8
:1005E800029B114D01221146284600F087FF224642
:1005F8001021284600F082FF012603960496022760
:100608000597069403A9284600F086FE1023039355
:10061800049605970323069303A9284600F07CFE59
:1006280009B0F0BD003802400000024008B50A4891
:100638000A4B03604FF4E133436000238360C360D7
:1006480003610C2242618361C36101F0A1FE00B91C
:1006580008BDFFF737FFFBE7A801002000100140A5
:1006680008B50A480A4B03604FF4E133436000239E
:100678008360C36003610C2242618361C36101F03E
:1006880087FE00B908BDFFF71DFFFBE7F00100205A
:100698000048004030B58BB004460023059306930C
:1006A8000793089309930368634A934204D0634A03
:1006B800934260D00BB030BD00250195604B5A6C59
:1006C80042F010025A645A6C02F010020192019A28
:1006D80002951A6B42F002021A631B6B03F00203C5
:1006E8000293029BC02305930223069303230893D6
:1006F8000723099305A9534800F00EFE5248534BAF
:1007080003604FF0006343608560C5604FF4806309
:10071800036145618561C5610562456200F074FF4A
:1007280018BB494BE3639C6349484A4B03604FF04D
:1007380000634360402383600023C3604FF48062FA
:10074800026143618361C3610362436200F05CFF3D
:1007580070B93F4BA3639C6300221146252001F02A
:100768004BF9252001F080F9A4E7FFF7ABFED8E7A5
:10077800FFF7A8FEEDE700250395314B1A6C42F40C
:1007880080221A641A6C02F480220392039A049558
:100798001A6B42F002021A631B6B03F00203049304
:1007A800049B4FF4406305930223069303230893A5
:1007B8000723099305A9234800F0AEFD2648274BD7
:1007C80003604FF0006343608560C5604FF4806349
:1007D800036145618561C5610562456200F014FFEA
:1007E80018BB1D4BE3639C631D481E4B03604FF011
:1007F80000634360402383600023C3604FF480623A
:10080800026143618361C3610362436200F0FCFEDD
:1008180070B9134BA3639C6300221146272001F093
:10082800EBF8272001F020F944E7FFF74BFED8E763
:10083800FFF748FEEDE700BF001001400048004008
:1008480000380240000402402800002040640240B2
:1008580088000020B8640240E800002028600240B8
:100868004801002058600240FEE7FEE7FEE7FEE789
:10087800FEE770477047704708B501F057F908BDA3
:1008880008B5024800F0B8FF08BD00BFE800002026
:1008980008B5024800F0B0FF08BD00BF48010020BD
:1008A80008B5024801F05CFE08BD00BFA8010020A1
:1008B80008B5024801F054FE08BD00BFF001002051
:1008C80008B5024800F098FF08BD00BF28000020C6
:1008D80008B5024800F090FF08BD00BF880000205E
:1008E80082B0002100910B4B5A6C42F480425A644A
:1008F8005A6C02F480420092009A01911A6C42F0FC
:1009080080521A641B6C03F080530193019B02B060
:10091800704700BF0038024010B582B00024009430
:100928001A4B1A6B42F400121A631A6B02F4001283
:100938000092009A01941A6B42F480021A631B6BAE
:1009480003F480030193019B224621460C2001F009
:1009580053F80C2001F088F8224621460E2001F0B9
:100968004BF80E2001F080F8224621463A2001F08B
:1009780043F83A2001F078F822462146462001F053
:100988003BF8462001F070F802B010BD0038024074
:1009980082B00368104A934204D0B3F1804F0ED05E
:1009A80002B07047002300930C4B5A6C42F00102CE
:1009B8005A645B6C03F001030093009BF0E700238B
:1009C8000193064B1A6C42F001021A641B6C03F087
:1009D80001030193019BE3E7000001400038024056
:1009E80000B589B0002303930493059306930793F6
:1009F80003681C4A934205D0B3F1804F1AD009B05E
:100A08005DF804FB00230193174B1A6B42F00102B7
:100A18001A631B6B03F001030193019B4FF470638E
:100A28000393022304930123079303A90F4800F0BB
:100A380073FCE4E7002302930B4B1A6B42F00202AB
:100A48001A631B6B03F002030293029B08230393B0
:100A5800022304930123079303A9054800F05CFCD3
:100A6800CDE700BF0000014000380240000002400E
:100A78000004024010B596B0002412941394149404
:100A880015941094119409940A940B940C940D9451
:100A98000E940F942022214601A801F0E3FF3B4861
:100AA8003B4B036053234360846040F6B733C36015
:100AB80004614461846101F07BF900284BD14FF453
:100AC8008053129312A9314801F07DFA002845D1CC
:100AD8002E4801F099F9002843D10023109311936F
:100AE80010A92A4801F0EEFA00283DD160230993A5
:100AF80000220A920B920C920D920E920F9209A963
:100B0800224801F0E5F9002831D1042209A91F483B
:100B180001F0DEF970BB082209A91C4801F0D8F9D8
:100B280058BB0C2209A9194801F0D2F940BB00238F
:100B3800019302930393049305934FF40052069292
:100B4800089301A9114801F003FBE0B90F48FFF72A
:100B580047FF16B010BDFFF7B5FCB0E7FFF7B2FCD2
:100B6800B6E7FFF7AFFCB8E7FFF7ACFCBEE7FFF767
:100B7800A9FCCAE7FFF7A6FCCDE7FFF7A3FCD0E77F
:100B8800FFF7A0FCD3E7FFF79DFCDFE73802002062
:100B98000000014000B58FB000230A930B930C931B
:100BA8000D93089309930193029303930493059378
:100BB8000693079322484FF0804202605322426016
:100BC800836044F61F62C2600361836101F0F0F83C
:100BD80030BB4FF480530A930AA9194801F0F3F97E
:100BE80008BB174801F010F900BB002308930993CC
:100BF80008A9134801F066FAD8B9602301930023C5
:100C080002930393059304220DEB02010C4801F0B3
:100C18005FF988B90A48FFF7E3FE0FB05DF804FBF7
:100C2800FFF750FCD5E7FFF74DFCDAE7FFF74AFC82
:100C3800DBE7FFF747FCE0E7FFF744FCEAE700BF24
:100C48008002002038B50C46002301E00133DBB2F6
:100C5800104A92F800C09C451BD91D460E4A52F80E
:100C68002320D2F804118142F0D1D2F808313BB1E7
:100C7800984722460021084B53F8250001F0F2FE60
:100C8800054B53F8251091F80021D1F8040101F023
:100C980059FE38BDC8020020CC02002008B58446A1
:100CA800002301E00133DBB2074A12789A420AD9DD
:100CB800064A52F82310D1F804016045F2D191F8A0
:100CC800002101F03FFE08BDC8020020CC02002030
:100CD800002800F0E08170B582B00446036813F084
:100CE800010F3BD09F4B9B6803F00C03042B2CD0C7
:100CF8009C4B9B6803F00C03082B21D06368B3F569
:100D0800803F4FD0B3F5A02F52D0964B1A6822F4EB
:100D180080321A601A6822F480221A606368002BF5
:100D280050D000F00FFF05468E4B1B6813F4003FB0
:100D380014D100F007FF401B6428F5D90320B1E166
:100D4800884B5B6813F4800FD8D0864B1B6813F46C
:100D5800003F03D06368002B00F09F81236813F0E5
:100D6800020F54D07F4B9B6813F00C0F3ED07D4B85
:100D78009B6803F00C03082B33D0E368002B68D082
:100D8800794B01221A6000F0DDFE0546754B1B68A1
:100D980013F0020F54D100F0D5FE401B0228F5D9FC
:100DA80003207FE16F4A136843F480331360B5E78B
:100DB8006C4B1A6842F480221A601A6842F4803236
:100DC8001A60ABE700F0BEFE0546664B1B6813F4DD
:100DD800003FC3D000F0B6FE401B6428F5D90320BD
:100DE80060E1604B5B6813F4800FC6D15D4B1B68F4
:100DF80013F0020F03D0E368012B40F05081594AE9
:100E0800136823F0F803216943EAC10313602368D8
:100E180013F0080F42D063696BB3534B0122C3F838
:100E2800802E00F08FFE05464E4B5B6F13F0020FCD
:100E380034D100F087FE401B0228F5D9032031E1A8
:100E4800484A136823F0F803216943EAC103136091
:100E5800DDE7454B00221A6000F074FE0546414B61
:100E68001B6813F0020FD2D000F06CFE401B022862
:100E7800F5D9032016E13C4B0022C3F8802E00F080
:100E880061FE0546374B5B6F13F0020F06D000F08A
:100E980059FE401B0228F5D9032003E1236813F00B
:100EA800040F77D02F4B1B6C13F0805F33D10023D6
:100EB80001932C4B1A6C42F080521A641B6C03F09D
:100EC80080530193019B0125284B1B6813F4807FF5
:100ED80023D0A368012B34D0052B38D0214B1A6FAF
:100EE80022F001021A671A6F22F004021A67A36837
:100EF800002B3DD000F026FE06461A4B1B6F13F060
:100F0800020F46D100F01EFE801B41F28833984242
:100F1800F3D90320C6E00025D6E7144A136843F442
:100F28008073136000F00EFE0646104B1B6813F426
:100F3800807FCED100F006FE801B0228F5D9032061
:100F4800B0E0084A136F43F001031367CFE7054B7E
:100F58001A6F42F004021A671A6F42F001021A6708
:100F6800C5E700BF0038024000004742007000405B
:100F780000F0E8FD0646524B1B6F13F0020F08D035
:100F880000F0E0FD801B41F288339842F3D903203A
:100F980088E0EDB9A369002B00F08380484A926885
:100FA80002F00C02082A51D0022B17D0454B002220
:100FB8001A6600F0C7FD0446414B1B6813F0007F1A
:100FC80042D000F0BFFD001B0228F5D9032069E0DC
:100FD8003B4A136C23F080531364DBE7394B002240
:100FE8001A6600F0AFFD0546354B1B6813F0007F0D
:100FF80006D000F0A7FD401B0228F5D9032051E0D8
:10100800E369226A1343626A43EA8213A26A5208B6
:10101800013A43EA0243E26A43EA0263284A536018
:10102800284B01221A6600F08DFD0446244B1B68EC
:1010380013F0007F06D100F085FD001B0228F5D9CA
:1010480003202FE000202DE000202BE0012B2BD0E7
:101058001B4B5B6803F48001E269914226D103F0DF
:101068003F02216A8A4223D1616A47F6C0721A4058
:10107800B2EB811F1ED103F44031A26A5208013A33
:10108800B1EB024F18D103F07063E26AB3EB026F61
:1010980014D1002006E001207047012002E0012061
:1010A80000E0002002B070BD0120FBE70120F9E755
:1010B8000120F7E70120F5E70120F3E70120F1E738
:1010C800003802400000474208B5254B9B6803F0F2
:1010D8000C03042B3FD0082B3FD1214B5A6802F058
:1010E8003F025B6813F4800F12D01D4B5968C1F39F
:1010F80088111C480023A1FB0001FFF761F8184B79
:101108005B68C3F3014301335B00B0FBF3F025E0F8
:10111800134B5968C1F3881C4FEA4C11B1EB0C0012
:101128006EEB0E0E4FEA8E1343EA90638101091AA3
:1011380063EB0E03DB0043EA5173C90011EB0C0C9F
:1011480043F10003990200234FEA8C2041EA9C51A5
:10115800FFF736F8D3E7034800E0034808BD00BFAF
:1011680000380240001BB7000024F400002800F0FB
:101178009B8070B50D4604464F4B1B6803F0070370
:101188008B4208D2CBB24C4A1370136803F00703A2
:101198008B4240F08B80236813F0020F17D013F0B6
:1011A800040F04D0454A936843F4E05393602368DE
:1011B80013F0080F04D0414A936843F460439360E6
:1011C8003E4A936823F0F003A1680B4393602368B9
:1011D80013F0010F32D06368012B21D09A1E012A27
:1011E80025D9364A126812F0020F61D033498A684D
:1011F80022F0030213438B6000F0A4FC06462F4B39
:101208009B6803F00C036268B3EB820F16D000F002
:1012180099FC801B41F288339842F0D9032042E0C0
:10122800264A126812F4003FE0D101203BE0234A2D
:10123800126812F0007FD9D1012034E01E4B1B68E0
:1012480003F00703AB4207D9EAB21B4B1A701B68BD
:1012580003F00703AB422DD1236813F0040F06D027
:10126800164A936823F4E053E1680B4393602368BC
:1012780013F0080F07D0114A936823F460432169DB
:1012880043EAC1039360FFF71FFF0C4B9B68C3F34E
:1012980003130B4AD35CD8400A4B18600A4B1868F2
:1012A80000F004FC002070BD012070470120FAE71F
:1012B8000120F8E70120F6E7003C02400038024030
:1012C8009C2A00080800002004000020014B186830
:1012D800704700BF0800002008B5FFF7F7FF044B70
:1012E8009B68C3F38223034AD35CD84008BD00BF80
:1012F80000380240AC2A000808B5FFF7E7FF044BA6
:101308009B68C3F34233034AD35CD84008BD00BF8F
:1013180000380240AC2A000800230F2B00F2E480BA
:1013280070B582B060E085685E000324B44025EAA9
:101338000405CC68B4402C438460456825EA02055E
:101348004C68C4F300129A402A4342605AE0DC0811
:10135800083450F8246003F0070295000F22AA40D1
:1013680026EA020E0A69AA4042EA0E0240F8242040
:101378005CE0072200E0002202FA0EF22A4302345F
:101388005A4D45F824205A4A94686FEA0C0224EA18
:101398000C054E6816F4801F01D04CEA0405544C25
:1013A800A560E46802EA04054E6816F4001F01D03F
:1013B8004CEA04054E4CE560646802EA04054E6890
:1013C80016F4003F01D04CEA0405494C65602468D6
:1013D80022404D6815F4803F01D04CEA0402444C89
:1013E800226001330F2B7DD801229A400C6804EA51
:1013F800020C32EA0404F4D14C6804F00304013C02
:10140800012C90D94A6802F00302032A09D0C46863
:101418005D000322AA4024EA02048A68AA40224303
:10142800C2604A6802F00302022A90D004684FEAB8
:10143800430E032202FA0EF224EA02044A6802F07A
:10144800030202FA0EF2224302604A6812F4403F95
:10145800C7D000220192274A546C44F48044546453
:10146800526C02F480420192019A9C08A51C1F4A02
:1014780052F8255003F003024FEA820E0F2202FAB7
:101488000EF225EA02051C4A90423FF474AF02F5B9
:10149800806290421AD002F58062904218D002F51C
:1014A8008062904216D002F58062904214D002F514
:1014B8008062904212D002F58062904210D002F50C
:1014C800806290423FF455AF082255E7012253E766
:1014D800022251E703224FE704224DE705224BE79A
:1014E800062249E702B070BD704700BF00380140CE
:1014F800003C014000380240000002400AB181610E
:10150800704709048161704730B405682C6824F479
:1015180080242C60046863608368402B05D00368CE
:1015280099600368DA6030BC704703689A600368A2
:10153800D960F8E710B40368D9B210390C4AA2FB95
:10154800014212090B4CA25CC2655F2909D923F438
:101558007F7323F0030304338365806D5DF8044BC8
:10156800704723F47F7323F003038365F5E700BF17
:10157800ABAAAAAA942A0008836A826992B9012BA5
:101588000AD0022B02D00BB100207047C36A13F0B7
:10159800807F28D100207047C36AB3F1C07F24D070
:1015A80000207047B2F5005F09D0022B25D9032B24
:1015B80025D1C36A13F0807F23D100207047032B05
:1015C80003D8DFE803F01404140A00207047C36A44
:1015D80013F0807F0DD100207047C36AB3F1C07F3C
:1015E80009D0002070470120704701207047012072
:1015F8007047012070470120704701207047002084
:10160800704701207047000070B5044600F09AFA50
:10161800002C5BD00546022384F83530002384F87B
:1016280034302268136823F00103136023681A68B2
:1016380012F0010F0AD000F085FA431B052BF5D9EB
:1016480020236365032084F8350070BD1A6820489C
:1016580010406168A2680A43E1680A4321690A43A5
:1016680061690A43A1690A43E1690A43216A0A4395
:101678000243616A04291ED01A602668756925F03C
:101688000705636A1D43042B07D1A36A1D43E36A58
:101698001BB12046FFF770FF90B975612046FFF730
:1016A80049FFE26D3F23934083600020606501237A
:1016B80084F83530C9E7E16A206B01430A43DBE768
:1016C80040236365012084F83500BEE70120BCE7AC
:1016D8003F8010F038B50446856D90F83400012835
:1016E8002BD0012084F8340094F83500C0B20128CA
:1016F80004D0002384F83430022038BD022084F856
:101708003500002060652046FFF7FEFEE26D3F23AE
:101718009340AB602268136843F016031360236C90
:1017280023B12268136843F0080313602268136822
:1017380043F0010313600020DFE70220DDE770B506
:101748000446866D00F0FEF994F83530DBB2022BC2
:1017580006D080236365002384F83430012070BDEF
:1017680005462268136823F016031360226853693C
:1017780023F080035361236CE3B12268136823F0DC
:10178800080313602268136823F0010313602368B9
:101798001B6813F0010F11D000F0D4F9431B052B7F
:1017A800F5D920236365032084F83500002384F8E5
:1017B8003430D4E7A36C002BDFD1E3E7E26D3F239D
:1017C8009340B360012384F83530002084F8340056
:1017D800C5E790F83530DBB2022B03D08023436590
:1017E80001207047052380F835300268136823F01C
:1017F8000103136000207047F0B583B0044600234E
:101808000193724B1D68724BA3FB0535AD0A876DBA
:101818003E68C26D08239340334210D003681A68AB
:1018280012F0040F0BD01A6822F004021A60C26D7D
:1018380008239340BB60436D43F001034365E26DA9
:1018480001239340334209D02268526912F0800F75
:1018580004D0BB60636D43F002036365E26D04234B
:101868009340334209D02268126812F0020F04D064
:10187800BB60636D43F004036365E26D102393401E
:10188800334224D02268126812F0080F1FD0BB60C0
:1018980023681A6812F4802F0DD01B6813F4002FE8
:1018A80004D1236C9BB12046984710E0A36C73B118
:1018B800204698470BE01A6812F4807F03D11A6813
:1018C80022F008021A60236C0BB120469847E26D9B
:1018D80020239340334255D02268126812F0100F2B
:1018E80050D0BB6094F83530DBB2052B0ED023689E
:1018F8001A6812F4802F33D01B6813F4002F2AD1F2
:10190800636C002B3ED0204698473BE02268136862
:1019180023F0160313602268536923F08003536190
:10192800236CA3B12268136823F008031360E26DE7
:101938003F239340BB60012384F83530002384F8AB
:101948003430236D002B3FD0204698473CE0A36CF1
:10195800002BE7D1EBE7E36BA3B12046984711E0F2
:101968001A6812F4807F09D11A6822F010021A60EE
:10197800012384F83530002384F83430E36B0BB14D
:1019880020469847636DFBB1636D13F0010F17D0C4
:10199800052384F835302268136823F001031360A7
:1019A800019B01330193AB4204D823681B6813F0F1
:1019B800010FF5D1012384F83530002384F8343041
:1019C800E36C0BB12046984703B0F0BD0800002037
:1019D800B5814E1B074AD36823F4E0631B041B0C34
:1019E800000200F4E060034343F0BF6343F40033B4
:1019F800D360704700ED00E000B5194BDB68C3F316
:101A08000223C3F1070CBCF1040F28BF4FF0040CEC
:101A180003F1040EBEF1060F18D9033B4FF0FF3E49
:101A28000EFA0CFC21EA0C0199400EFA03F322EAA3
:101A38000303194300280BDB0901C9B200F1604018
:101A480000F5614080F800135DF804FB0023E5E72A
:101A580000F00F000901C9B2024B1954F4E700BFA6
:101A680000ED00E014ED00E0002807DB00F01F02A5
:101A7800400901239340024A42F82030704700BFD2
:101A880000E100E00138B0F1807F0BD24FF0E02395
:101A98005861054AF02182F8231000209861072236
:101AA8001A6170470120704700ED00E010B5044648
:101AB8000E4B18784FF47A73B3FBF0F30C4A1068A6
:101AC800B0FBF3F0FFF7DEFF68B90F2C01D9012056
:101AD8000AE0002221464FF0FF30FFF78DFF054B4B
:101AE8001C60002000E0012010BD00BF00000020A5
:101AF800080000200400002008B50B4B1A6842F4C7
:101B080000721A601A6842F480621A601A6842F415
:101B180080721A600320FFF75DFF0F20FFF7C6FFF2
:101B2800FEF7DEFE002008BD003C0240034A1168B3
:101B3800034B1B780B441360704700BFD80200208A
:101B480000000020014B1868704700BFD802002031
:101B580030B4036A026A22F00102026242688469B0
:101B680024F073040D682C4323F0020C8B6843EABD
:101B78000C03104DA84203D005F58065A84205D195
:101B880023F00803CD682B4323F00403094DA84232
:101B980003D005F58065A84205D122F440724D694D
:101BA8002A438D692A43426084614A68426303621A
:101BB80030BC70470000014030B4036A026A22F466
:101BC800807202624268C46924F0730C0C6844EAAB
:101BD8000C0523F400738C6843EA0423114CA042DB
:101BE80003D004F58064A04206D123F40063CC68D6
:101BF80043EA042323F480630A4CA04203D004F58B
:101C08008064A04207D122F440524C6942EA04128F
:101C18008C6942EA04124260C5614A68C263036281
:101C280030BC70470000014030B4036A026A22F4F5
:101C3800805202624468C26922F4E6420D6842EAB0
:101C4800052223F400538D6843EA0533094DA84261
:101C580003D005F58065A84204D124F480444D6979
:101C680044EA85144460C2614A680264036230BC75
:101C7800704700BF0000014010B4036A046A24F0F2
:101C880001040462846924F0F00C4CEA021223F087
:101C98000A030B43826103625DF8044B704710B47A
:101CA800036A046A24F010040462846924F4704C02
:101CB8004CEA023223F0A00343EA01138261036273
:101CC8005DF8044B7047836823F070030B4343F0BF
:101CD80007038360704770470368344A904212D004
:101CE800B0F1804F0FD0A2F57C4290420BD002F5A4
:101CF8008062904207D002F58062904203D002F5DC
:101D08007842904203D123F070034A681343274A6C
:101D180090422AD0B0F1804F27D0A2F57C42904261
:101D280023D002F5806290421FD002F58062904273
:101D38001BD002F57842904217D002F570529042BB
:101D480013D002F5806290420FD002F58062904273
:101D58000BD0A2F59832904207D002F580629042EB
:101D680003D002F58062904203D123F44073CA681D
:101D7800134323F080034A69134303608B68C362EB
:101D88000B688362094B984203D003F5806398423D
:101D980001D10B69036301234361036913F0010F48
:101DA80003D0036923F00103036170470000014079
:101DB80040B310B5044690F83D30F3B1022384F8DF
:101DC8003D30214651F8040BFFF786FF012384F8C4
:101DD800463084F83E3084F83F3084F8403084F848
:101DE800413084F8423084F8433084F8443084F831
:101DF800453084F83D30002010BD80F83C30FEF7B7
:101E0800C7FDDBE70120704740B310B5044690F8E2
:101E18003D30F3B1022384F83D30214651F8040BDC
:101E2800FFF75AFF012384F8463084F83E3084F8DF
:101E38003F3084F8403084F8413084F8423084F8E8
:101E4800433084F8443084F8453084F83D3000202D
:101E580010BD80F83C30FFF73EFFDBE701207047FC
:101E680030B4036A026A22F010020262446882698E
:101E780022F4E6420D6842EA052223F020038D6829
:101E880043EA0513114DA84203D005F58065A84221
:101E980006D123F08003CD6843EA051323F04003FD
:101EA8000A4DA84203D005F58065A84207D124F45D
:101EB80040644D6944EA85048D6944EA85044460B8
:101EC80082614A688263036230BC70470000014047
:101ED80038B590F83C30012B66D004460D460123F6
:101EE80080F83C300C2A5AD8DFE802F007595959D3
:101EF8001B5959593059595944000068FFF728FEB1
:101F08002268936943F0080393612268936923F078
:101F1800040393612268936929690B439361002044
:101F28003EE00068FFF79CFF2268936943F4006372
:101F380093612268936923F48063936122689369AB
:101F4800296943EA01239361002029E00068FFF72B
:101F580033FE2268D36943F00803D3612268D3694A
:101F680023F00403D3612268D36929690B43D36141
:101F7800002015E00068FFF757FE2268D36943F494
:101F88000063D3612268D36923F48063D361226834
:101F9800D369296943EA0123D361002000E00120C5
:101FA800002384F83C3038BD0220FCE710B4846874
:101FB80024F47F4C42EA03220A4342EA0C0282607C
:101FC8005DF8044B704790F83C30012B78D010B581
:101FD8000446012380F83C30022380F83D30026833
:101FE800936823F47F4323F0770393600B68602B97
:101FF8004CD029D8402B54D00CD9502B22D1CA68A8
:1020080049680068FFF738FE50212068FFF75BFE3B
:10201800002005E0202B0DD009D9302B0AD0012053
:10202800012384F83D30002384F83C3010BD0BB107
:10203800102B05D119462068FFF745FE0020EFE771
:102048000120EDE70120EBE7B3F5805F34D0B3F56D
:10205800005F0CD1CB684A6889680068FFF7A6FF63
:102068002268936843F4804393600020D8E7702B7C
:1020780024D1CB684A6889680068FFF797FF22680F
:10208800936843F0770393600020C9E7CA684968FA
:102098000068FFF704FE60212068FFF714FE0020A7
:1020A800BEE7CA6849680068FFF7E6FD4021206876
:1020B800FFF709FE0020B3E70020B1E70120AFE7F2
:1020C8000220704790F83C30012B3DD010B401231A
:1020D80080F83C30022380F83D3003685A689C68D9
:1020E80022F0700C0A6842EA0C025A600368174A28
:1020F80093421AD0B3F1804F17D0A2F57C42934295
:1021080013D002F5806293420FD002F580629342A9
:102118000BD002F57842934207D002F570529342F1
:1021280003D0A2F59432934204D124F080044A6883
:1021380014439C60012380F83D30002380F83C3034
:1021480018465DF8044B70470220704700000140B4
:1021580090F83C30012B22D0012380F83C30CB682A
:1021680023F440738A68134323F480634A68134353
:1021780023F400630A68134323F480530A69134362
:1021880023F400534A69134323F48043CA69134371
:1021980002685364002380F83C30184670470220D8
:1021A8007047026802F10C0353E8003F23F0C003B4
:1021B8000C3242E800310029F3D1202380F8413065
:1021C8007047026802F10C0353E8003F23F4907350
:1021D8000C3242E800310029F3D1026802F11403FD
:1021E80053E8003F23F00103143242E8003100298C
:1021F800F3D1036B012B05D0202380F84230002354
:1022080003637047026802F10C0353E8003F23F0B0
:1022180010030C3242E800310029F3D1ECE790F8C2
:102228004130DBB2212B01D0022070478368B3F51F
:10223800805F17D0036A5A1C02621A7803685A60D2
:10224800C38C9BB2013B9BB2C3844BB90268D36871
:1022580023F08003D3600268D36843F04003D3605F
:10226800002070470369002BE4D1036A1B880268C9
:10227800C3F308035360036A02330362E0E7000014
:1022880038B504460268136923F44053C1680B4308
:10229800136183680269134342691343C2691A438D
:1022A8000168CB6823F4164323F00C031343CB6077
:1022B8000268536923F4407381690B4353610368CF
:1022C800314A934206D002F58062934202D0FFF76A
:1022D80003F801E0FFF710F8E369B3F5004F29D0E0
:1022E8000021031849411B1841F10001C90041EAC6
:1022F8005371DB00181863684FEA83024FEA93733F
:1023080041F10001FDF75CFF204DA5FB00325109AA
:10231800642303FB11031B013233A5FB03235B0971
:1023280003F0F00202EB011203F00F0321681344DB
:102338008B6038BD0023021843EB0301121841F1EA
:102348000001C90041EA5271D200101841F10001A0
:10235800626892185B41FDF733FF0C4DA5FB003214
:102368005109642303FB1103DB003233A5FB03236C
:102378005B095A0002F4F87202EB011203F007033A
:10238800216813448B60D4E7001001401F85EB518E
:1023980060B310B5044690F8413013B3242384F891
:1023A80041302268D36823F40053D3602046FFF7F6
:1023B80067FF2268136923F4904313612268536905
:1023C80023F02A0353612268D36843F40053D3608F
:1023D80000206064202384F8413084F84230606330
:1023E80010BD80F84030FEF755F9D7E70120704757
:1023F800704708B50168CA6822F04002CA60202206
:1024080080F84120FFF7F4FF002008BD70477047AF
:1024180010B5846B23685A6994F84130DBB2212BDC
:1024280010D023685A6902F0400294F84230DBB2B7
:10243800222B11D0636C43F0100363642046FEF72F
:102448002DFC10BD02F08002002AEAD00023E384AC
:102458002046FFF7A6FEE4E7002AEBD00023E38539
:102468002046FFF7AEFEE5E708B5806B0023C3857D
:10247800C384FEF713FC08BD90F84230DBB2222B70
:1024880069D18368B3F5805F4FD0826AB3F5805F06
:1024980004D0002B56D10369002B53D103685B6825
:1024A8001370836A01338362C38D9BB2013B9BB275
:1024B800C385002B51D100B583B00268D36823F0DF
:1024C8002003D3600268D36823F48073D360026862
:1024D800536923F001035361202380F8423000231D
:1024E8004363036B012B33D100230363026802F1BA
:1024F8000C0353E8003F23F010030C3242E800318C
:102508000029F3D103681A6812F0100F06D00022D0
:1025180001921A6801925B680193019B818DFEF715
:1025280091FB002003B05DF804FB0269002AACD1DE
:10253800826A03685B68C3F308031380836A023303
:102548008362B1E703685B6803F07F031370A8E751
:10255800FFF75CFFE5E702207047002070470000A6
:1025680030B583B0044602681368D068516913F027
:102578000F0505D113F0200F02D010F0200F19D14C
:102588002DB111F0010119D110F4907F16D1216BF2
:1025980001297DD013F0800F03D010F0800F40F098
:1025A800198113F0400F03D010F0400F40F016814E
:1025B80003B030BD2046FFF75FFFF9E713F0010FC6
:1025C80006D010F4807F03D0626C42F0010262648E
:1025D80013F0040F04D019B1626C42F00202626475
:1025E80013F0020F04D019B1626C42F00402626465
:1025F80013F0080F07D010F0200F00D119B1626C4A
:1026080042F008026264626C002AD1D013F0200FF5
:1026180002D010F0200F29D123685B6903F0400332
:10262800626C12F0080F00D163B32046FFF7C9FDB2
:1026380023685B6913F0400F20D0226802F114036D
:1026480053E8003F23F04003143242E800310029E8
:10265800F3D1E36B73B1634A1A65E06BFFF7B9F81E
:102668000028A5D0E06B036D9847A1E72046FFF747
:1026780003FFD1E72046FEF711FB99E72046FEF756
:102688000DFB95E72046FEF709FB002363648FE7FF
:1026980013F0100F3FF47EAF10F0100F3FF47AAF35
:1026A800002301931368019353680193019B5369B5
:1026B80013F0400F52D0E26B13685B689BB2002B9B
:1026C8003FF476AFA18D99427FF672AFE385D36967
:1026D800B3F5807F37D0226802F10C0353E8003F3E
:1026E80023F480730C3242E800310029F3D12268C8
:1026F80002F1140353E8003F23F00103143242E8C7
:1027080000310029F3D1226802F1140353E8003F95
:1027180023F04003143242E800310029F3D120238A
:1027280084F8423000232363226802F10C0353E843
:10273800003F23F010030C3242E800310029F3D1A6
:10274800E06BFEF7FCFF02236363A18DE38D9BB270
:10275800C91A89B22046FEF775FA29E7A18DE38DDB
:102768009BB2C91A89B2E38D9BB2002B3FF420AF0C
:1027780000293FF41DAF226802F10C0353E8003F23
:1027880023F490730C3242E800300028F3D1226819
:1027980002F1140353E8003F23F00103143242E826
:1027A80000300028F3D1202384F84230002323632B
:1027B800226802F10C0353E8003F23F010030C32A7
:1027C80042E800300028F3D1022363632046FEF775
:1027D80039FAEDE62046FFF722FDE9E62046FFF745
:1027E80008FEE5E67124000808B5806B0123436301
:1027F800036B012B02D0FFF70AFE08BD818D490843
:10280800FEF720FAF9E708B50346806B1B681B68DA
:1028180013F4807F2BD10023C385026802F10C03D7
:1028280053E8003F23F480730C3242E8003100295A
:10283800F3D1026802F1140353E8003F23F00103C7
:10284800143242E800310029F3D1026802F114037E
:1028580053E8003F23F04003143242E800310029D6
:10286800F3D1202380F84230036B012B07D00023DB
:102878004363036B012B0FD0FFF7C8FD08BD026847
:1028880002F10C0353E8003F23F010030C3242E836
:1028980000310029F3D1EAE7818DFEF7D3F9EDE79E
:1028A80030B583B0044613468162828500254564AD
:1028B800222280F84220C26B1F48D063E26B1F4877
:1028C8001064E26B1E48D064E26B156520680A4606
:1028D800011DE06BFEF7FEFE019523681A68019260
:1028E8005B680193019B23695BB1226802F10C03C9
:1028F80053E8003F43F480730C3242E8003100296A
:10290800F3D1226802F1140353E8003F43F00103B6
:10291800143242E800310029F3D1226802F114038D
:1029280053E8003F43F04003143242E800310029E5
:10293800F3D1002003B030BD0F280008F1270008AC
:102948001924000890F84230DBB2202B29D110B5A9
:1029580082B0044639B312B9012002B010BD012378
:10296800036300234363FFF79BFF0028F5D1236B24
:10297800012B01D00120F0E70023019323681A6896
:1029880001925B680193019B226802F10C0353E8F2
:10299800003F43F010030C3242E800310029F3D124
:1029A800DBE7022070470120D7E70000054BD3F88A
:1029B800882042F47002C3F888204FF000629A60C1
:1029C800704700BF00ED00E0DFF834D0002103E0DD
:1029D8000C4B5B58435004310B480C4B42189A423D
:1029E800F6D30B4A02E0002342F8043B094B9A4213
:1029F800F9D3FFF7DBFF00F011F8FDF7B9FD7047D9
:102A080000000220C42A0008000000200C0000205A
:102A18000C000020DC020020FEE7000070B50D4D20
:102A28000D4C641BA4100026A64209D10B4D0C4C7A
:102A380000F020F8641BA4100026A64205D170BD42
:102A480055F8043B98470136EEE755F8043B98479C
:102A58000136F2E7BC2A0008BC2A0008BC2A000894
:102A6800C02A000802440346934200D1704703F885
:102A7800011BF9E7F8B500BFF8BC08BC9E467047D3
:0C2A8800F8B500BFF8BC08BC9E467047C3
:102A940000061016000610160000000000000000DA
:102AA40001020304060708090000000001020304F0
:082AB40044D7FF7F0100000080
:042ABC00AD01000860
:042AC0008901000880
:0C2AC40001000000100000000024F400DD
:04000005080029D1F5
:00000001FF
