:020000040800F2
:1000000000000220312D0008F5060008F706000860
:10001000F9060008FB060008FD06000800000000C5
:1000200000000000000000000000000001140008B3
:10003000FF06000800000000A114000805150008D4
:10004000812D0008812D0008812D0008812D0008D8
:10005000812D0008812D0008812D0008812D0008C8
:10006000812D0008812D0008812D0008812D0008B8
:1000700001070008812D0008812D0008812D00084E
:10008000812D0008812D0008812D0008812D000898
:10009000812D0008812D0008812D0008812D000888
:1000A000812D0008812D0008812D0008812D000878
:1000B000812D0008812D0008812D0008812D000868
:1000C000812D0008812D0008812D0008812D000858
:1000D000812D0008812D0008812D000811070008DE
:1000E000812D0008812D0008812D0008812D000838
:1000F000812D000821070008812D0008812D0008AE
:10010000812D0008812D0008812D0008812D000817
:10011000812D0008812D0008812D0008812D000807
:10012000812D0008812D0008812D0008812D0008F7
:10013000812D00080000000000000000812D000853
:10014000812D0008812D0008812D0008812D0008D7
:10015000812D0008812D0008812D0008812D0008C7
:10016000812D0008812D0008812D0008812D0008B7
:10017000812D0008812D0008000000000000000013
:08018000812D0008812D00080B
:1001900010B5054C237833B9044B13B10448AFF3C1
:1001A00000800123237010BD10000020000000001B
:1001B000DC2D000808B5034B1BB103490348AFF31E
:1001C000008008BD0000000014000020DC2D0008A5
:1001D00053B94AB9002908BF00281CBF4FF0FF31AE
:1001E0004FF0FF3000F070B9ADF1080C6DE904CEAE
:1001F00000F006F8DDF804E0DDE9022304B0704702
:100200002DE9F047089E0D4604460F46002B4AD1C3
:100210008A42944665D9B2FA82F343B102FA03FCEA
:10022000C3F120029F4020FA02F217439C404FEA9C
:100230001C4E1FFA8CF5B7FBFEF1220C0EFB11775A
:1002400042EA074201FB05F090420AD91CEB020288
:1002500001F1FF3780F01C81904240F21981023990
:100260006244121AA4B2B2FBFEF00EFB102244EA62
:10027000024400FB05F5A5420AD91CEB040400F179
:10028000FF3280F00781A54240F2048164440238C5
:1002900040EA0140641B00211EB1DC400023C6E996
:1002A0000043BDE8F0878B4208D9002E00F0ED80B6
:1002B0000021C6E900050846BDE8F087B3FA83F1DE
:1002C000002949D1AB4202D3824200F2F880841A5D
:1002D00065EB030201201746002EE2D0C6E9004775
:1002E000DFE702B9FFDEB2FA82F3002B40F0908024
:1002F0008A1A4FEA1C471FFA8CFE0121B2FBF7F560
:1003000007FB1520220C42EA00420EFB05F090424A
:1003100008D91CEB020205F1FF3802D2904200F22C
:10032000CB804546121AA4B2B2FBF7F007FB1022AD
:1003300044EA02440EFB00FEA64508D91CEB040467
:1003400000F1FF3202D2A64500F2BB801046A4EBBA
:100350000E0440EA05409FE7C1F120078B4022FAD6
:1003600007FC4CEA030C05FA01F420FA07F3FD4000
:100370004FEA1C492343B5FBF9F81FFA8CFE09FB31
:1003800018551C0C44EA054408FB0EF5A54202FA78
:1003900001F200FA01F00BD91CEB040408F1FF3A5A
:1003A00080F08880A54240F28580A8F1020864446C
:1003B000641B9DB2B4FBF9F309FB134445EA044402
:1003C00003FB0EFEA64508D91CEB040403F1FF3520
:1003D0006CD2A6456AD9023B644443EA0843A3FBB6
:1003E0000295A4EB0E04AC42C846AE4656D353D099
:1003F00056B1B0EB080264EB0E0404FA07F7CA40EA
:10040000CC401743C6E9007418460021BDE8F087C8
:10041000C3F1200102FA03FC20FA01F225FA01F1EE
:100420009D402A434FEA1C471FFA8CFEB1FBF7F0B0
:1004300007FB1015110C41EA054100FB0EF58D423A
:1004400004FA03F408D91CEB010100F1FF382FD2A4
:100450008D422DD902386144491B92B2B1FBF7F5A8
:1004600007FB151142EA014205FB0EF1914208D942
:100470001CEB020205F1FF3816D2914214D9023D5D
:100480006244521A45EA004138E73146304608E7EF
:100490003946E6E61046FBE64845A9D2B9EB020824
:1004A00065EB0C0E013BA3E74546EAE72B4694E7D4
:1004B0004046D1E7D0467BE7023D624432E708463A
:1004C0000AE76444023842E7704700BF08B5026893
:1004D000034B9A4200D008BD01F072FFFBE700BF5A
:1004E0000020004072B6FEE700B595B03022002132
:1004F00008A802F046FC0023039304930593069397
:1005000007930193214A116C41F080511164126CE0
:1005100002F080520192019A02931D4B1A6842F434
:1005200080421A601B6803F480430293029B0123FC
:1005300008934FF48033099302230E934FF4800203
:100540000F92192210924FF4A87211921293042361
:10055000139308A801F0CAF898B90F230393022354
:100560000493002305934FF4A05306934FF4805354
:100570000793052103A801F003FB20B915B05DF82E
:1005800004FBFFF7AFFFFFF7ADFF00BF00380240ED
:100590000070004008B501F0F9FEFFF7A5FF00F07C
:1005A0000BF800F011F900F02DF800F027F900F039
:1005B000F3F800F079FDFEE784B000220192104BC1
:1005C000196B41F080011963196B01F080010191F1
:1005D00001990292196B41F002011963196B01F044
:1005E00002010291029903921A6B42F001021A630E
:1005F0001B6B03F001030393039B04B0704700BF20
:100600000038024008B50A480A4B03604FF4E13352
:10061000436000238360C36003610C2242618361F5
:10062000C36102F04DFA00B908BDFFF75BFFFBE7BD
:100630008C0000200048004030B589B000230393AF
:1006400004930593069307930268264B9A4201D0C0
:1006500009B030BD04460025019503F5F8331A6C46
:1006600042F480221A641A6C02F480220192019AE8
:1006700002951A6B42F002021A631B6B03F002032D
:100680000293029B4FF440630393022304930323DA
:1006900006930723079303A9134801F065FB13484A
:1006A000134B03604FF0006343608560C5604FF4F7
:1006B0008063036145618561C5610562456201F042
:1006C000A5FC58B9094B63639C63002205212720D0
:1006D00001F016FE272001F04BFEB9E7FFF702FFFD
:1006E000F0E700BF00480040000402402C0000205A
:1006F00028600240FEE7FEE7FEE7FEE7FEE7704700
:1007000008B5024801F0FCFC08BD00BF2C00002029
:1007100008B5024802F062FA08BD00BF8C00002054
:1007200008B5024801F0A2FE08BD00BFB04000209D
:1007300000B583B0002200920D4B596C41F480410A
:100740005964596C01F48041009100990192196C2F
:1007500041F0805119641B6C03F080530193019B9D
:100760000F216FF0010001F0CBFD03B05DF804FB39
:100770000038024008B5012000F0CEFCFBE7000085
:10078000034B0360034B0B6080231360704700BF73
:10079000D0020020D000002010B588B00DF1040C6C
:1007A000074C0FCCACE80F0094E807008CE807007A
:1007B000002101A800F07DFC024B186008B010BDBC
:1007C000F42D0008CC00002000B583B00022019277
:1007D000094B196B41F4001119631B6B03F40013EF
:1007E0000193019B05210C2001F08AFD0C2001F0F2
:1007F000BFFD03B05DF804FB0038024000B587B0D0
:1008000000230293039304930593009301931548E7
:10081000154A0260436083604FF6FF72C260036155
:100820004361836101F044FF90B94FF48053029318
:1008300002A90C4801F063FF68B9002300930193FB
:100840006946084801F0C8FF40B907B05DF804FBED
:10085000FFF748FEE9E7FFF745FEEEE7FFF742FE48
:10086000F3E700BF24030020000001400268094BA9
:100870009A4200D0704782B000230193064B5A6C15
:1008800042F001025A645B6C03F001030193019B87
:1008900002B07047000001400038024000F1080338
:1008A00043604FF0FF328260C36003610023036046
:1008B000704700230361704743684B609A688A6001
:1008C000516099600861036801330360704730B478
:1008D0000D68B5F1FF3F11D000F108031C465B68BD
:1008E0001A68AA42FAD963684B6099608C606160AB
:1008F000086103680133036030BC70470469F2E7A4
:100900000369416882688A60416851605A6882421E
:1009100006D0002202611A68013A1A60186870470E
:1009200082685A60F5E70000084B1B681B6823B912
:10093000074B4FF0FF321A607047044B1B68DB68AF
:10094000DB685A68024B1A60704700BF68030020DA
:10095000400400202DE9F04707469846089DDDF841
:1009600024900A9C266B02F18042013A06EB820633
:1009700026F00706C1B308464FF0000CBCF10F0F7C
:1009800009D810F80C2004EB0C0383F8342012B1C2
:100990000CF1010CF2E7002384F84330062D00D956
:1009A0000625E56265644FF0000AC4F848A0201DE2
:1009B000FFF77FFF04F11800FFF77BFF2461C5F10B
:1009C0000705A5616462C4F84CA084F850A04246B3
:1009D0003946304600F0FAFC2060B9F1000F01D032
:1009E000C9F80040BDE8F087002384F83430D5E72B
:1009F00038B5002407E004EB840293000E48184445
:100A0000FFF74CFF0134062CF5D90C4D2846FFF7B3
:100A100045FF0B4C2046FFF741FF0A48FFF73EFF1A
:100A20000948FFF73BFF0948FFF738FF084B1D60F7
:100A3000084B1C6038BD00BF700300201404002068
:100A400028040020480400207404002060040020D2
:100A5000680300206C03002010B5044600F0E2FC9F
:100A6000214A136801331360204B1B685BB1204B94
:100A70001B686BB91D4B1B68DA6AE36A9A4207D898
:100A80001A4B1C6004E0194B1C601368012B28D022
:100A9000184A136801331360E06A01238340164A41
:100AA00011680B43136000EB8000211D134B03EB17
:100AB0008000FFF701FF00F0D7FC0D4B1B687BB1F6
:100AC0000A4B1B68DA6AE36A9A4209D24FF0E023C4
:100AD0004FF08052C3F8042DBFF34F8FBFF36F8FD9
:100AE00010BDFFF785FFD3E7FC030020640300205F
:100AF0005C0400200C04002010040020700300207F
:100B000010B5044690F8513063B1012B11D0022B7F
:100B10000ED04FF0500383F31188BFF36F8FBFF3F4
:100B20004F8FFEE7006B00F0DBFB204600F0D8FBA8
:100B300010BD00F0D5FBFBE70F4B1B68D3B110B520
:100B400000F070FC0D4BDB68DC68201DFFF7D8FE61
:100B50000B4A1368013B1360074A1368013B13609B
:100B600000F082FC2046FFF7CBFF034B1B68002BF5
:100B7000E6D110BD704700BF0004002074040020BF
:100B8000FC03002008B5FFF7D7FF074B1B68012BBC
:100B9000F9D94FF0E0234FF08052C3F8042DBFF392
:100BA0004F8FBFF36F8FEEE77003002070B50446E0
:100BB0000D461D4B1E681D4B18680430FFF7A0FE44
:100BC00048B91A4B1B68DB6A01229A4018490B6826
:100BD00023EA02030B60B4F1FF3F0DD03444134B02
:100BE0001B685C60A64210D9124B18680F4B19683D
:100BF0000431FFF76CFE70BD002DEFD00B4B196870
:100C000004310D48FFF758FEF5E70C4B1868074B09
:100C100019680431FFF75BFE094B1B68A342EAD950
:100C2000074B1C60E7E700BF880400206403002036
:100C3000100400206C0300206004002068030020E2
:100C40004004002030B587B00B9C7CB10C9DB5B141
:100C500054250495049D542D1AD04FF0500383F36E
:100C60001188BFF36F8FBFF34F8FFEE74FF0500334
:100C700083F31188BFF36F8FBFF34F8FFEE74FF001
:100C8000500383F31188BFF36F8FBFF34F8FFEE7DD
:100C9000049D0C9D2C63022485F85140002403948C
:100CA000029505AC01940A9C0094FFF753FE0C9842
:100CB000FFF7D2FE059807B030BD2DE9F04385B0AF
:100CC0000746884614461E46900000F091FA00B38D
:100CD0008146542000F08CFA0546B0B1C0F830903F
:100CE000E5B1002385F85130039302950D9B0193E4
:100CF0000C9B00933346224641463846FFF72AFEB6
:100D00002846FFF7A9FE012005E0484600F0E8FA72
:100D1000E6E74FF0FF3005B0BDE8F0834FF0FF305D
:100D2000F9E7000010B588B000240594069407AADE
:100D300006A905A8FFF724FD059B0293069B0193D6
:100D400000942346079A0E490E48FFF77BFF0E4B8F
:100D5000186090B14FF0500383F31188BFF36F8F89
:100D6000BFF34F8F094B4FF0FF321A60084B01223F
:100D70001A60084B1C6000F0EFFB08B010BD00BF0C
:100D80001C2E0008850B00083C04002040040020B5
:100D90005C04002088040020024A136801331360B9
:100DA000704700BF08040020F8B53A4B1B68002BC1
:100DB00064D1394B1D6801351D60C5B9374B1B68BF
:100DC0001B6843B14FF0500383F31188BFF36F8F5B
:100DD000BFF34F8FFEE7314A1168314B186810603E
:100DE0001960304A136801331360FFF79DFD2E4BE5
:100DF0001B68AB4238D900272C4B1B68DB6A03EB1E
:100E000083039A002A4B9B58012B3CD901273AE0D7
:100E10000127224B1B681B6843B3204B1B68DB6810
:100E2000DC6863689D4226D3261D3046FFF768FDC7
:100E3000A36A1BB104F11800FFF762FDE36A012207
:100E40009A401C49086802430A6003EB83039A0036
:100E5000314617481044FFF72FFDE26A134B1B6819
:100E6000DB6A9A42D4D2D4E70027D2E70E4B4FF088
:100E7000FF321A60C0E70C4A1360BDE70E4A1368E0
:100E80000133136000270D4B1B6803B1012738465F
:100E9000F8BD00BF0804002088040020680300207B
:100EA0006C03002044040020400400206403002060
:100EB0007003002010040020040400208C04002093
:100EC00038B5354B1B6843B94FF0500383F3118895
:100ED000BFF36F8FBFF34F8FFEE700F0A3FA2E4BE7
:100EE0001A68013A1A601B68002B4FD12B4B1B6804
:100EF0000BB900244BE00024294B1B681BB3284B83
:100F0000DB68DC6804F11800FFF7FAFC251D2846B1
:100F1000FFF7F6FCE06A01238340224A11680B4385
:100F2000136000EB800029461F4B03EB8000FFF7A6
:100F3000C3FCE26A1D4B1B68DB6A9A42DCD31C4B84
:100F400001221A60D8E70CB1FFF7EEFC194B1C68C0
:100F500084B9174B1C68D4B14FF0E0234FF0805296
:100F6000C3F8042DBFF34F8FBFF36F8F01240EE042
:100F7000013C07D0FFF718FF0028F9D00C4B0122E5
:100F80001A60F5E70B4B00221A60E2E7002400F03C
:100F90006BFA204638BD00BF08040020FC03002087
:100FA0004804002010040020700300206403002087
:100FB0008C0400200404002010B5A8B10446104B96
:100FC0001B6843B14FF0500383F31188BFF36F8F59
:100FD000BFF34F8FFEE7FFF7DFFE00212046FFF74C
:100FE000E5FDFFF76DFF48B94FF0E0234FF0805269
:100FF000C3F8042DBFF34F8FBFF36F8F10BD00BF39
:1010000008040020204B1B681BB1204B01221A60F2
:1010100070471E4B00221A601D4B1B68B3FA83F306
:10102000DBB2C3F11F0303EB83018A0019498A581D
:1010300042B94FF0500383F31188BFF36F8FBFF3B2
:101040004F8FFEE7134903EB830082000A44506888
:101050004068506003EB830C4FEA8C020832114465
:10106000884209D003EB83039A000A4B13445B6860
:10107000DA68094B1A607047406862469100054A79
:101080000A445060EEE700BF080400208C040020F2
:10109000100400207003002064030020842801D085
:1010A000033070470020704708B5FFF73BFE002073
:1010B00008BD2DE9F04387B00E464469C4B1856987
:1010C000B5B14768D0F80080D0F81090B0F90800AA
:1010D000FFF7E4FF02950194009033464A464146EB
:1010E0003846FFF7AFFD0590059807B0BDE8F083DF
:1010F000446805680769B0F90800FFF7CFFF05AB42
:10110000019300903346BAB229462046FFF7D5FD39
:101110000128E9D00020E8E708B500B90120FFF771
:101120004BFF002008BD0000124A12F0070F1ED02E
:10113000D11D21F00701C1F5705313440A460E4832
:101140000260002141601344083B23F007030B4871
:10115000036059601960991A51601360084B196057
:10116000084B1960084B4FF000421A6070474FF46B
:101170007053E4E794040020A04000209004002075
:101180009C4000209840002094400020164B1A46B6
:101190001B688342FBD3516802EB010C844509D0E4
:1011A000416800EB010C634509D00360904219D0FF
:1011B000106070474068014451601046F0E710B479
:1011C0000A4C2468A3420BD05B6819444160136841
:1011D0001B680360904200D010605DF8044B7047BC
:1011E0000460F7E7704700BFA04000209004002093
:1011F00070B50546FFF7D0FD344B1B68A3B1344BE7
:101200001B681D424AD135B1083515F0070F02D0D1
:1012100025F007050835002D42D02E4B1B68AB4248
:101220004DD32D4A146804E0FFF77EFFE7E722461E
:101230001C466368AB4202D22368002BF7D1234BD4
:101240001B68A3423DD016680836236813606368A4
:101250005B1B102B10D9601910F0070F08D04FF04E
:10126000500383F31188BFF36F8FBFF34F8FFEE7F7
:1012700043606560FFF78AFF626816490B689B1A36
:101280000B60164909688B4201D214490B60104B60
:101290001B68134363600023236002E0002600E024
:1012A0000026FFF70DFE16F0070F0CD04FF050038D
:1012B00083F31188BFF36F8FBFF34F8FFEE70026D4
:1012C000EFE70026EDE7304670BD00BF9004002038
:1012D0009440002098400020A04000209C40002026
:1012E00080B338B50446A0F1080550F8043C164A0E
:1012F0001268134208D14FF0500383F31188BFF3F3
:101300006F8FBFF34F8FFEE750F8081C41B14FF0CD
:10131000500383F31188BFF36F8FBFF34F8FFEE746
:1013200023EA020340F8043CFFF736FD54F8041C9E
:10133000064A13680B4413602846FFF727FFFFF7A0
:10134000BFFD38BD704700BF94400020984000208A
:1013500082B0002301930D4B1B68B3F1FF3F08D00F
:101360004FF0500383F31188BFF36F8FBFF34F8F9C
:10137000FEE74FF0500383F31188BFF36F8FBFF385
:101380004F8F019B002BFCD002B070470000002063
:1013900008480068006880F308884FF0000080F378
:1013A000148862B661B6BFF34F8FBFF36F8F00DF53
:1013B00000BF000008ED00E0DFF80C00016841F418
:1013C000700101607047000088ED00E04FF080730D
:1013D00040F8043C21F0010140F8081C054B40F89E
:1013E0000C3C40F8202C6FF0020340F8243C4438B9
:1013F000704700BF5113000800000000000000000B
:10140000074B19680868B0E8F04F80F30988BFF30C
:101410006F8F4FF0000080F311887047AFF30080AA
:10142000640300204FF0500383F31188BFF36F8FE4
:10143000BFF34F8F0B4A136801331360012B00D0A9
:1014400070474FF0E023D3F8043D13F0FF0FF7D0BF
:101450004FF0500383F31188BFF36F8FBFF34F8FAB
:10146000FEE700BF00000020094B1B6843B94FF0A6
:10147000500383F31188BFF36F8FBFF34F8FFEE7E5
:10148000013B034A13600BB983F31188704700BF17
:10149000000000200000000000000000000000002C
:1014A000EFF30980BFF36F8F154B1A681EF0100F12
:1014B00008BF20ED108A20E9F04F10602DE90900E7
:1014C0004FF0500080F31188BFF34F8FBFF36F8F41
:1014D000FFF798FD4FF0000080F3118809BC1968F0
:1014E0000868B0E8F04F1EF0100F08BFB0EC108A8B
:1014F00080F30988BFF36F8F704700BFAFF30080A0
:101500006403002008B54FF0500383F31188BFF344
:101510006F8FBFF34F8FFFF747FC28B14FF0E023E9
:101520004FF08052C3F8042D002383F3118808BDC7
:101530004FF0E022002313619361054B1B680549BE
:10154000A1FB03139B09013B536107231361704700
:101550000C000020D34D62104FF0E023D3F8002D93
:101560003D4B9A421CD04FF0E023D3F8002D3B4B6B
:101570009A421ED030B583B0394B1A78D2B201925C
:10158000FF221A701B78DBB28DF803309DF8033010
:1015900003F05003334A1370334B07221A601BE0E9
:1015A0004FF0500383F31188BFF36F8FBFF34F8F5A
:1015B000FEE74FF0500383F31188BFF36F8FBFF343
:1015C0004F8FFEE7284A1368013B13609DF80330F4
:1015D0005B00DBB28DF803309DF8033013F0800F11
:1015E000F0D1214B1B68032B08D04FF0500383F33D
:1015F0001188BFF36F8FBFF34F8FFEE71B021A4AAC
:10160000136003F4E0631360019BDBB2144A1370B0
:101610004FF0E024D4F8203D43F47003C4F8203D9B
:10162000D4F8203D43F07043C4F8203DFFF780FF1D
:1016300000250E4B1D60FFF7BFFED4F8343F43F08A
:101640004043C4F8343FFFF7A3FEFFF7DBFCFFF78E
:101650007FFE284603B030BD71C20F4170C20F41FA
:1016600000E400E0A8400020AC4000200000002082
:1016700010B588B0014600222D2000F041FE2D203B
:1016800000F076FE00240194144B1A6C42F4807230
:101690001A641B6C03F480730193019B02A903A8D5
:1016A00000F044FB00F022FB43000D4AA2FB0323A1
:1016B0009B0C013B0B480C4A026040F2E732C260CF
:1016C00043600461846000F0F3FF10B1012008B0B2
:1016D00010BD044800F0B5FEF9E700BF0038024035
:1016E00083DE1B43B040002000200040002800F0B3
:1016F000DA8170B582B00446036813F0010F3BD065
:101700009F4B9B6803F00C03042B2CD09C4B9B68D5
:1017100003F00C03082B21D06368B3F5803F4FD052
:10172000B3F5A02F52D0964B1A6822F480321A607B
:101730001A6822F480221A606368002B50D000F0EF
:101740004BFE05468E4B1B6813F4003F14D100F08E
:1017500043FE401B6428F5D90320ABE1884B5B684E
:1017600013F4800FD8D0864B1B6813F4003F03D0CE
:101770006368002B00F09981236813F0020F54D0A6
:101780007F4B9B6813F00C0F3ED07D4B9B6803F0A2
:101790000C03082B33D0E368002B68D0794B01226F
:1017A0001A6000F019FE0546754B1B6813F0020F16
:1017B00054D100F011FE401B0228F5D9032079E135
:1017C0006F4A136843F480331360B5E76C4B1A68B3
:1017D00042F480221A601A6842F480321A60ABE741
:1017E00000F0FAFD0546664B1B6813F4003FC3D0BA
:1017F00000F0F2FD401B6428F5D903205AE1604B4C
:101800005B6813F4800FC6D15D4B1B6813F0020FA9
:1018100003D0E368012B40F04A81594A136823F052
:10182000F803216943EAC1031360236813F0080F2A
:1018300042D063696BB3534B0122C3F8802E00F092
:10184000CBFD05464E4B5B6F13F0020F34D100F019
:10185000C3FD401B0228F5D903202BE1484A136839
:1018600023F0F803216943EAC1031360DDE7454B28
:1018700000221A6000F0B0FD0546414B1B6813F0D2
:10188000020FD2D000F0A8FD401B0228F5D903209A
:1018900010E13C4B0022C3F8802E00F09DFD054670
:1018A000374B5B6F13F0020F06D000F095FD401B25
:1018B0000228F5D90320FDE0236813F0040F77D048
:1018C0002F4B1B6C13F0805F33D1002301932C4B03
:1018D0001A6C42F080521A641B6C03F0805301931F
:1018E000019B0125284B1B6813F4807F23D0A3683C
:1018F000012B34D0052B38D0214B1A6F22F0010276
:101900001A671A6F22F004021A67A368002B3DD0F1
:1019100000F062FD06461A4B1B6F13F0020F46D112
:1019200000F05AFD801B41F288339842F3D903201E
:10193000C0E00025D6E7144A136843F480731360AF
:1019400000F04AFD0646104B1B6813F4807FCED191
:1019500000F042FD801B0228F5D90320AAE0084AC6
:10196000136F43F001031367CFE7054B1A6F42F083
:1019700004021A671A6F42F001021A67C5E700BF36
:1019800000380240000047420070004000F024FD93
:1019900006464F4B1B6F13F0020F08D000F01CFDE2
:1019A000801B41F288339842F3D9032082E0E5B9E5
:1019B000A369002B7DD0464A926802F00C02082AE7
:1019C00051D0022B17D0434B00221A6600F004FDC1
:1019D00004463F4B1B6813F0007F42D000F0FCFC34
:1019E000001B0228F5D9032064E0394A136C23F068
:1019F00080531364DCE7374B00221A6600F0ECFCDE
:101A00000546334B1B6813F0007F06D000F0E4FC62
:101A1000401B0228F5D903204CE0E369226A1343F6
:101A2000626A43EA8213A26A5208013A43EA024315
:101A3000E26A43EA0263264A5360264B01221A6691
:101A400000F0CAFC0446224B1B6813F0007F06D14D
:101A500000F0C2FC001B0228F5D903202AE0002078
:101A600028E0002026E0012B26D0194B5B6803F408
:101A70008001E269914221D103F03F02216A8A424A
:101A80001ED1616A47F6C0721A408A421AD103F425
:101A90004032A16A8A4217D103F07063E26A93422E
:101AA00014D1002006E001207047012002E001204F
:101AB00000E0002002B070BD0120FBE70120F9E743
:101AC0000120F7E70120F5E70120F3E70120F1E726
:101AD000003802400000474208B5264B9B6803F0DF
:101AE0000C03042B41D0082B41D1224B5A6802F041
:101AF0003F025B6813F4800F12D01E4B5968C1F38C
:101B000088111D480023A1FB0001FEF761FB194B62
:101B10005B68C3F3014301335B00B0FBF3F027E0E4
:101B2000144B5868C0F388104FEA401CBCEB000C03
:101B30006EEB0E0E4FEA8E1343EA9C634FEA8C1154
:101B4000B1EB0C0163EB0E03DB0043EA5173C900F8
:101B500011EB000C43F10003990200234FEA8C20A3
:101B600041EA9C51FEF734FBD1E7034800E003480B
:101B700008BD00BF0038024040787D010024F40019
:101B8000002800F09B8070B50D4604464F4B1B6843
:101B900003F00F038B4208D2CBB24C4A1370136888
:101BA00003F00F038B4240F08B80236813F0020F89
:101BB00017D013F0040F04D0454A936843F4E05360
:101BC0009360236813F0080F04D0414A936843F4EC
:101BD000604393603E4A936823F0F003A1680B438F
:101BE0009360236813F0010F32D06368012B21D07A
:101BF0009A1E012A25D9364A126812F0020F61D0C6
:101C000033498A6822F0030213438B6000F0E4FB3F
:101C100006462F4B9B6803F00C036268B3EB820F00
:101C200016D000F0D9FB801B41F288339842F0D9DE
:101C3000032042E0264A126812F4003FE0D101205E
:101C40003BE0234A126812F0007FD9D1012034E032
:101C50001E4B1B6803F00F03AB4207D9EAB21B4BC4
:101C60001A701B6803F00F03AB422DD1236813F0E9
:101C7000040F06D0164A936823F4E053E1680B433F
:101C80009360236813F0080F07D0114A936823F478
:101C90006043216943EAC1039360FFF71DFF0C4BCA
:101CA0009B68C3F303130B4AD35CD8400A4B1860FC
:101CB0000A4B1868FFF7DCFC002070BD012070475C
:101CC0000120FAE70120F8E70120F6E7003C024096
:101CD000003802402C2E00080C00002008000020D4
:101CE000014B1868704700BF0C00002008B5FFF7D3
:101CF000F7FF044B9B68C3F38223034AD35CD840AD
:101D000008BD00BF003802403C2E000808B5FFF7B0
:101D1000E7FF044B9B68C3F34233034AD35CD840CC
:101D200008BD00BF003802403C2E00080F230360AE
:101D30000B4B9A6802F0030242609A6802F0F002CC
:101D400082609A6802F4E052C2609B68DB0803F488
:101D5000E0530361034B1B6803F00F030B607047F4
:101D600000380240003C024000230F2B00F2DA80D2
:101D7000F0B583B03AE0072200E00022AA403243E7
:101D80000234694D45F82420684A14686FEA0C0251
:101D900024EA0C054E6816F4803F01D04CEA040595
:101DA000624C2560646802EA04054E6816F4003F40
:101DB00001D04CEA04055D4C6560A46802EA0405A4
:101DC0004E6816F4801F01D04CEA0405574CA560FC
:101DD000E46822404D6815F4001F01D04CEA04026B
:101DE000524CE26001330F2B00F29A8001229A409C
:101DF0000C6804EA020C32EA0404F3D14C68651E54
:101E0000012D03D9112C01D0122C12D185685E004E
:101E10000324B44025EA0405CC68B4402C43846014
:101E2000446824EA02044A68C2F300129A4022433A
:101E30004260C5684FEA430E032202FA0EF2D44311
:101E400025EA02058A6802FA0EF22A43C2604A684D
:101E5000022A01D0122A0FD1DD08083550F825706A
:101E600003F00706B6000F22B24027EA02070A690C
:101E7000B2403A4340F82520026814404A6802F014
:101E8000030202FA0EF2224302604A6812F0805FF7
:101E9000A8D000220192264A546C44F48044546431
:101EA000526C02F480420192019A9C08A51C1E4AC1
:101EB00052F8256003F00305AD000F22AA4026EA80
:101EC00002061C4A90423FF458AF02F580629042ED
:101ED0001AD002F58062904218D002F580629042DA
:101EE00016D002F58062904214D002F580629042D2
:101EF00012D002F58062904210D002F580629042CA
:101F00003FF439AF082239E7012237E7022235E7EB
:101F1000032233E7042231E705222FE706222DE7CB
:101F200003B0F0BD704700BF00380140003C0140E5
:101F3000003802400000024010B40368D9B21039E2
:101F40000C4AA2FB014212090B4CA25CC2655F293C
:101F500009D923F47F7323F0030304338365806D71
:101F60005DF8044B704723F47F7323F0030383650C
:101F7000F5E700BFABAAAAAA242E0008836A8269EB
:101F800092B9012B0AD0022B02D00BB1002070476E
:101F9000C36A13F0807F28D100207047C36AB3F171
:101FA000C07F24D000207047B2F5005F09D0022B1B
:101FB00025D9032B25D1C36A13F0807F23D10020BC
:101FC0007047032B03D8DFE803F01404140A002041
:101FD0007047C36A13F0807F0DD100207047C36A39
:101FE000B3F1C07F09D00020704701207047012065
:101FF0007047012070470120704701207047012081
:1020000070470020704701207047000070B50446FB
:1020100000F0E2F9002C5BD00546002384F8343050
:10202000022384F835302268136823F0010313601B
:1020300023681A6812F0010F0AD000F0CDF9431B93
:10204000052BF5D920236365032084F8350070BD86
:102050001A68204911406268A0680243E0680243A0
:102060002069024360690243A0690243E0690243B8
:10207000206A02430A43616A04291ED01A60266856
:10208000756925F00705636A1D43042B07D1A36A10
:102090001D43E36A1BB12046FFF770FF90B97561DD
:1020A0002046FFF749FFE26D3F2393408360002005
:1020B0006065012384F83530C9E7E16A206B01438C
:1020C0000A43DBE740236365012084F83500BEE75F
:1020D0000120BCE73F8010F090F83530DBB2022BD6
:1020E00003D08023436501207047052380F83530F5
:1020F0000268136823F0010313600020704700009A
:10210000F0B583B0044600230193724B1D68724BF7
:10211000A3FB0535AD0A876D3E68C26D0823934069
:10212000334210D003681A6812F0040F0BD01A68FB
:1021300022F004021A60C26D08239340BB60436D15
:1021400043F001034365E26D01239340334209D01C
:102150002268526912F0800F04D0BB60636D43F0B7
:1021600002036365E26D04239340334209D0226881
:10217000126812F0020F04D0BB60636D43F00403D9
:102180006365E26D10239340334224D022681268C5
:1021900012F0080F1FD0BB6023681A6812F4802F5A
:1021A0000DD01B6813F4002F04D1236C9BB1204683
:1021B000984710E0A36C73B1204698470BE01A686B
:1021C00012F4807F03D11A6822F008021A60236C8F
:1021D0000BB120469847E26D20239340334255D0FF
:1021E0002268126812F0100F50D0BB6094F835309E
:1021F000DBB2052B0ED023681A6812F4802F33D07F
:102200001B6813F4002F2AD1636C002B3ED02046AC
:1022100098473BE02268136823F016031360226896
:10222000536923F080035361236CA3B122681368C0
:1022300023F008031360E26D3F239340BB6000234B
:1022400084F83430012384F83530236D002B3FD0DF
:10225000204698473CE0A36C002BE7D1EBE7E36B0B
:10226000A3B12046984711E01A6812F4807F09D183
:102270001A6822F010021A60002384F83430012317
:1022800084F83530E36B0BB120469847636DFBB1A2
:10229000636D13F0010F17D0052384F835302268E1
:1022A000136823F001031360019B01330193AB42D8
:1022B00004D823681B6813F0010FF5D1002384F8BC
:1022C0003430012384F83530E36C0BB12046984755
:1022D00003B0F0BD0C000020B5814E1B074AD36847
:1022E00023F4E0631B041B0C000200F4E0600343D2
:1022F00043F0BF6343F40033D360704700ED00E068
:1023000000B5194BDB68C3F30223C3F1070CBCF122
:10231000040F28BF4FF0040C03F1040EBEF1060FAA
:1023200018D9033B4FF0FF3E0EFA0CFC21EA0C01DA
:1023300099400EFA03FE22EA0E020A4300280BDB44
:102340001201D2B200F1604000F5614080F8002334
:102350005DF804FB0023E5E700F00F001201D2B2A4
:10236000024B1A54F4E700BF00ED00E014ED00E06A
:10237000002807DB00F01F02400901239340024AB6
:1023800042F82030704700BF00E100E008B50B4B79
:102390001A6842F400721A601A6842F480621A6085
:1023A0001A6842F480721A600320FFF797FF00203A
:1023B000FFF75EF9FEF7BCF9002008BD003C0240C3
:1023C000034A1168034B1B780B441360704700BF2E
:1023D000F040002004000020014B1868704700BF47
:1023E000F040002010B4036A046A24F0010404627F
:1023F000846924F0F00C4CEA021223F00A030B4328
:10240000826103625DF8044B704710B4036A23F0E5
:10241000100303628469036A24F4704C4CEA0232AC
:1024200023F0A00343EA0113826103625DF8044BC9
:102430007047836823F070030B4343F00703836006
:1024400070470268D36843F00103D3600268936861
:1024500003F00703062B03D0136843F00103136056
:1024600000207047704770477047704710B50446AA
:1024700003681A6912F0020F11D0DA6812F0020F25
:102480000DD06FF002021A610123037703689B6984
:1024900013F0030F70D0FFF7E6FF002323772368C4
:1024A0001A6912F0040F12D0DA6812F0040F0ED07D
:1024B0006FF004021A610223237723689B6913F4E7
:1024C000407F5FD02046FFF7CEFF002323772368AD
:1024D0001A6912F0080F12D0DA6812F0080F0ED045
:1024E0006FF008021A61042323772368DB6913F075
:1024F000030F4ED02046FFF7B6FF00232377236853
:102500001A6912F0100F12D0DA6812F0100F0ED004
:102510006FF010021A61082323772368DB6913F434
:10252000407F3DD02046FFF79EFF0023237723689E
:102530001A6912F0010F03D0DA6812F0010F36D1D8
:1025400023681A6912F0800F03D0DA6812F0800F46
:1025500034D123681A6912F0400F03D0DA6812F000
:10256000400F32D123681A6912F0200F03D0DA68C5
:1025700012F0200F30D110BDFFF774FF2046FFF797
:1025800073FF8AE72046FFF76DFF2046FFF76CFFD9
:102590009BE72046FFF766FF2046FFF765FFACE7A5
:1025A0002046FFF75FFF2046FFF75EFFBDE76FF0B5
:1025B00001021A612046FDF789FFC1E76FF0800232
:1025C0001A61204600F04FF9C3E76FF040021A612C
:1025D0002046FFF74AFFC5E76FF020021A61204648
:1025E00000F040F9C7E700000368304A904212D07B
:1025F000B0F1804F0FD0A2F57C4290420BD002F593
:102600008062904207D002F58062904203D002F5CA
:102610007842904203D123F070034A681343234A5F
:1026200090422AD0B0F1804F27D0A2F57C42904250
:1026300023D002F5806290421FD002F58062904262
:102640001BD002F57842904217D002F570529042AA
:1026500013D002F5806290420FD002F58062904262
:102660000BD0A2F59832904207D002F580629042DA
:1026700003D002F58062904203D123F44073CA680C
:10268000134323F080034A69134303608B68C362DA
:102690000B688362054B984203D003F58063984230
:1026A00001D10B69036301234361704700000140BE
:1026B000B0B110B5044690F83D3063B1022384F800
:1026C0003D30214651F8040BFFF78EFF012384F8BB
:1026D0003D30002010BD80F83C30FEF7C7F8EDE734
:1026E0000120704710B4846824F47F4C42EA03222E
:1026F0000A4342EA0C0282605DF8044B704790F88E
:102700003C30012B66D010B50446012380F83C30E4
:10271000022380F83D300268936823F47F4323F05E
:10272000770393600B68602B40D022D8402B47D0B2
:102730000BD9502B0ED1CA6849680068FFF752FECA
:1027400050212068FFF775FE04E0202B0CD008D93B
:10275000302B09D0012384F83D30002084F83C0060
:1027600010BD0BB1102BF5D119462068FFF761FEA3
:10277000F0E7702B0ED0B3F5005FEBD1CB684A6861
:1027800089680068FFF7AEFF2268936843F48043CE
:102790009360DFE7CB684A6889680068FFF7A2FFAB
:1027A0002268936843F077039360D3E7CA68496867
:1027B0000068FFF72AFE60212068FFF73AFEC9E7AC
:1027C000CA6849680068FFF70DFE40212068FFF7DE
:1027D00030FEBFE70220704790F83C20012A3DD030
:1027E00010B40346012280F83C20022280F83D20EC
:1027F00002685068946820F0700C086840EA0C0089
:1028000050601A68164882421AD0B2F1804F17D031
:10281000A0F57C40824213D000F5806082420FD048
:1028200000F5806082420BD000F57840824207D0EC
:1028300000F57050824203D0A0F59430824204D15A
:1028400024F08004496821439160012283F83D20EF
:10285000002083F83C005DF8044B7047022070476D
:1028600000000140704770470268D36823F49073FA
:10287000D3600268536923F001035361202380F879
:102880003A30704790F83930DBB2212B01D002206A
:1028900070478368B3F5805F17D0036A5A1C0262E1
:1028A0001A7803685A60C38C9BB2013B9BB2C38405
:1028B0004BB90268D36823F08003D3600268D36801
:1028C00043F04003D36000207047036A1B8802680E
:1028D000C3F30803536003691BB9036A023303623D
:1028E000E1E7036A01330362DDE7000010B5044647
:1028F0000268136923F44053C1680B431361836872
:1029000002691A4343691A43C3691A430168CB68D1
:1029100023F4164323F00C031343CB60026853697E
:1029200023F4407381690B435361C369B3F5004FCE
:1029300035D00368604A934200F0918002F58062CE
:10294000934200F08C80FFF7D1F900210318494130
:102950001B1841F10001C90041EA5371DB0018184E
:1029600063684FEA83024FEA937341F10001FDF778
:102970002FFC524AA2FB00314909642303FB1103D7
:102980001B013233A2FB03235B0903F0F00202EBCD
:10299000011203F00F03216813448B608AE003687F
:1029A000454A93422FD002F5806293422BD0FFF725
:1029B0009DF90023021843EB0301121841F10001B5
:1029C000C90041EA5271D200101841F10001626859
:1029D00092185B41FDF7FCFB384AA2FB0031490924
:1029E000642303FB1103DB003233A2FB03235B09E7
:1029F0005A0002F4F87202EB011203F00703216897
:102A000013448B6056E0FFF781F90023021843EB73
:102A10000301121841F10001C90041EA5271D200CC
:102A2000101841F10001626892185B41FDF7D0FB7C
:102A3000224AA2FB00314909642303FB1103DB0096
:102A40003233A2FB03235B095A0002F4F87202EB53
:102A5000011203F00703216813448B602AE0FFF79B
:102A600055F90021031849411B1841F10001C90023
:102A700041EA5371DB00181863684FEA83024FEA9A
:102A8000937341F10001FDF7A3FB0C4AA2FB003157
:102A90004909642303FB11031B013233A2FB032307
:102AA0005B0903F0F00202EB011203F00F0321684F
:102AB00013448B6010BD00BF001001401F85EB5117
:102AC00058B310B5044690F839300BB3242384F87A
:102AD00039302268D36823F40053D3602046FFF7CF
:102AE00005FF2268136923F4904313612268536938
:102AF00023F02A0353612268D36843F40053D36060
:102B00000020E063202384F8393084F83A3010BD87
:102B100080F83830FDF790FDD8E701207047704706
:102B200008B50168CA6822F04002CA60202280F815
:102B30003920FFF7F4FF002008BD704708B590F872
:102B40003A30DBB2222B46D18368B3F5805F0FD0D9
:102B500003690BBB03685A68836A591C81621A7047
:102B6000C38D9BB2013B9BB2C385F3B1002008BD6E
:102B7000826A036943B903685B68C3F3080313807F
:102B8000836A02338362EBE703685B68DBB213801E
:102B9000836A01338362E3E703685B68826A511CDE
:102BA000816203F07F031370DAE70268D36823F0D1
:102BB0002003D3600268D36823F48073D360026873
:102BC000536923F001035361202380F83A30FFF763
:102BD000B4FF0020CBE70220C9E7704710B50446D8
:102BE00002681368D168526913F00F0005D113F021
:102BF000200F02D011F0200F13D128B112F00102E2
:102C000013D111F4907F10D113F0800F02D011F086
:102C1000800F6CD113F0400F02D011F0400F6AD139
:102C200010BD2046FFF78AFFFAE713F0010F06D028
:102C300011F4807F03D0E06B40F00100E06313F0FB
:102C4000040F04D01AB1E06B40F00200E06313F00F
:102C5000020F04D01AB1E06B40F00400E06313F0FF
:102C6000080F07D011F0200F00D11AB1E26B42F02B
:102C70000802E263E26B002AD2D013F0200F02D0E8
:102C800011F0200F21D123685B6903F04003E26B50
:102C900012F0080F00D123B32046FFF7E5FD2368AB
:102CA0005A6912F0400F18D05A6922F040025A6156
:102CB000636B73B1124A1A65606BFFF70DFA002857
:102CC000AED0606B036D9847AAE72046FFF736FF4A
:102CD000D9E72046FFF781FFA2E72046FFF77DFFF7
:102CE0009EE72046FFF779FF0023E36398E720463D
:102CF000FFF7C8FD94E72046FFF712FF90E700BFFB
:102D0000052D000808B5806B0023C385C384FFF739
:102D100064FF08BD054BD3F8882042F47002C3F865
:102D200088204FF000629A60704700BF00ED00E01D
:102D3000DFF834D0002103E00C4B5B5843500431E2
:102D40000B480C4B42189A42F6D30B4A02E0002380
:102D500042F8043B094B9A42F9D3FFF7DBFF00F03E
:102D600019F8FDF717FC704700000220542E0008E8
:102D7000000000201000002010000020F44000207F
:102D8000FEE702440346934200D1704703F8011B5B
:102D9000F9E7000070B50D4D0D4C641BA410002622
:102DA000A64209D10B4D0C4C00F018F8641BA4107E
:102DB0000026A64205D170BD55F8043B9847013660
:102DC000EEE755F8043B98470136F2E74C2E000831
:102DD0004C2E00084C2E0008502E0008F8B500BFFD
:102DE000F8BC08BC9E467047F8B500BFF8BC08BCEC
:042DF0009E46704744
:102DF400102E000875070008000000000000000005
:102E040080000000000000000000000064656661AE
:102E1400756C745461736B0049444C4500000000A8
:102E24000006101600061016000000000000000046
:102E3400010203040607080900000000010203045C
:082E4400BCD3FF7F0100000078
:042E4C00B5010008C4
:042E500091010008E4
:102E5400AAAAAAAA01000000100000000024F4009D
:0400000508002D3191
:00000001FF
