:020000040800F2
:1000000000000220193A0008190C00081B0C000817
:100010001D0C00081F0C0008210C00080000000047
:10002000000000000000000000000000230C000899
:10003000250C000800000000270C0008290C00080F
:10004000693A0008693A0008693A0008693A000804
:10005000693A0008693A0008693A0008693A0008F4
:10006000693A0008693A0008693A0008693A0008E4
:10007000310C0008693A0008410C0008693A000890
:10008000693A0008693A0008693A0008693A0008C4
:10009000693A0008693A0008693A0008693A0008B4
:1000A000693A0008693A0008693A0008693A0008A4
:1000B000693A0008693A0008693A0008693A000894
:1000C000693A0008693A0008693A0008693A000884
:1000D000693A0008510C0008693A0008610C0008F0
:1000E000693A0008693A0008693A0008693A000864
:1000F000693A0008693A0008693A0008693A000854
:10010000693A0008693A0008693A0008693A000843
:10011000693A0008693A0008693A0008693A000833
:10012000693A0008693A0008710C0008693A000849
:10013000693A00080000000000000000693A000869
:10014000693A0008693A0008693A0008693A000803
:10015000693A0008693A0008810C0008693A000809
:10016000693A0008693A0008693A0008693A0008E3
:10017000693A0008693A0008000000000000000029
:08018000693A0008693A000821
:1001880010B5054C237833B9044B13B10448AFF3C9
:1001980000800123237010BD7000002000000000C3
:1001A800603C000808B5034B1BB103490348AFF393
:1001B800008008BD0000000074000020603C0008BA
:1001C80081F0004102E000BF83F0004330B54FEA00
:1001D80041044FEA430594EA050F08BF90EA020F6D
:1001E8001FBF54EA000C55EA020C7FEA645C7FEA00
:1001F800655C00F0E2804FEA5454D4EB5555B8BF23
:100208006D420CDD2C4480EA020281EA030382EA93
:10021800000083EA010180EA020281EA0303362D25
:1002280088BF30BD11F0004F4FEA01314FF4801CF8
:100238004CEA113102D0404261EB410113F0004F0A
:100248004FEA03334CEA133302D0524263EB4303C1
:1002580094EA050F00F0A780A4F10104D5F1200E5F
:100268000DDB02FA0EFC22FA05F2801841F10001BA
:1002780003FA0EF2801843FA05F359410EE0A5F18E
:1002880020050EF1200E012A03FA0EFC28BF4CF0BF
:10029800020C43FA05F3C01851EBE37101F0004575
:1002A80007D54FF0000EDCF1000C7EEB00006EEB82
:1002B8000101B1F5801F1BD3B1F5001F0CD349080C
:1002C8005FEA30004FEA3C0C04F101044FEA445263
:1002D80012F5800F80F09A80BCF1004F08BF5FEAEA
:1002E800500C50F1000041EB045141EA050130BDCA
:1002F8005FEA4C0C404141EB0101013C28BFB1F5DC
:10030800801FE9D291F0000F04BF01460020B1FA26
:1003180081F308BF2033A3F10B03B3F120020CDAF9
:100328000C3208DD02F1140CC2F10C0201FA0CF0D7
:1003380021FA02F10CE002F11402D8BFC2F1200C3C
:1003480001FA02F120FA0CFCDCBF41EA0C019040F2
:10035800E41AA2BF01EB0451294330BD6FEA04043B
:100368001F3C1CDA0C340EDC04F11404C4F1200226
:1003780020FA04F001FA02F340EA030021FA04F338
:1003880045EA030130BDC4F10C04C4F1200220FA8F
:1003980002F001FA04F340EA0300294630BD21FACD
:1003A80004F0294630BD94F0000F83F4801306BF93
:1003B80081F480110134013D4EE77FEA645C18BF87
:1003C8007FEA655C29D094EA050F08BF90EA020F1E
:1003D80005D054EA000C04BF1946104630BD91EA16
:1003E800030F1EBF0021002030BD5FEA545C05D119
:1003F8004000494128BF41F0004130BD14F5800458
:100408003CBF01F5801130BD01F0004545F0FE41CB
:1004180041F470014FF0000030BD7FEA645C1ABF00
:10042800194610467FEA655C1CBF0B46024650EA37
:10043800013406BF52EA033591EA030F41F4002163
:1004480030BD00BF90F0000F04BF0021704730B5E9
:100458004FF4806404F132044FF000054FF00001BE
:1004680050E700BF90F0000F04BF0021704730B57F
:100478004FF4806404F1320410F0004548BF404254
:100488004FF000013EE700BF42004FEAE2014FEAA9
:1004980031014FEA02701FBF12F07F4393F07F4F84
:1004A80081F06051704732F07F4208BF704793F087
:1004B8007F4F04BF41F40021704730B54FF460749A
:1004C80001F0004521F000411CE700BF50EA01029D
:1004D80008BF704730B54FF000050AE050EA010246
:1004E80008BF704730B511F0004502D5404261EBB6
:1004F80041014FF4806404F132045FEA915C3FF4F7
:10050800D8AE4FF003025FEADC0C18BF03325FEA93
:10051800DC0C18BF033202EBDC02C2F1200300FA44
:1005280003FC20FA02F001FA03FE40EA0E0021FA69
:1005380002F11444BDE600BF53B94AB9002908BF07
:1005480000281CBF4FF0FF314FF0FF3000F074B9A6
:10055800ADF1080C6DE904CE00F006F8DDF804E012
:10056800DDE9022304B070472DE9F047089D0446F1
:100578008E46002B4DD18A42944669D9B2FA82F24E
:1005880052B101FA02F3C2F1200120FA01F10CFA8A
:1005980002FC41EA030E94404FEA1C48210CBEFBC2
:1005A800F8F61FFA8CF708FB16E341EA034306FB4B
:1005B80007F199420AD91CEB030306F1FF3080F0DA
:1005C8001F81994240F21C81023E63445B1AA4B227
:1005D800B3FBF8F008FB103344EA034400FB07F7C9
:1005E800A7420AD91CEB040400F1FF3380F00A810A
:1005F800A74240F207816444023840EA0640E41BFF
:1006080000261DB1D4400023C5E900433146BDE8AA
:10061800F0878B4209D9002D00F0EF800026C5E94C
:10062800000130463146BDE8F087B3FA83F6002E64
:100638004AD18B4202D3824200F2F980841A61EBDC
:10064800030301209E46002DE0D0C5E9004EDDE7FA
:1006580002B9FFDEB2FA82F2002A40F09280A1EBE2
:100668000C014FEA1C471FFA8CFE0126200CB1FB37
:10067800F7F307FB131140EA01410EFB03F0884230
:1006880008D91CEB010103F1FF3802D2884200F2BD
:10069800CB804346091AA4B2B1FBF7F007FB10114F
:1006A80044EA01440EFB00FEA64508D91CEB0404ED
:1006B80000F1FF3102D2A64500F2BB800846A4EB48
:1006C8000E0440EA03409CE7C6F12007B34022FA33
:1006D80007FC4CEA030C20FA07F401FA06F31C4362
:1006E800F9404FEA1C4900FA06F3B1FBF9F8200C6F
:1006F8001FFA8CFE09FB181140EA014108FB0EF0B5
:10070800884202FA06F20BD91CEB010108F1FF3A04
:1007180080F08880884240F28580A8F10208614410
:10072800091AA4B2B1FBF9F009FB101144EA01411E
:1007380000FB0EFE8E4508D91CEB010100F1FF34C9
:100748006CD28E456AD90238614440EA0840A0FB61
:100758000294A1EB0E01A142C846A64656D353D037
:100768005DB1B3EB080261EB0E0101FA07F722FA5B
:1007780006F3F1401F43C5E9007100263146BDE884
:10078800F087C2F12003D8400CFA02FC21FA03F3E7
:10079800914001434FEA1C471FFA8CFEB3FBF7F068
:1007A80007FB10360B0C43EA064300FB0EF69E428D
:1007B80004FA02F408D91CEB030300F1FF382FD226
:1007C8009E422DD9023863449B1B89B2B3FBF7F6CE
:1007D80007FB163341EA034106FB0EF38B4208D9A7
:1007E8001CEB010106F1FF3816D28B4214D9023EE8
:1007F8006144C91A46EA004638E72E46284605E706
:100808000646E3E61846F8E64B45A9D2B9EB0208D6
:1008180064EB0C0E0138A3E74646EAE7204694E766
:100828004046D1E7D0467BE7023B614432E7304699
:1008380009E76444023842E7704700BF72B6FEE732
:1008480000B595B03022002108A803F04BF9002329
:10085800039304930593069307930193204A116C1D
:1008680041F080511164126C02F080520192019A99
:1008780002931C4B1A6842F480421A601B6803F406
:1008880080430293029B012308934FF4803309931A
:1008980002230E934FF480020F9206221092A82290
:1008A800119212930423139308A801F0F9F898B948
:1008B8000F23039302230493002305934FF4A053BB
:1008C80006934FF480530793052103A801F036FBE4
:1008D80020B915B05DF804FBFFF7B0FFFFF7AEFFD6
:1008E800003802400070004008B501F0EDFFFFF746
:1008F800A7FF00F023F800F0E3F900F085F800F016
:100908008DFA00F067F800F019FB01F007F8084BC2
:100918001860084801F08AF8074B186001F00CF8D5
:1009280000231A461946184601F02AF8F8E700BFCE
:100938008C0000201402002090000020F0B589B03F
:1009480000240394049405940694079400941F4B80
:100958001A6B42F080021A631A6B02F0800200924E
:10096800009A01941A6B42F001021A631A6B02F0A2
:1009780001020192019A02941A6B42F002021A6370
:100988001B6B03F002030293029B114D01221146D7
:10099800284601F09BFC22461021284601F096FCCF
:1009A80001260396049602270597069403A928466C
:1009B80001F09AFB102303930496059703230693EB
:1009C80003A9284601F090FB09B0F0BD00380240A9
:1009D8000000024008B50A480A4B03604FF4E133AF
:1009E800436000238360C36003610C22426183611A
:1009F800C36102F08CFC00B908BDFFF71FFFFBE7DD
:100A0800140200200010014008B50A480A4B036090
:100A18004FF4E133436000238360C36003610C2219
:100A280042618361C36102F072FC00B908BDFFF73F
:100A380005FFFBE75C0200200048004030B58BB0A2
:100A480004460023059306930793089309930368C4
:100A5800634A934204D0634A934260D00BB030BDDE
:100A680000250195604B5A6C42F010025A645A6C8A
:100A780002F010020192019A02951A6B42F00202EA
:100A88001A631B6B03F002030293029BC0230593B6
:100A980002230693032308930723099305A95348C0
:100AA80001F022FB5248534B03604FF00063436050
:100AB8008560C5604FF48063036145618561C561E8
:100AC8000562456201F088FC18BB494BE3639C63EF
:100AD80049484A4B03604FF00063436040238360FA
:100AE8000023C3604FF48062026143618361C36184
:100AF8000362436201F070FC70B93F4BA3639C63CF
:100B080000221146252001F05FFE252001F094FE09
:100B1800A4E7FFF793FED8E7FFF790FEEDE700257F
:100B28000395314B1A6C42F480221A641A6C02F451
:100B380080220392039A04951A6B42F002021A6308
:100B48001B6B03F002030493049B4FF4406305936B
:100B580002230693032308930723099305A923482F
:100B680001F0C2FA2648274B03604FF00063436048
:100B78008560C5604FF48063036145618561C56127
:100B88000562456201F028FC18BB1D4BE3639C63BA
:100B98001D481E4B03604FF0006343604023836091
:100BA8000023C3604FF48062026143618361C361C3
:100BB8000362436201F010FC70B9134BA3639C639A
:100BC80000221146272001F0FFFD272001F034FE06
:100BD80044E7FFF733FED8E7FFF730FEEDE700BF45
:100BE8000010014000480040003802400004024064
:100BF8009400002040640240F4000020B8640240E1
:100C08005401002028600240B401002058600240CE
:100C1800FEE7FEE7FEE7FEE7FEE77047704770472E
:100C280008B501F06BFE08BD08B5024801F0CCFC20
:100C380008BD00BF5401002008B5024801F0C4FCFB
:100C480008BD00BFB401002008B5024802F0ACFCA2
:100C580008BD00BF1402002008B5024802F0A4FC39
:100C680008BD00BF5C02002008B5024801F0ACFCDA
:100C780008BD00BF9400002008B5024801F0A4FC9C
:100C880008BD00BFF400002082B0002100910B4B8A
:100C98005A6C42F480425A645A6C02F480420092C0
:100CA800009A01911A6C42F080521A641B6C03F08E
:100CB80080530193019B02B0704700BF0038024087
:100CC80010B582B0002400941A4B1A6B42F400123B
:100CD8001A631A6B02F400120092009A01941A6BBC
:100CE80042F480021A631B6B03F480030193019B97
:100CF800224621460C2001F067FD0C2001F09CFDE6
:100D0800224621460E2001F05FFD0E2001F094FDE1
:100D1800224621463A2001F057FD3A2001F08CFD89
:100D280022462146462001F04FFD462001F084FD71
:100D380002B010BD0038024082B00368104A9342E6
:100D480004D0B3F1804F0ED002B070470023009357
:100D58000C4B5A6C42F001025A645B6C03F00103BD
:100D68000093009BF0E700230193064B1A6C42F0B6
:100D780001021A641B6C03F001030193019BE3E772
:100D8800000001400038024000B589B000230393F9
:100D9800049305930693079303681C4A934205D06E
:100DA800B3F1804F1AD009B05DF804FB002301931A
:100DB800174B1A6B42F001021A631B6B03F0010315
:100DC8000193019B4FF4706303930223049301235F
:100DD800079303A90F4801F087F9E4E7002302937A
:100DE8000B4B1A6B42F002021A631B6B03F00203EF
:100DF8000293029B0823039302230493012307937E
:100E080003A9054801F070F9CDE700BF00000140D3
:100E180000380240000002400004024010B596B0BD
:100E28000024129413941494159410941194099412
:100E38000A940B940C940D940E940F94202221463E
:100E480001A802F04FFE3B483B4B0360532343602D
:100E5800846040F6B733C36004614461846101F083
:100E68008FFE00284BD14FF48053129312A93148BA
:100E780001F091FF002845D12E4801F0ADFE002871
:100E880043D100231093119310A92A4802F094F833
:100E980000283DD16023099300220A920B920C92FC
:100EA8000D920E920F9209A9224801F0F9FE00282E
:100EB80031D1042209A91F4801F0F2FE70BB0822B3
:100EC80009A91C4801F0ECFE58BB0C2209A91948D5
:100ED80001F0E6FE40BB00230193029303930493C1
:100EE80005934FF400520692089301A9114802F0A5
:100EF800A9F8E0B90F48FFF747FF16B010BDFFF794
:100F08009DFCB0E7FFF79AFCB6E7FFF797FCB8E758
:100F1800FFF794FCBEE7FFF791FCCAE7FFF78EFCEA
:100F2800CDE7FFF78BFCD0E7FFF788FCD3E7FFF7A7
:100F380085FCDFE7A40200200000014000B58FB067
:100F480000230A930B930C930D9308930993019331
:100F580002930393049305930693079322484FF053
:100F68008042026053224260836044F61F62C2607E
:100F78000361836101F004FE30BB4FF480530A9390
:100F88000AA9194801F007FF08BB174801F024FE19
:100F980000BB00230893099308A9134802F00CF832
:100FA800D8B9602301930023029303930593042285
:100FB8000DEB02010C4801F073FE88B90A48FFF7EF
:100FC800E3FE0FB05DF804FBFFF738FCD5E7FFF749
:100FD80035FCDAE7FFF732FCDBE7FFF72FFCE0E749
:100FE800FFF72CFCEAE700BFEC0200200E4B1B7851
:100FF800C3B982B00C4B01221A700C4B5B68019389
:10100800019A0B4B1B689A4203D20A4A13680133B0
:101018001360064B5A68064B1A60034B00221A707D
:1010280002B07047704700BF48030020001000E07E
:10103800400300204403002008B5124AD2F8FC30CF
:1010480043F08073C2F8FC300F4B002159601A68D6
:1010580042F001021A600D4B03FB00F00C4B1860C4
:101068000C4BA3FB00239B090B4A13600B4BA3FB00
:101078000030800C0A4B18600A4B1960FFF7B6FF66
:1010880008BD00BF00ED00E0001000E040420F0086
:1010980034030020D34D62103803002083DE1B4345
:1010A8003C0300204403002000B52DED028B83B0E3
:1010B8000D4B5B680193019B02689B1A07EE903AFF
:1010C800F8EE677A094B93ED007AB8EE477A87EE27
:1010D800878A019B0360FFF789FFB0EE480A03B0D7
:1010E800BDEC028B5DF804FB001000E03403002027
:1010F8000A4B5A68094B5B689B1A07EE903AB8EEA0
:10110800677A074BD3ED007AF8EE677A67EE807A54
:10111800B4EEE77AF1EE10FAECD47047001000E074
:101128003403002008B507EE900AF8EE677A9FEDC1
:10113800030A87EE800AFFF7DBFF08BD00007A4448
:1011480010B5044690F800210146D0F8040102F0D9
:101158001DFCD4F80431DB6B1A68136823F008030C
:10116800136010BD38B505464FF4867002F0A4FC34
:1011780004464FF48672002102F0B4FC6B68C4F890
:1011880004312B7884F80031AB68C4F80831064A7A
:101198001378591C1170054A42F823402046FFF77E
:1011A800CFFF204638BD00BF490300204C03002074
:1011B80008B50A4601230146014802F0D8F808BDDF
:1011C8005C02002038B50C46002301E00133DBB295
:1011D800104A92F800C09C451BD91D460E4A52F889
:1011E8002320D2F804118142F0D1D2F808313BB162
:1011F800984722460021084B53F8250002F072FC5C
:10120800054B53F8251091F80021D1F8040102F09C
:10121800BDFB38BD490300204C03002008B58446B7
:10122800002301E00133DBB2074A12789A420AD957
:10123800064A52F82310D1F804016045F2D191F81A
:10124800002102F0A3FB08BD490300204C03002045
:1012580010B54FF0000C4FF0FF0E72460BE010F87F
:101268000C305340064AD25C82EA0E02054C14F850
:1012780003E00CF1010C6145F1DC4EEA022010BDDF
:10128800783C0008783D000884460020034604E0C6
:101298001CF803201044C0B201338B42F8D37047C6
:1012A80038B550380F281CD8DFE800F00B081C3A76
:1012B8002024272A2D30331B1B1B1B3603243425DF
:1012C80001E004243025032A2DD054B162001748C8
:1012D80000EB450002F0F8FB154B1B682146284639
:1012E800984738BD042437250322ECE704243A251F
:1012F8000322E8E704244125E5E704244525E2E73D
:1013080004244925DFE704244D25DCE7042451257E
:10131800D9E704245525D6E7064B1D680424D2E7EF
:1013280003243D25CFE71446D0E700BF6C03002017
:10133800640300209005002018B1034A10600020C3
:1013480070476FF00500704768030020F0B583B060
:10135800544B1E68002E00F09E80534B1D68691C7C
:101368001960524B5855524B1B68062B00F28E8061
:10137800DFE803F004458989044589004B4B1B7855
:10138800552B12D10A2940F28180484C0A21204667
:10139800FFF77AFFA37A83420FD0434B1D602046A4
:1013A8002A46611C02F090FB75E03F4B1D603F48E8
:1013B8002A46411C02F088FB6DE03C4BD9789A78AC
:1013C80042EA0122ADF8002059791A7942EA01224D
:1013D800ADF80220D9799A7942EA0122ADF80420C1
:1013E800597A1A7A42EA0122ADF80620042269469F
:1013F8005878FFF755FF2C4B00221A6046E0022967
:1014080044D92A4B5B78032B26D1284B9F787B1D28
:10141800994240D38A1E254B9C5C40EA042491B231
:101428001846FFF715FF84421ED179080D460023A0
:10143800AB4221D25A00D01C1C4C14F800C0043214
:10144800A05C1C4A12681A4440EA0C201A4C24F882
:10145800120001339BB2EBE7134B1D6013482A4679
:10146800411C02F031FB16E00F4B1D600F482A4665
:10147800411C02F029FB0EE00E4B1868B0470A4BDE
:1014880000221A6002E0084B00221A60064B1B6813
:10149800B3F5807F01D003B0F0BD034B00221A6082
:1014A800F9E700BF64030020940500208C040020A5
:1014B8008C050020900500206C03002018B1034A19
:1014C8001060002070476FF005007047640300202B
:1014D8008F2873D810B582B0434B1B68062B70D881
:1014E800DFE803F0041B3E556F1B3E003F4B1B68B3
:1014F800002B69D0FF228DF80020AA228DF8012048
:101508008DF802008DF80310090A8DF804100521E2
:1015180068469847002002B010BD344B1C68002C68
:1015280055D0334B1B788DF8003006238DF80130E9
:10153800020A8DF802208DF803000A0A8DF80420AB
:101548008DF8051019466846FFF782FE030A8DF8E4
:1015580006308DF8070008216846A0470020DAE722
:10156800244B1B68B3B3FF228DF80020AA228DF804
:1015780001208DF802008DF80310090A8DF8041077
:10158800052269461A48007898470020C3E71A4B95
:101598001C6814B38DF80010090A8DF80110144B5B
:1015A80093F800C04FEA4C0C02236A46C1B20CF013
:1015B800FE00A047012813D10020ACE76FF005001A
:1015C80070476FF00500A6E76FF00400A3E76FF01F
:1015D8000400A0E76FF004009DE76FF004009AE7AD
:1015E8006FF0020097E700BF8C0500206803002019
:1015F800000000205803002060030020062807D8B8
:10160800054B1860054B19700020054B1860704792
:101618006FF00500704700BF8C0500200000002017
:101628009405002018B1034A1060002070476FF03D
:10163800050070475C030020884203DB904203DD0D
:1016480000207047002070470120704700B583B024
:10165800194B1B68042B12D1184B1B681BB3FF22B4
:101668008DF80420AA228DF8052067228DF806201F
:10167800032101A89847002003B05DF804FB4BF252
:1016880088516920FFF724FF80B90D4B1B6883B18F
:101698001420984701210846FFF71AFF0028EBD0CD
:1016A8006FF00200E8E76FF00400E5E76FF0020072
:1016B800E2E76FF00400DFE78C05002068030020F4
:1016C8005C03002010B582B004460722012100B255
:1016D800FFF7B2FF002836D0224B1B68042B1ED11F
:1016E800062C01D0022C31D11F4B1B688BB3FF2273
:1016F8008DF80420AA228DF80520062C07D0022C8C
:1017080009D0032101A89847002002B010BD632228
:101718008DF80620F5E764228DF80620F1E74BF2F4
:1017280088516920FFF7D4FEB0B9104B1B68B3B1DC
:1017380014209847A1B20420FFF7CAFE0028E4D07D
:101748006FF00200E1E76FF00500DEE76FF00500DB
:10175800DBE76FF00400D8E76FF00200D5E76FF021
:101768000400D2E78C050020680300205C030020F9
:1017780010B5002405E0044B1B68185DFFF7E6FD73
:1017880001342B2CF7DD10BD9C05002010B52DED84
:10179800028B37285ED03D2878D0342830D0BDEC75
:1017A800028B10BD03F13401394A32F9112007EEDA
:1017B800902AF8EEE77A9FED377A67EE877AB3EEEC
:1017C800007A67EE877A991C334A02EB8102C2EDF0
:1017D800027A0133022BE5DD304C2046FFF764FC2A
:1017E8002D4B93ED058A2046FFF75EFC68EE007AE4
:1017F80017EE900AFEF748FE294BC3E90001CEE731
:101808000023E7E703F13701214A32F9112007EEF7
:10181800902AF8EEE77A9FED1F7A67EE877A9FEDB8
:10182800217A67EE877A991D1B4A02EB8102C2ED85
:10183800017A0133022BE5DD174C606AFEF724FEBE
:10184800194BC3E90001E069FEF71EFE174BC3E917
:101858000001A4E70023EDE703F13D010C4A32F94A
:10186800112007EE902AF8EEE77A9FED0A7A67EEE4
:10187800877A9FED0F7A67EE877A074A02EB830231
:10188800C2ED017A0133022BE6DD88E70023FAE78F
:101898006C030020000000389C050020E0050020B3
:1018A800C80500200000FA44D0050020D805002013
:1018B8000000344330B585B00546124B0393124BF4
:1018C80002932C238DF8043001A8FFF74BFC0F4C32
:1018D80044F8040B50210020FFF790FE0C48FFF756
:1018E8002BFD0C48FFF79EFE0B48FFF7E7FD284647
:1018F800FFF7E8FEFFF7AAFE6420FFF713FC204677
:1019080005B030BD791700085C0200209C05002056
:10191800B91100082D1100089517000808B5A8206E
:10192800FFF78AFB0620FFF7C5FF024B1860184631
:1019380008BD00BF9805002010B5094C00212046BD
:1019480001F0B8FA0421204601F0B4FA0821204633
:1019580001F0B0FA0C21204601F0ACFA10BD00BF2E
:10196800A402002080B200F13C039BB2782B06D879
:1019780000EB8000400080B200F2DC500880704725
:1019880070B582B00E4615461C460DF10601FFF7EC
:10199800E9FF01A93046FFF7E5FF0DF102012846EE
:1019A800FFF7E0FF69462046FFF7DCFF074B1B689F
:1019B800BDF806205A63BDF804209A63BDF80220DA
:1019C800DA63BDF800201A6402B070BDA4020020DA
:1019D800134B1B681A78AA2A0FD059789A7842EACA
:1019E80001220F490A82D8781B7943EA00234B82E7
:1019F8000C490A800C4A138070479A79552AECD111
:101A0800002206E099184878054901EB42018880D0
:101A18000132042AF6DD5979014AD181DDE700BF98
:101A2800E4050020F8050020FA05002000B585B07F
:101A3800074B0393029007238DF8043001A8FFF7A2
:101A480091FB044B1860184605B05DF804FB00BF15
:101A5800D9190008E405002010B503460C4A0D49C1
:101A68000D48006840B10C4800680344521A93427C
:101A780006D8094A136010BD0748084C0460F2E70D
:101A880001F0F0FF0C2303604FF0FF30F3E700BFD5
:101A98000000022000040000FC05002018060020B9
:101AA800002800F0E08170B582B00446036813F0A6
:101AB800010F3BD09F4B9B6803F00C03042B2CD0E9
:101AC8009C4B9B6803F00C03082B21D06368B3F58B
:101AD800803F4FD0B3F5A02F52D0964B1A6822F40E
:101AE80080321A601A6822F480221A606368002B18
:101AF80050D000F00FFF05468E4B1B6813F4003FD3
:101B080014D100F007FF401B6428F5D90320B1E188
:101B1800884B5B6813F4800FD8D0864B1B6813F48E
:101B2800003F03D06368002B00F09F81236813F007
:101B3800020F54D07F4B9B6813F00C0F3ED07D4BA7
:101B48009B6803F00C03082B33D0E368002B68D0A4
:101B5800794B01221A6000F0DDFE0546754B1B68C3
:101B680013F0020F54D100F0D5FE401B0228F5D91E
:101B780003207FE16F4A136843F480331360B5E7AD
:101B88006C4B1A6842F480221A601A6842F4803258
:101B98001A60ABE700F0BEFE0546664B1B6813F4FF
:101BA800003FC3D000F0B6FE401B6428F5D90320DF
:101BB80060E1604B5B6813F4800FC6D15D4B1B6816
:101BC80013F0020F03D0E368012B40F05081594A0B
:101BD800136823F0F803216943EAC10313602368FB
:101BE80013F0080F42D063696BB3534B0122C3F85B
:101BF800802E00F08FFE05464E4B5B6F13F0020FF0
:101C080034D100F087FE401B0228F5D9032031E1CA
:101C1800484A136823F0F803216943EAC1031360B3
:101C2800DDE7454B00221A6000F074FE0546414B83
:101C38001B6813F0020FD2D000F06CFE401B022884
:101C4800F5D9032016E13C4B0022C3F8802E00F0A2
:101C580061FE0546374B5B6F13F0020F06D000F0AC
:101C680059FE401B0228F5D9032003E1236813F02D
:101C7800040F77D02F4B1B6C13F0805F33D10023F8
:101C880001932C4B1A6C42F080521A641B6C03F0BF
:101C980080530193019B0125284B1B6813F4807F17
:101CA80023D0A368012B34D0052B38D0214B1A6FD1
:101CB80022F001021A671A6F22F004021A67A36859
:101CC800002B3DD000F026FE06461A4B1B6F13F082
:101CD800020F46D100F01EFE801B41F28833984265
:101CE800F3D90320C6E00025D6E7144A136843F465
:101CF8008073136000F00EFE0646104B1B6813F449
:101D0800807FCED100F006FE801B0228F5D9032083
:101D1800B0E0084A136F43F001031367CFE7054BA0
:101D28001A6F42F004021A671A6F42F001021A672A
:101D3800C5E700BF0038024000004742007000407D
:101D480000F0E8FD0646524B1B6F13F0020F08D057
:101D580000F0E0FD801B41F288339842F3D903205C
:101D680088E0EDB9A369002B00F08380484A9268A7
:101D780002F00C02082A51D0022B17D0454B002242
:101D88001A6600F0C7FD0446414B1B6813F0007F3C
:101D980042D000F0BFFD001B0228F5D9032069E0FE
:101DA8003B4A136C23F080531364DBE7394B002262
:101DB8001A6600F0AFFD0546354B1B6813F0007F2F
:101DC80006D000F0A7FD401B0228F5D9032051E0FA
:101DD800E369226A1343626A43EA8213A26A5208D9
:101DE800013A43EA0243E26A43EA0263284A53603B
:101DF800284B01221A6600F08DFD0446244B1B680F
:101E080013F0007F06D100F085FD001B0228F5D9EC
:101E180003202FE000202DE000202BE0012B2BD009
:101E28001B4B5B6803F48001E269914226D103F001
:101E38003F02216A8A4223D1616A47F6C0721A407A
:101E4800B2EB811F1ED103F44031A26A5208013A55
:101E5800B1EB024F18D103F07063E26AB3EB026F83
:101E680014D1002006E001207047012002E0012083
:101E780000E0002002B070BD0120FBE70120F9E777
:101E88000120F7E70120F5E70120F3E70120F1E75A
:101E9800003802400000474208B5254B9B6803F014
:101EA8000C03042B3FD0082B3FD1214B5A6802F07A
:101EB8003F025B6813F4800F12D01D4B5968C1F3C1
:101EC80088111C480023A1FB0001FEF735FB184BC5
:101ED8005B68C3F3014301335B00B0FBF3F025E01B
:101EE800134B5968C1F3881C4FEA4C11B1EB0C0035
:101EF8006EEB0E0E4FEA8E1343EA90638101091AC6
:101F080063EB0E03DB0043EA5173C90011EB0C0CC1
:101F180043F10003990200234FEA8C2041EA9C51C7
:101F2800FEF70AFBD3E7034800E0034808BD00BFFB
:101F380000380240001BB7000024F400002800F01D
:101F48009B8070B50D4604464F4B1B6803F0070392
:101F58008B4208D2CBB24C4A1370136803F00703C4
:101F68008B4240F08B80236813F0020F17D013F0D8
:101F7800040F04D0454A936843F4E0539360236800
:101F880013F0080F04D0414A936843F46043936008
:101F98003E4A936823F0F003A1680B4393602368DB
:101FA80013F0010F32D06368012B21D09A1E012A49
:101FB80025D9364A126812F0020F61D033498A686F
:101FC80022F0030213438B6000F0A4FC06462F4B5B
:101FD8009B6803F00C036268B3EB820F16D000F025
:101FE80099FC801B41F288339842F0D9032042E0E3
:101FF800264A126812F4003FE0D101203BE0234A50
:10200800126812F0007FD9D1012034E01E4B1B6802
:1020180003F00703AB4207D9EAB21B4B1A701B68DF
:1020280003F00703AB422DD1236813F0040F06D049
:10203800164A936823F4E053E1680B4393602368DE
:1020480013F0080F07D0114A936823F460432169FD
:1020580043EAC1039360FFF71FFF0C4B9B68C3F370
:1020680003130B4AD35CD8400A4B18600A4B186814
:1020780000F004FC002070BD012070470120FAE741
:102088000120F8E70120F6E7003C02400038024052
:10209800803E00080800002004000020014B18685A
:1020A800704700BF0800002008B5FFF7F7FF044B92
:1020B8009B68C3F38223034AD35CD84008BD00BFA2
:1020C80000380240903E000808B5FFF7E7FF044BD0
:1020D8009B68C3F34233034AD35CD84008BD00BFB2
:1020E80000380240903E000800230F2B00F2E480E5
:1020F80070B582B060E085685E000324B44025EACC
:102108000405CC68B4402C438460456825EA020580
:102118004C68C4F300129A402A4342605AE0DC0833
:10212800083450F8246003F0070295000F22AA40F3
:1021380026EA020E0A69AA4042EA0E0240F8242062
:102148005CE0072200E0002202FA0EF22A43023481
:102158005A4D45F824205A4A94686FEA0C0224EA3A
:102168000C054E6816F4801F01D04CEA0405544C47
:10217800A560E46802EA04054E6816F4001F01D061
:102188004CEA04054E4CE560646802EA04054E68B2
:1021980016F4003F01D04CEA0405494C65602468F8
:1021A80022404D6815F4803F01D04CEA0402444CAB
:1021B800226001330F2B7DD801229A400C6804EA73
:1021C800020C32EA0404F4D14C6804F00304013C24
:1021D800012C90D94A6802F00302032A09D0C46886
:1021E8005D000322AA4024EA02048A68AA40224326
:1021F800C2604A6802F00302022A90D004684FEADB
:10220800430E032202FA0EF224EA02044A6802F09C
:10221800030202FA0EF2224302604A6812F4403FB7
:10222800C7D000220192274A546C44F48044546475
:10223800526C02F480420192019A9C08A51C1F4A24
:1022480052F8255003F003024FEA820E0F2202FAD9
:102258000EF225EA02051C4A90423FF474AF02F5DB
:10226800806290421AD002F58062904218D002F53E
:102278008062904216D002F58062904214D002F536
:102288008062904212D002F58062904210D002F52E
:10229800806290423FF455AF082255E7012253E788
:1022A800022251E703224FE704224DE705224BE7BC
:1022B800062249E702B070BD704700BF00380140F0
:1022C800003C014000380240000002400AB1816130
:1022D800704709048161704730B405682C6824F49C
:1022E80080242C60046863608368402B05D00368F1
:1022F80099600368DA6030BC704703689A600368C5
:10230800D960F8E710B40368D9B210390C4AA2FBB7
:10231800014212090B4CA25CC2655F2909D923F45A
:102328007F7323F0030304338365806D5DF8044BEA
:10233800704723F47F7323F003038365F5E700BF39
:10234800ABAAAAAA783E0008836A826992B9012BCF
:102358000AD0022B02D00BB100207047C36A13F0D9
:10236800807F28D100207047C36AB3F1C07F24D092
:1023780000207047B2F5005F09D0022B25D9032B46
:1023880025D1C36A13F0807F23D100207047032B27
:1023980003D8DFE803F01404140A00207047C36A66
:1023A80013F0807F0DD100207047C36AB3F1C07F5E
:1023B80009D0002070470120704701207047012094
:1023C80070470120704701207047012070470020A6
:1023D800704701207047000070B5044600F09AFA73
:1023E800002C5BD00546022384F83530002384F89E
:1023F80034302268136823F00103136023681A68D5
:1024080012F0010F0AD000F085FA431B052BF5D90D
:1024180020236365032084F8350070BD1A682048BE
:1024280010406168A2680A43E1680A4321690A43C7
:1024380061690A43A1690A43E1690A43216A0A43B7
:102448000243616A04291ED01A602668756925F05E
:102458000705636A1D43042B07D1A36A1D43E36A7A
:102468001BB12046FFF770FF90B975612046FFF752
:1024780049FFE26D3F23934083600020606501239C
:1024880084F83530C9E7E16A206B01430A43DBE78A
:1024980040236365012084F83500BEE70120BCE7CE
:1024A8003F8010F038B50446856D90F83400012857
:1024B8002BD0012084F8340094F83500C0B20128EC
:1024C80004D0002384F83430022038BD022084F878
:1024D8003500002060652046FFF7FEFEE26D3F23D1
:1024E8009340AB602268136843F016031360236CB3
:1024F80023B12268136843F0080313602268136845
:1025080043F0010313600020DFE70220DDE770B528
:102518000446866D00F0FEF994F83530DBB2022BE4
:1025280006D080236365002384F83430012070BD11
:1025380005462268136823F016031360226853695E
:1025480023F080035361236CE3B12268136823F0FE
:10255800080313602268136823F0010313602368DB
:102568001B6813F0010F11D000F0D4F9431B052BA1
:10257800F5D920236365032084F83500002384F807
:102588003430D4E7A36C002BDFD1E3E7E26D3F23BF
:102598009340B360012384F83530002084F8340078
:1025A800C5E790F83530DBB2022B03D080234365B2
:1025B80001207047052380F835300268136823F03E
:1025C8000103136000207047F0B583B00446002370
:1025D8000193724B1D68724BA3FB0535AD0A876DDD
:1025E8003E68C26D08239340334210D003681A68CE
:1025F80012F0040F0BD01A6822F004021A60C26DA0
:1026080008239340BB60436D43F001034365E26DCB
:1026180001239340334209D02268526912F0800F97
:1026280004D0BB60636D43F002036365E26D04236D
:102638009340334209D02268126812F0020F04D086
:10264800BB60636D43F004036365E26D1023934040
:10265800334224D02268126812F0080F1FD0BB60E2
:1026680023681A6812F4802F0DD01B6813F4002F0A
:1026780004D1236C9BB12046984710E0A36C73B13A
:10268800204698470BE01A6812F4807F03D11A6835
:1026980022F008021A60236C0BB120469847E26DBD
:1026A80020239340334255D02268126812F0100F4D
:1026B80050D0BB6094F83530DBB2052B0ED02368C0
:1026C8001A6812F4802F33D01B6813F4002F2AD114
:1026D800636C002B3ED0204698473BE02268136885
:1026E80023F0160313602268536923F080035361B3
:1026F800236CA3B12268136823F008031360E26D0A
:102708003F239340BB60012384F83530002384F8CD
:102718003430236D002B3FD0204698473CE0A36C13
:10272800002BE7D1EBE7E36BA3B12046984711E014
:102738001A6812F4807F09D11A6822F010021A6010
:10274800012384F83530002384F83430E36B0BB16F
:1027580020469847636DFBB1636D13F0010F17D0E6
:10276800052384F835302268136823F001031360C9
:10277800019B01330193AB4204D823681B6813F013
:10278800010FF5D1012384F83530002384F8343063
:10279800E36C0BB12046984703B0F0BD0800002059
:1027A800B5814E1B074AD36823F4E0631B041B0C56
:1027B800000200F4E060034343F0BF6343F40033D6
:1027C800D360704700ED00E000B5194BDB68C3F338
:1027D8000223C3F1070CBCF1040F28BF4FF0040C0F
:1027E80003F1040EBEF1060F18D9033B4FF0FF3E6C
:1027F8000EFA0CFC21EA0C0199400EFA03F322EAC6
:102808000303194300280BDB0901C9B200F160403A
:1028180000F5614080F800135DF804FB0023E5E74C
:1028280000F00F000901C9B2024B1954F4E700BFC8
:1028380000ED00E014ED00E0002807DB00F01F02C7
:10284800400901239340024A42F82030704700BFF4
:1028580000E100E00138B0F1807F0BD24FF0E023B7
:102868005861054AF02182F8231000209861072258
:102878001A6170470120704700ED00E010B504466A
:102888000E4B18784FF47A73B3FBF0F30C4A1068C8
:10289800B0FBF3F0FFF7DEFF68B90F2C01D9012078
:1028A8000AE0002221464FF0FF30FFF78DFF054B6D
:1028B8001C60002000E0012010BD00BF01000020C6
:1028C800080000200400002008B50B4B1A6842F4E9
:1028D80000721A601A6842F480621A601A6842F438
:1028E80080721A600320FFF75DFF0F20FFF7C6FF15
:1028F800FEF7CAF9002008BD003C0240034A1168EF
:10290800034B1B780B441360704700BF0006002080
:1029180001000020014B1868704700BF0006002026
:1029280030B4036A026A22F00102026242688469D2
:1029380024F073040D682C4323F0020C8B6843EADF
:102948000C03104DA84203D005F58065A84205D1B7
:1029580023F00803CD682B4323F00403094DA84254
:1029680003D005F58065A84205D122F440724D696F
:102978002A438D692A43426084614A68426303623C
:1029880030BC70470000014030B4036A026A22F488
:10299800807202624268C46924F0730C0C6844EACD
:1029A8000C0523F400738C6843EA0423114CA042FD
:1029B80003D004F58064A04206D123F40063CC68F8
:1029C80043EA042323F480630A4CA04203D004F5AD
:1029D8008064A04207D122F440524C6942EA0412B2
:1029E8008C6942EA04124260C5614A68C2630362A4
:1029F80030BC70470000014030B4036A026A22F418
:102A0800805202624468C26922F4E6420D6842EAD2
:102A1800052223F400538D6843EA0533094DA84283
:102A280003D005F58065A84204D124F480444D699B
:102A380044EA85144460C2614A680264036230BC97
:102A4800704700BF0000014010B4036A046A24F014
:102A580001040462846924F0F00C4CEA021223F0A9
:102A68000A030B43826103625DF8044B704710B49C
:102A7800036A046A24F010040462846924F4704C24
:102A88004CEA023223F0A00343EA01138261036295
:102A98005DF8044B7047836823F070030B4343F0E1
:102AA80007038360704770470368344A904212D026
:102AB800B0F1804F0FD0A2F57C4290420BD002F5C6
:102AC8008062904207D002F58062904203D002F5FE
:102AD8007842904203D123F070034A681343274A8F
:102AE80090422AD0B0F1804F27D0A2F57C42904284
:102AF80023D002F5806290421FD002F58062904296
:102B08001BD002F57842904217D002F570529042DD
:102B180013D002F5806290420FD002F58062904295
:102B28000BD0A2F59832904207D002F5806290420D
:102B380003D002F58062904203D123F44073CA683F
:102B4800134323F080034A69134303608B68C3620D
:102B58000B688362094B984203D003F5806398425F
:102B680001D10B69036301234361036913F0010F6A
:102B780003D0036923F0010303617047000001409B
:102B880040B310B5044690F83D30F3B1022384F801
:102B98003D30214651F8040BFFF786FF012384F8E6
:102BA800463084F83E3084F83F3084F8403084F86A
:102BB800413084F8423084F8433084F8443084F853
:102BC800453084F83D30002010BD80F83C30FEF7D9
:102BD800B3F8DBE70120704740B310B5044690F81E
:102BE8003D30F3B1022384F83D30214651F8040BFF
:102BF800FFF75AFF012384F8463084F83E3084F802
:102C08003F3084F8403084F8413084F8423084F80A
:102C1800433084F8443084F8453084F83D3000204F
:102C280010BD80F83C30FFF73EFFDBE7012070471E
:102C380030B4036A026A22F01002026244688269B0
:102C480022F4E6420D6842EA052223F020038D684B
:102C580043EA0513114DA84203D005F58065A84243
:102C680006D123F08003CD6843EA051323F040031F
:102C78000A4DA84203D005F58065A84207D124F47F
:102C880040644D6944EA85048D6944EA85044460DA
:102C980082614A688263036230BC70470000014069
:102CA80038B590F83C30012B66D004460D46012318
:102CB80080F83C300C2A5AD8DFE802F007595959F5
:102CC8001B5959593059595944000068FFF728FED3
:102CD8002268936943F0080393612268936923F09B
:102CE800040393612268936929690B439361002067
:102CF8003EE00068FFF79CFF2268936943F4006395
:102D080093612268936923F48063936122689369CD
:102D1800296943EA01239361002029E00068FFF74D
:102D280033FE2268D36943F00803D3612268D3696C
:102D380023F00403D3612268D36929690B43D36163
:102D4800002015E00068FFF757FE2268D36943F4B6
:102D58000063D3612268D36923F48063D361226856
:102D6800D369296943EA0123D361002000E00120E7
:102D7800002384F83C3038BD0220FCE710B4846896
:102D880024F47F4C42EA03220A4342EA0C0282609E
:102D98005DF8044B704790F83C30012B78D010B5A3
:102DA8000446012380F83C30022380F83D30026855
:102DB800936823F47F4323F0770393600B68602BB9
:102DC8004CD029D8402B54D00CD9502B22D1CA68CA
:102DD80049680068FFF738FE50212068FFF75BFE5E
:102DE800002005E0202B0DD009D9302B0AD0012076
:102DF800012384F83D30002384F83C3010BD0BB12A
:102E0800102B05D119462068FFF745FE0020EFE793
:102E18000120EDE70120EBE7B3F5805F34D0B3F58F
:102E2800005F0CD1CB684A6889680068FFF7A6FF85
:102E38002268936843F4804393600020D8E7702B9E
:102E480024D1CB684A6889680068FFF797FF226831
:102E5800936843F0770393600020C9E7CA6849681C
:102E68000068FFF704FE60212068FFF714FE0020C9
:102E7800BEE7CA6849680068FFF7E6FD4021206898
:102E8800FFF709FE0020B3E70020B1E70120AFE714
:102E98000220704701F01F01012303FA01FC036AB5
:102EA80023EA0C030362036A02FA01F10B4303628B
:102EB8007047000010B504460846002942D194F82E
:102EC8003E30DBB2013B18BF0123002B6ED1002836
:102ED80051D1022384F83E30012201462068FFF7D1
:102EE800D9FF2368334A934203D002F580629342A4
:102EF80003D15A6C42F400425A6423682D4A934223
:102F080049D0B3F1804F46D0A2F57C42934242D0DB
:102F180002F5806293423ED002F5806293423AD035
:102F280002F57842934236D002F57052934232D07D
:102F3800A2F5943293422ED01A6842F001021A6028
:102F4800002032E0042908D008290DD094F8413037
:102F5800DBB2013B18BF0123B7E794F83F30DBB27F
:102F6800013B18BF0123B0E794F84030DBB2013BC6
:102F780018BF0123A9E7042805D0082807D0022391
:102F880084F84130A8E7022384F83F30A4E70223FD
:102F980084F84030A0E79A6802F00702062A07D0B2
:102FA8001A6842F001021A60002010BD0120FCE7F7
:102FB8000020FAE70000014090F83C30012B3DD09A
:102FC80010B4012380F83C30022380F83D300368B8
:102FD8005A689C6822F0700C0A6842EA0C025A602F
:102FE8000368174A93421AD0B3F1804F17D0A2F55D
:102FF8007C42934213D002F5806293420FD002F5CF
:10300800806293420BD002F57842934207D002F5D2
:103018007052934203D0A2F59432934204D124F023
:1030280080044A6814439C60012380F83D300023E3
:1030380080F83C3018465DF8044B70470220704712
:103048000000014090F83C30012B22D0012380F889
:103058003C30CB6823F440738A68134323F48063BD
:103068004A68134323F400630A68134323F4805324
:103078000A69134323F400534A69134323F4804332
:10308800CA69134302685364002380F83C30184629
:10309800704702207047026802F10C0353E8003FB2
:1030A80023F0C0030C3242E800310029F3D1202379
:1030B80080F841307047026802F10C0353E8003F82
:1030C80023F490730C3242E800310029F3D10268EE
:1030D80002F1140353E8003F23F00103143242E8DD
:1030E80000310029F3D1036B012B05D0202380F890
:1030F8004230002303637047026802F10C0353E86F
:10310800003F23F010030C3242E800310029F3D1CC
:10311800ECE790F84130DBB2212B01D00220704758
:103128008368B3F5805F17D0036A5A1C02621A7865
:1031380003685A60C38C9BB2013B9BB2C3844BB9F2
:103148000268D36823F08003D3600268D36843F031
:103158004003D360002070470369002BE4D1036A61
:103168001B880268C3F308035360036A02330362CF
:10317800E0E7000038B504460268136923F44053B9
:10318800C1680B431361836802691343426913439F
:10319800C2691A430168CB6823F4164323F00C0371
:1031A8001343CB600268536923F4407381690B436E
:1031B80053610368314A934206D002F58062934214
:1031C80002D0FEF771FF01E0FEF77EFFE369B3F579
:1031D800004F29D00021031849411B1841F1000173
:1031E800C90041EA5371DB00181863684FEA83028B
:1031F8004FEA937341F10001FDF79EF9204DA5FBBD
:1032080000325109642303FB11031B013233A5FB70
:1032180003235B0903F0F00202EB011203F00F0332
:10322800216813448B6038BD0023021843EB030167
:10323800121841F10001C90041EA5271D200101878
:1032480041F10001626892185B41FDF775F90C4D78
:10325800A5FB00325109642303FB1103DB00323361
:10326800A5FB03235B095A0002F4F87202EB011272
:1032780003F00703216813448B60D4E70010014072
:103288001F85EB512DE9F04383B005460E461746DE
:103298009946DDF828802C68246836EA04030CBFB8
:1032A8004FF0010C4FF0000CBC4528D1B8F1FF3F9E
:1032B800F1D0FFF72FFBA0EB0900404523D8B8F168
:1032C800000F22D02B68DA6812F0040FE3D0802EAA
:1032D800E1D0402EDFD01A6812F0080FDBD00024AE
:1032E80001941A6801925B680193019B2846FFF7D5
:1032F800E2FE08236B6485F84040012000E00020CE
:1033080003B0BDE8F0830320FAE70320F8E760B3D1
:1033180010B5044690F8413013B3242384F84130A3
:103328002268D36823F40053D3602046FFF722FFB6
:103338002268136923F4904313612268536923F0C8
:103348002A0353612268D36843F40053D3600020F2
:103358006064202384F8413084F84230606310BDF3
:1033680080F84030FDF76AFBD7E7012070472DE968
:10337800F04182B01E4690F84130DBB2202B56D186
:1033880004460D469046002955D00AB901204FE061
:1033980000234364212380F84130FFF7BBFA074636
:1033A800A4F82480A4F82680A368B3F5805F02D02F
:1033B8004FF0000814E023692BB34FF000080FE02A
:1033C800202384F84130032032E038F8023B226899
:1033D800C3F308035360E28C92B2013A92B2E284DA
:1033E800E38C9BB293B100963B4600228021204695
:1033F800FFF748FF0028E3D1002DE6D015F8012B90
:1034080023685A60E7E7A8460025E9E700963B46A7
:10341800002240212046FFF735FF18B9202384F801
:10342800413005E0202384F84130032000E00220E9
:1034380002B0BDE8F0810120FAE7704708B50168DD
:10344800CA6822F04002CA60202280F84120FFF7B3
:10345800F4FF002008BD7047704710B5846B2368DF
:103468005A6994F84130DBB2212B10D023685A698D
:1034780002F0400294F84230DBB2222B11D0636C88
:1034880043F0100363642046FDF7C8FE10BD02F048
:103498008002002AEAD00023E3842046FFF7FBFDE0
:1034A800E4E7002AEBD00023E3852046FFF703FE7C
:1034B800E5E708B5806B0023C385C384FDF7AEFE3E
:1034C80008BD90F84230DBB2222B69D18368B3F58E
:1034D800805F4FD0826AB3F5805F04D0002B56D14D
:1034E8000369002B53D103685B681370836A013347
:1034F8008362C38D9BB2013B9BB2C385002B51D124
:1035080000B583B00268D36823F02003D360026853
:10351800D36823F48073D3600268536923F00103EE
:103528005361202380F8423000234363036B012B4F
:1035380033D100230363026802F10C0353E8003F10
:1035480023F010030C3242E800310029F3D103685C
:103558001A6812F0100F06D0002201921A68019220
:103568005B680193019B818DFDF72CFE002003B061
:103578005DF804FB0269002AACD1826A03685B68C3
:10358800C3F308031380836A02338362B1E70368D5
:103598005B6803F07F031370A8E7FFF75CFFE5E7BC
:1035A800022070470020704730B583B00446026897
:1035B8001368D068516913F00F0505D113F0200F77
:1035C80002D010F0200F19D12DB111F0010119D13D
:1035D80010F4907F16D1216B01297DD013F0800F54
:1035E80003D010F0800F40F0198113F0400F03D082
:1035F80010F0400F40F0168103B030BD2046FFF7B1
:1036080060FFF9E713F0010F06D010F4807F03D0B4
:10361800626C42F00102626413F0040F04D019B125
:10362800626C42F00202626413F0020F04D019B116
:10363800626C42F00402626413F0080F07D010F0C5
:10364800200F00D119B1626C42F008026264626C0A
:10365800002AD1D013F0200F02D010F0200F29D16A
:1036680023685B6903F04003626C12F0080F00D115
:1036780063B32046FFF71FFD23685B6913F0400F13
:1036880020D0226802F1140353E8003F23F04003DE
:10369800143242E800310029F3D1E36B73B1634A75
:1036A8001A65E06BFEF77DFF0028A5D0E06B036D7F
:1036B8009847A1E72046FFF704FFD1E72046FDF72A
:1036C800ADFD99E72046FDF7A9FD95E72046FDF7F2
:1036D800A5FD002363648FE713F0100F3FF47EAF5E
:1036E80010F0100F3FF47AAF002301931368019391
:1036F80053680193019B536913F0400F52D0E26B5A
:1037080013685B689BB2002B3FF476AFA18D99429A
:103718007FF672AFE385D369B3F5807F37D022682F
:1037280002F10C0353E8003F23F480730C3242E8A3
:1037380000310029F3D1226802F1140353E8003F55
:1037480023F00103143242E800310029F3D1226842
:1037580002F1140353E8003F23F04003143242E817
:1037680000310029F3D1202384F842300023236359
:10377800226802F10C0353E8003F23F010030C32D7
:1037880042E800310029F3D1E06BFEF7C0FE0223C6
:103798006363A18DE38D9BB2C91A89B22046FDF7F8
:1037A80011FD29E7A18DE38D9BB2C91A89B2E38D7A
:1037B8009BB2002B3FF420AF00293FF41DAF2268D5
:1037C80002F10C0353E8003F23F490730C3242E8F3
:1037D80000300028F3D1226802F1140353E8003FB7
:1037E80023F00103143242E800300028F3D12023EB
:1037F80084F8423000232363226802F10C0353E863
:10380800003F23F010030C3242E800300028F3D1C7
:10381800022363632046FDF7D5FCEDE62046FFF75B
:1038280078FCE9E62046FFF709FEE5E6BB34000828
:1038380008B5806B01234363036B012B02D0FFF7AC
:103848000BFE08BD818D4908FDF7BCFCF9E708B5FA
:103858000346806B1B681B6813F4807F2BD1002301
:10386800C385026802F10C0353E8003F23F4807318
:103878000C3242E800310029F3D1026802F1140346
:1038880053E8003F23F00103143242E800310029D5
:10389800F3D1026802F1140353E8003F23F0400318
:1038A800143242E800310029F3D1202380F8423055
:1038B800036B012B07D000234363036B012B0FD04D
:1038C800FFF7C9FD08BD026802F10C0353E8003F89
:1038D80023F010030C3242E800310029F3D1EAE763
:1038E800818DFDF76FFCEDE730B583B004461346D4
:1038F8008162828500254564222280F84220C26BBD
:103908001F48D063E26B1F481064E26B1E48D06406
:10391800E26B156520680A46011DE06BFEF7C2FDE3
:10392800019523681A6801925B680193019B2369DA
:103938005BB1226802F10C0353E8003F43F4807343
:103948000C3242E800310029F3D1226802F1140355
:1039580053E8003F43F00103143242E800310029E4
:10396800F3D1226802F1140353E8003F43F0400307
:10397800143242E800310029F3D1002003B030BDF1
:1039880057380008393800086334000890F8423086
:10399800DBB2202B29D110B582B0044639B312B955
:1039A800012002B010BD0123036300234363FFF726
:1039B8009BFF0028F5D1236B012B01D00120F0E7F4
:1039C8000023019323681A6801925B680193019BA5
:1039D800226802F10C0353E8003F43F010030C3255
:1039E80042E800310029F3D1DBE7022070470120CB
:1039F800D7E70000054BD3F8882042F47002C3F8DB
:103A080088204FF000629A60704700BF00ED00E028
:103A1800DFF834D0002103E00C4B5B5843500431ED
:103A28000B480C4B42189A42F6D30B4A02E000238B
:103A380042F8043B094B9A42F9D3FFF7DBFF00F049
:103A480017F8FCF751FF704700000220A83E000855
:103A580000000020700000207000002014060020E4
:103A6800FEE70000014B1868704700BF0C000020FB
:103A780070B50D4D0D4C641BA4100026A64209D14B
:103A88000B4D0C4C00F0E8F8641BA4100026A6426D
:103A980005D170BD55F8043B98470136EEE755F857
:103AA800043B98470136F2E7A03E0008A03E000814
:103AB800A03E0008A43E0008024B0146186800F02A
:103AC80039B800BF0C0000200A44914200F1FF33CE
:103AD80000D1704710B511F8014B03F8014F91421E
:103AE800F9D110BD02440346934200D1704703F850
:103AF800011BF9E770B50E4E0C463168054611B941
:103B080000F08CF830602146284600F087F8431C06
:103B18000AD0C41C24F00304A04207D0211A284666
:103B280000F07CF8013001D14FF0FF34204670BD21
:103B3800080600202DE9F041CD1C25F003050835C5
:103B48000C2D38BF0C25002D074601DBA94205D9ED
:103B58000C233B6000263046BDE8F0812E4E00F075
:103B68006DF833681C4634BB29463846FFF7C2FF58
:103B7800431C04464DD134682646002E40D12368A4
:103B88003146384604EB030800F048F880453AD13E
:103B9800216803356D1A25F0030508350C2D38BF4B
:103BA8000C2529463846FFF7A5FF01302BD023689E
:103BB8002B4423600EE02268521B1ED40B2A16D910
:103BC8006119A342256018BF5960636808BF316056
:103BD80062514B60384604F10B0600F035F826F0C8
:103BE8000706231DF21AB6D09B1BA350B3E76268E1
:103BF800A3420CBF32605A60ECE723466468B2E720
:103C080034467668B9E70C233B60384600F01CF868
:103C1800A1E72560DEE700BF0406002038B5064DA1
:103C28000023044608462B60FDF716FF431C02D10B
:103C38002B6803B1236038BD0C060020014800F052
:103C480009B800BF10060020014800F004B800BF02
:103C58001006002070477047F8B500BFF8BC08BCD4
:103C68009E467047F8B500BFF8BC08BC9E46704732
:103C780000C1814001C0804101C0804100C1814034
:103C880001C0804100C1814000C1814001C0804124
:103C980001C0804100C1814000C1814001C0804114
:103CA80000C1814001C0804101C0804100C1814004
:103CB80001C0804100C1814000C1814001C08041F4
:103CC80000C1814001C0804101C0804100C18140E4
:103CD80000C1814001C0804101C0804100C18140D4
:103CE80001C0804100C1814000C1814001C08041C4
:103CF80001C0804100C1814000C1814001C08041B4
:103D080000C1814001C0804101C0804100C18140A3
:103D180000C1814001C0804101C0804100C1814093
:103D280001C0804100C1814000C1814001C0804183
:103D380000C1814001C0804101C0804100C1814073
:103D480001C0804100C1814000C1814001C0804163
:103D580001C0804100C1814000C1814001C0804153
:103D680000C1814001C0804101C0804100C1814043
:103D780000C0C101C30302C2C60607C705C5C40403
:103D8800CC0C0DCD0FCFCE0E0ACACB0BC90908C873
:103D9800D81819D91BDBDA1A1EDEDF1FDD1D1CDC63
:103DA80014D4D515D71716D6D21213D311D1D010D3
:103DB800F03031F133F3F23236F6F737F53534F4C3
:103DC8003CFCFD3DFF3F3EFEFA3A3BFB39F9F83833
:103DD80028E8E929EB2B2AEAEE2E2FEF2DEDEC2C23
:103DE800E42425E527E7E62622E2E323E12120E093
:103DF800A06061A163A3A26266A6A767A56564A483
:103E08006CACAD6DAF6F6EAEAA6A6BAB69A9A868F2
:103E180078B8B979BB7B7ABABE7E7FBF7DBDBC7CE2
:103E2800B47475B577B7B67672B2B373B17170B052
:103E38005090915193535292965657975595945442
:103E48009C5C5D9D5F9F9E5E5A9A9B5B99595898B2
:103E5800884849894B8B8A4A4E8E8F4F8D4D4C8CA2
:103E68004484854587474686824243834181804012
:103E780000061016000610160000000000000000E2
:103E880001020304060708090000000001020304F8
:083E9800D8C6FF7F0100000005
:043EA000AD01000868
:043EA4008901000888
:103EA800FF010000100000000024F40010000020B2
:103EB80000000000000000000000000000000000FA
:103EC80000000000000000000000000000000000EA
:103ED80000000000000000000000000000000000DA
:103EE80000000000000000000000000000000000CA
:103EF80000000000000000000000000000000000BA
:103F080000000000000000000000000000000000A9
:0400000508003A199C
:00000001FF
