:020000040800F2
:1000000000000220B93D00083D0700083F07000836
:1000100041070008430700084507000800000000EA
:100020000000000000000000000000008114000833
:10003000470700080000000021150008851500088A
:10004000093E0008093E0008093E0008093E000874
:10005000093E0008093E0008093E0008093E000864
:10006000093E0008093E0008093E0008093E000854
:1000700049070008093E000859070008093E000822
:10008000093E0008093E0008093E0008093E000834
:10009000093E0008093E0008093E0008093E000824
:1000A000093E0008093E0008093E0008093E000814
:1000B000093E0008093E0008093E0008093E000804
:1000C000093E0008093E0008093E0008093E0008F4
:1000D000093E0008093E0008093E000869070008BB
:1000E000093E0008093E0008093E0008093E0008D4
:1000F000093E000879070008093E0008093E00088B
:10010000093E0008093E0008093E0008093E0008B3
:10011000093E0008093E0008093E0008093E0008A3
:10012000093E0008093E0008093E0008093E000893
:10013000093E00080000000000000000093E000821
:10014000093E0008093E0008093E0008093E000873
:10015000093E0008093E0008093E0008093E000863
:10016000093E0008093E0008093E0008093E000853
:10017000093E0008093E00080000000000000000E1
:08018000093E0008093E0008D9
:1001900010B5054C237833B9044B13B10448AFF3C1
:1001A00000800123237010BD6000002000000000CB
:1001B0001840000808B5034B1BB103490348AFF3CF
:1001C000008008BD00000000640000201840000806
:1001D00053B94AB9002908BF00281CBF4FF0FF31AE
:1001E0004FF0FF3000F070B9ADF1080C6DE904CEAE
:1001F00000F006F8DDF804E0DDE9022304B0704702
:100200002DE9F047089E0D4604460F46002B4AD1C3
:100210008A42944665D9B2FA82F343B102FA03FCEA
:10022000C3F120029F4020FA02F217439C404FEA9C
:100230001C4E1FFA8CF5B7FBFEF1220C0EFB11775A
:1002400042EA074201FB05F090420AD91CEB020288
:1002500001F1FF3780F01C81904240F21981023990
:100260006244121AA4B2B2FBFEF00EFB102244EA62
:10027000024400FB05F5A5420AD91CEB040400F179
:10028000FF3280F00781A54240F2048164440238C5
:1002900040EA0140641B00211EB1DC400023C6E996
:1002A0000043BDE8F0878B4208D9002E00F0ED80B6
:1002B0000021C6E900050846BDE8F087B3FA83F1DE
:1002C000002949D1AB4202D3824200F2F880841A5D
:1002D00065EB030201201746002EE2D0C6E9004775
:1002E000DFE702B9FFDEB2FA82F3002B40F0908024
:1002F0008A1A4FEA1C471FFA8CFE0121B2FBF7F560
:1003000007FB1520220C42EA00420EFB05F090424A
:1003100008D91CEB020205F1FF3802D2904200F22C
:10032000CB804546121AA4B2B2FBF7F007FB1022AD
:1003300044EA02440EFB00FEA64508D91CEB040467
:1003400000F1FF3202D2A64500F2BB801046A4EBBA
:100350000E0440EA05409FE7C1F120078B4022FAD6
:1003600007FC4CEA030C05FA01F420FA07F3FD4000
:100370004FEA1C492343B5FBF9F81FFA8CFE09FB31
:1003800018551C0C44EA054408FB0EF5A54202FA78
:1003900001F200FA01F00BD91CEB040408F1FF3A5A
:1003A00080F08880A54240F28580A8F1020864446C
:1003B000641B9DB2B4FBF9F309FB134445EA044402
:1003C00003FB0EFEA64508D91CEB040403F1FF3520
:1003D0006CD2A6456AD9023B644443EA0843A3FBB6
:1003E0000295A4EB0E04AC42C846AE4656D353D099
:1003F00056B1B0EB080264EB0E0404FA07F7CA40EA
:10040000CC401743C6E9007418460021BDE8F087C8
:10041000C3F1200102FA03FC20FA01F225FA01F1EE
:100420009D402A434FEA1C471FFA8CFEB1FBF7F0B0
:1004300007FB1015110C41EA054100FB0EF58D423A
:1004400004FA03F408D91CEB010100F1FF382FD2A4
:100450008D422DD902386144491B92B2B1FBF7F5A8
:1004600007FB151142EA014205FB0EF1914208D942
:100470001CEB020205F1FF3816D2914214D9023D5D
:100480006244521A45EA004138E73146304608E7EF
:100490003946E6E61046FBE64845A9D2B9EB020824
:1004A00065EB0C0E013BA3E74546EAE72B4694E7D4
:1004B0004046D1E7D0467BE7023D624432E708463A
:1004C0000AE76444023842E7704700BF08B5026893
:1004D000034B9A4200D008BD02F00EFDFBE700BFBF
:1004E0000020004072B6FEE700B595B03022002132
:1004F00008A803F03FFD002303930493059306939C
:1005000007930193214A116C41F080511164126CE0
:1005100002F080520192019A02931D4B1A6842F434
:1005200080421A601B6803F480430293029B0123FC
:1005300008934FF48033099302230E934FF4800203
:100540000F92192210924FF4A87211921293042361
:10055000139308A801F0BEFD98B90F23039302235B
:100560000493002305934FF4A05306934FF4805354
:100570000793052103A801F0FDFF20B915B05DF830
:1005800004FBFFF7AFFFFFF7ADFF00BF00380240ED
:100590000070004008B502F095FCFFF7A5FF00F0E1
:1005A00011F800F03DF900F033F800F05BF901F0CC
:1005B00007FD034B186000F01BF900F0A9FDFEE7F2
:1005C0007C00002084B000220192104B196B41F096
:1005D00080011963196B01F0800101910199029268
:1005E000196B41F002011963196B01F002010291CC
:1005F000029903921A6B42F001021A631B6B03F01B
:1006000001030393039B04B0704700BF003802400E
:1006100008B50A480A4B03604FF4E13343600023F6
:100620008360C36003610C2242618361C36103F094
:1006300040F800B908BDFFF755FFFBE74001002077
:100640000048004030B589B000230393049305931C
:10065000069307930268334B9A4201D009B030BD2C
:1006600004460025019503F5F8331A6C42F4802204
:100670001A641A6C02F480220192019A02951A6B94
:1006800042F002021A631B6B03F002030293029B07
:100690004FF4406303930223049303230693072339
:1006A000079303A9204802F059F82048204B036023
:1006B0004FF0006343608560C5604FF48063036161
:1006C00045618561C5610562456202F0BDF918BBEF
:1006D000164BE3639C631748174B03604FF00063AE
:1006E0004360402383600023C3604FF48062026153
:1006F00043618361C3610362436202F0A5F970B98B
:100700000C4BA3639C6300220521272002F094FB7D
:10071000272002F0C9FBA1E7FFF7E4FED8E7FFF7C7
:10072000E1FEEDE7004800400004024080000020A8
:1007300028600240E000002058600240FEE7FEE72B
:10074000FEE7FEE7FEE7704708B5024802F074FADC
:1007500008BD00BF8000002008B5024802F06CFA16
:1007600008BD00BFE000002008B5024803F0F0F823
:1007700008BD00BF4001002008B5024802F045FC5A
:1007800008BD00BF6444002000B583B00022009281
:100790000D4B596C41F480415964596C01F480410E
:1007A000009100990192196C41F0805119641B6C01
:1007B00003F080530193019B0F216FF0010002F0C1
:1007C0003BFB03B05DF804FB0038024008B5012094
:1007D00000F0D6FCFBE70000034B0360034B0B600B
:1007E00080231360704700BF8C0300208C01002021
:1007F00010B588B00DF1040C074C0FCCACE80F001D
:1008000094E807008CE80700002101A800F085FCAF
:10081000024B186008B010BD30400008880100206D
:1008200010B582B0002401940D4B1A6B42F40012F3
:100830001A631B6B03F400130193019B22460521ED
:100840000C2002F0F9FA0C2002F02EFB22460521C2
:100850000E2002F0F1FA0E2002F026FB02B010BDCD
:100860000038024000B587B000230293039304933D
:100870000593009301931548154A02604360836015
:100880004FF6FF72C26003614361836102F0D8FCDE
:1008900090B94FF48053029302A90C4802F009FD6D
:1008A00068B90023009301936946084802F080FD6F
:1008B00040B907B05DF804FBFFF714FEE9E7FFF766
:1008C00011FEEEE7FFF70EFEF3E700BFE0030020A6
:1008D000000001400268094B9A4200D0704782B084
:1008E00000230193064B5A6C42F001025A645B6C80
:1008F00003F001030193019B02B070470000014027
:100900000038024000F1080343604FF0FF3282607C
:10091000C3600361002303607047002303617047D5
:1009200043684B609A688A60516099600861036807
:1009300001330360704730B40D68B5F1FF3F11D04B
:1009400000F108031C465B681A68AA42FAD963687A
:100950004B6099608C6061600861036801330360DB
:1009600030BC70470469F2E70369416882688A60B5
:10097000416851605A68824206D0002202611A68BA
:10098000013A1A601868704782685A60F5E70000FB
:10099000084B1B681B6823B9074B4FF0FF321A60E6
:1009A0007047044B1B68DB68DB685A68024B1A60AF
:1009B000704700BF2C040020000500202DE9F047FF
:1009C00007469846089DDDF824900A9C266B02F1A4
:1009D0008042013A06EB820626F00706C1B30846BC
:1009E0004FF0000CBCF10F0F09D810F80C2004EBED
:1009F0000C0383F8342012B10CF1010CF2E7002350
:100A000084F84330062D00D90625E56265644FF071
:100A1000000AC4F848A0201DFFF77FFF04F118006A
:100A2000FFF77BFF2461C5F10705A5616462C4F887
:100A30004CA084F850A042463946304600F006FDEE
:100A40002060B9F1000F01D0C9F80040BDE8F0877F
:100A5000002384F83430D5E738B5002407E004EBF0
:100A6000840293000E481844FFF74CFF0134062C13
:100A7000F5D90C4D2846FFF745FF0B4C2046FFF7F4
:100A800041FF0A48FFF73EFF0948FFF73BFF0948CF
:100A9000FFF738FF084B1D60084B1C6038BD00BFD6
:100AA00034040020D4040020E80400200C050020B9
:100AB00038050020240500202C04002030040020EC
:100AC00010B5044600F0EEFC214A136801331360B0
:100AD000204B1B685BB1204B1B686BB91D4B1B681F
:100AE000DA6AE36A9A4207D81A4B1C6004E0194B91
:100AF0001C601368012B28D0184A13680133136057
:100B0000E06A01238340164A11680B43136000EB2F
:100B10008000211D134B03EB8000FFF701FF00F065
:100B2000E3FC0D4B1B687BB10A4B1B68DA6AE36A76
:100B30009A4209D24FF0E0234FF08052C3F8042DBF
:100B4000BFF34F8FBFF36F8F10BDFFF785FFD3E764
:100B5000C00400202804002020050020CC04002030
:100B6000D00400203404002010B5044690F8513021
:100B700063B1012B11D0022B0ED04FF0500383F341
:100B80001188BFF36F8FBFF34F8FFEE7006B00F04C
:100B9000E1FB204600F0DEFB10BD00F0DBFBFBE7D5
:100BA0000F4B1B68D3B110B500F07CFC0D4BDB681C
:100BB000DC68201DFFF7D8FE0B4A1368013B136069
:100BC000074A1368013B136000F08EFC2046FFF7D4
:100BD000CBFF034B1B68002BE6D110BD704700BF55
:100BE000C404002038050020C004002008B5FFF729
:100BF000D7FF074B1B68012BF9D94FF0E0234FF0CB
:100C00008052C3F8042DBFF34F8FBFF36F8FEEE711
:100C10003404002070B504460D461D4B1E681D4B64
:100C200018680430FFF7A0FE48B91A4B1B68DB6A4E
:100C300001229A4018490B6823EA02030B60B4F1C1
:100C4000FF3F0DD03444134B1B685C60A64210D9A3
:100C5000124B18680F4B19680431FFF76CFE70BD1A
:100C6000002DEFD00B4B196804310D48FFF758FEEB
:100C7000F5E70C4B1868074B19680431FFF75BFE6A
:100C8000094B1B68A342EAD9074B1C60E7E700BF8A
:100C90004C05002028040020D0040020300400204F
:100CA000240500202C0400200005002030B587B06A
:100CB0000B9C7CB10C9DB5B154250495049D542D1D
:100CC0001AD04FF0500383F31188BFF36F8FBFF337
:100CD0004F8FFEE74FF0500383F31188BFF36F8F00
:100CE000BFF34F8FFEE74FF0500383F31188BFF33C
:100CF0006F8FBFF34F8FFEE7049D0C9D2C63022482
:100D000085F8514000240394029505AC01940A9C97
:100D10000094FFF753FE0C98FFF7D2FE059807B03A
:100D200030BD2DE9F04385B00746884614461E467F
:100D3000900000F091FA00B38146542000F08CFA44
:100D40000546B0B1C0F83090E5B1002385F85130C8
:100D5000039302950D9B01930C9B0093334622460F
:100D600041463846FFF72AFE2846FFF7A9FE012034
:100D700005E0484600F0EEFAE6E74FF0FF3005B038
:100D8000BDE8F0834FF0FF30F9E7000010B588B000
:100D900000240594069407AA06A905A8FFF71CFDE0
:100DA000059B0293069B019300942346079A0E49E4
:100DB0000E48FFF77BFF0E4B186090B14FF05003C9
:100DC00083F31188BFF36F8FBFF34F8F094B4FF041
:100DD000FF321A60084B01221A60084B1C6000F0B9
:100DE000FBFB08B010BD00BF58400008ED0B000829
:100DF000FC04002000050020200500204C050020F8
:100E0000024A136801331360704700BFC804002012
:100E1000F8B53A4B1B68002B69D1394B1D68013579
:100E20001D60C5B9374B1B681B6843B14FF05003B9
:100E300083F31188BFF36F8FBFF34F8FFEE7314A03
:100E40001168314B186810601960304A136801331B
:100E50001360FFF79DFD2E4B1B68AB423DD9002769
:100E60002C4B1B68DB6A03EB83039A002A4B9B58CD
:100E7000012B00D90127294B1B68002B3CD00127EF
:100E80003AE001271F4B1B681B6843B31D4B1B68CF
:100E9000DB68DC6863689D4226D3261D3046FFF779
:100EA00063FDA36A1BB104F11800FFF75DFDE36A5F
:100EB00001229A401A49086802430A6003EB83033F
:100EC0009A00314614481044FFF72AFDE26A114B9C
:100ED0001B68DB6A9A42D4D2D4E70027D2E70C4BD6
:100EE0004FF0FF321A60BBE7094A1360B8E70D4ABA
:100EF00013680133136000273846F8BDC80400208A
:100F00004C0500202C0400203004002004050020A3
:100F10000005002028040020340400205005002093
:100F2000D00400200805002038B5354B1B6843B9B4
:100F30004FF0500383F31188BFF36F8FBFF34F8FD0
:100F4000FEE700F0AFFA2E4B1A68013A1A601B68F0
:100F5000002B4FD12B4B1B680BB900244BE0002416
:100F6000294B1B681BB3284BDB68DC6804F11800B5
:100F7000FFF7FAFC251D2846FFF7F6FCE06A01237F
:100F80008340224A11680B43136000EB800029461E
:100F90001F4B03EB8000FFF7C3FCE26A1D4B1B688D
:100FA000DB6A9A42DCD31C4B01221A60D8E70CB1F1
:100FB000FFF7EEFC194B1C6884B9174B1C68D4B1C1
:100FC0004FF0E0234FF08052C3F8042DBFF34F8F52
:100FD000BFF36F8F01240EE0013C07D0FFF718FF2D
:100FE0000028F9D00C4B01221A60F5E70B4B0022C8
:100FF0001A60E2E7002400F077FA204638BD00BF0F
:10100000C8040020C00400200C050020D0040020EB
:10101000340400202804002050050020080500208A
:1010200010B5A8B10446104B1B6843B14FF05003F4
:1010300083F31188BFF36F8FBFF34F8FFEE7FFF786
:10104000DFFE00212046FFF7E5FDFFF76DFF48B901
:101050004FF0E0234FF08052C3F8042DBFF34F8FC1
:10106000BFF36F8F10BD00BFC8040020204B1B686A
:101070001BB1204B01221A6070471E4B00221A60E0
:101080001D4B1B68B3FA83F3DBB2C3F11F0303EB01
:1010900083018A0019498A5842B94FF0500383F3FB
:1010A0001188BFF36F8FBFF34F8FFEE7134903EB38
:1010B000830082000A4450684068506003EB830C50
:1010C0004FEA8C0208321144884209D003EB8303B3
:1010D0009A000A4B13445B68DA68094B1A60704740
:1010E000406862469100054A0A445060EEE700BF3E
:1010F000C804002050050020D00400203404002043
:1011000028040020842801D0033070470020704755
:1011100008B5FFF73BFE002008BD2DE9F04387B07E
:101120000E464469C4B18569B5B14768D0F80080FE
:10113000D0F81090B0F90800FFF7E4FF0295019491
:10114000009033464A4641463846FFF7AFFD0590CA
:10115000059807B0BDE8F083446805680769B0F9F1
:101160000800FFF7CFFF05AB019300903346BAB2FA
:1011700029462046FFF7D5FD0128E9D00020E8E701
:1011800008B500B90120FFF74BFF002008BD0000A3
:10119000124A12F0070F1ED0D11D21F00701C1F530
:1011A000705313440A460E48026000214160134404
:1011B000083B23F007030B48036059601960991A34
:1011C00051601360084B1960084B1960084B4FF0D1
:1011D00000421A6070474FF47053E4E7580500204E
:1011E0006C41002054050020604100205C4100203B
:1011F00058410020164B1A461B688342FBD35168A6
:1012000002EB010C844509D0416800EB010C6345F9
:1012100009D00360904219D01060704740680144C3
:1012200051601046F0E710B40A4C2468A3420BD07A
:101230005B681944416013681B680360904200D0EA
:1012400010605DF8044B70470460F7E7704700BF1B
:101250006C4100205405002070B50546FFF7D0FD15
:10126000364B1B68A3B1364B1B681D424ED135B1BE
:10127000083515F0070F02D025F007050835002DB9
:1012800046D0304B1B68AB4251D32F4A146804E060
:10129000FFF77EFFE7E722461C466368AB4202D2B7
:1012A0002368002BF7D1254B1B68A34241D0166859
:1012B00008362368136063685B1B102B10D9601914
:1012C00010F0070F08D04FF0500383F31188BFF3DD
:1012D0006F8FBFF34F8FFEE743606560FFF78AFFB4
:1012E000626818490B689B1A0B60184909688B42A1
:1012F00001D216490B60124B1B6813436360002335
:101300002360134A13680133136002E0002600E0F3
:101310000026FFF709FE16F0070F0CD04FF0500320
:1013200083F31188BFF36F8FBFF34F8FFEE7002663
:10133000EFE70026EDE7304670BD00BF5405002002
:10134000584100205C4100206C4100206041002099
:1013500064410020002834D038B50446A0F10805C7
:1013600050F8043C174A1268134208D14FF050035A
:1013700083F31188BFF36F8FBFF34F8FFEE750F8F1
:10138000081C41B14FF0500383F31188BFF36F8FF6
:10139000BFF34F8FFEE723EA020340F8043CFFF758
:1013A0002FFD54F8041C084A13680B4413602846A8
:1013B000FFF720FF054A136801331360FFF7B4FD00
:1013C00038BD7047584100205C4100206841002032
:1013D00082B0002301930D4B1B68B3F1FF3F08D08F
:1013E0004FF0500383F31188BFF36F8FBFF34F8F1C
:1013F000FEE74FF0500383F31188BFF36F8FBFF305
:101400004F8F019B002BFCD002B0704700000020E2
:1014100008480068006880F308884FF0000080F3F7
:10142000148862B661B6BFF34F8FBFF36F8F00DFD2
:1014300000BF000008ED00E0DFF80C00016841F497
:10144000700101607047000088ED00E04FF080738C
:1014500040F8043C21F0010140F8081C054B40F81D
:101460000C3C40F8202C6FF0020340F8243C443838
:10147000704700BFD113000800000000000000000A
:10148000074B19680868B0E8F04F80F30988BFF38C
:101490006F8F4FF0000080F311887047AFF300802A
:1014A000280400204FF0500383F31188BFF36F8F9F
:1014B000BFF34F8F0B4A136801331360012B00D029
:1014C00070474FF0E023D3F8043D13F0FF0FF7D03F
:1014D0004FF0500383F31188BFF36F8FBFF34F8F2B
:1014E000FEE700BF00000020094B1B6843B94FF026
:1014F000500383F31188BFF36F8FBFF34F8FFEE765
:10150000013B034A13600BB983F31188704700BF96
:1015100000000020000000000000000000000000AB
:10152000EFF30980BFF36F8F154B1A681EF0100F91
:1015300008BF20ED108A20E9F04F10602DE9090066
:101540004FF0500080F31188BFF34F8FBFF36F8FC0
:10155000FFF78CFD4FF0000080F3118809BC19687B
:101560000868B0E8F04F1EF0100F08BFB0EC108A0A
:1015700080F30988BFF36F8F704700BFAFF300801F
:101580002804002008B54FF0500383F31188BFF3FF
:101590006F8FBFF34F8FFFF73BFC28B14FF0E02375
:1015A0004FF08052C3F8042D002383F3118808BD47
:1015B0004FF0E022002313619361054B1B6805493E
:1015C000A1FB03139B09013B536107231361704780
:1015D0000C000020D34D62104FF0E023D3F8002D13
:1015E0003D4B9A421CD04FF0E023D3F8002D3B4BEB
:1015F0009A421ED030B583B0394B1A78D2B20192DC
:10160000FF221A701B78DBB28DF803309DF803308F
:1016100003F05003334A1370334B07221A601BE068
:101620004FF0500383F31188BFF36F8FBFF34F8FD9
:10163000FEE74FF0500383F31188BFF36F8FBFF3C2
:101640004F8FFEE7284A1368013B13609DF8033073
:101650005B00DBB28DF803309DF8033013F0800F90
:10166000F0D1214B1B68032B08D04FF0500383F3BC
:101670001188BFF36F8FBFF34F8FFEE71B021A4A2B
:10168000136003F4E0631360019BDBB2144A137030
:101690004FF0E024D4F8203D43F47003C4F8203D1B
:1016A000D4F8203D43F07043C4F8203DFFF780FF9D
:1016B00000250E4B1D60FFF7BFFED4F8343F43F00A
:1016C0004043C4F8343FFFF7A3FEFFF7CFFCFFF71A
:1016D0007FFE284603B030BD71C20F4170C20F417A
:1016E00000E400E074410020784100200000002068
:1016F0000E4B1B78C3B982B00C4B01221A700C4BF5
:101700005B680193019A0B4B1B689A4203D20A4A09
:10171000136801331360064B5A68064B1A60034B7B
:1017200000221A7002B07047704700BF904100203D
:10173000001000E0884100208C41002008B5124ACA
:10174000D2F8FC3043F08073C2F8FC300F4B00211C
:1017500059601A6842F001021A600D4B03FB00F059
:101760000C4B18600C4BA3FB00239B090B4A136026
:101770000B4BA3FB0030800C0A4B18600A4B19601E
:10178000FFF7B6FF08BD00BF00ED00E0001000E06D
:1017900040420F007C410020D34D62108041002068
:1017A00083DE1B43844100208C4100200A4B596892
:1017B000094B5B685B1A094AD2ED007AF8EE677A4A
:1017C00067EE807A07EE103AB8EE477AB4EEE77A21
:1017D000F1EE10FAECD47047001000E07C410020DC
:1017E00008B507EE900AF8EE677A9FED030A87EED8
:1017F000800AFFF7DBFF08BD00007A4408B500232C
:1018000001E00133DBB20C4A12789A4213D90B4A39
:1018100052F8232011688142F3D190F81CE05168FE
:101820004FEA910C012101FA0CF18E45E9D153697F
:101830000BB11046984708BD91410020944100200B
:1018400010B5044690F800210146D0F8040102F0DA
:1018500071FAD4F80431DB6B1A68136823F00803BB
:10186000136010BD38B505464FF4867002F0CEFA0D
:1018700004464FF48672002102F07CFB6B68C4F8CA
:1018800004312B7884F80031AB68C4F80831064A7B
:101890001378591C1170054A42F823402046FFF77F
:1018A000CFFF204638BD00BFD4410020D8410020E2
:1018B00008B50A4601230146014801F02AFF08BD88
:1018C0004001002038B50C46002301E00133DBB2B3
:1018D000104A92F800C09C451BD91D460E4A52F88A
:1018E0002320D2F804118142F0D1D2F808313BB163
:1018F000984722460021084B53F8250002F03AFB96
:10190000054B53F8251091F80021D1F8040102F09D
:1019100011FA38BDD4410020D841002010B54FF055
:10192000000C4FF0FF0E72460BE010F80C305340E5
:10193000064AD25C82EA0E02054C14F803E00CF170
:10194000010C6145F1DC4EEA022010BD6040000848
:101950006041000884460020034604E01CF8032090
:101960001044C0B201338B42F8D370472DE9F041E7
:101970008F1D50380F2822D8DFE800F00E082353BF
:10198000292F34393E4348212121214D01240325AB
:101990004FF04008342603E000240425A0463026FA
:1019A000032A44D055B16A00294800EB460002F0F2
:1019B00025FB284B1B68294630469847D4BBBDE819
:1019C000F08100240425A04637260322E8E70024FE
:1019D0000425A0463A260322E2E700240425A04677
:1019E0004126DDE700240425A0464526D8E700244B
:1019F0000425A0464926D3E700240425A0464D2609
:101A0000CEE700240425A0465126C9E7002404257A
:101A1000A0465526C4E7104B1E6800240425A046A6
:101A2000BEE7012403254FF02E083D26B8E71546F2
:101A30000024B8E762003946054800EB480002F090
:101A4000DDFA044B1B68214640469847B7E700BFC4
:101A5000F8410020F04100201C44002018B1034A46
:101A60001060002070476FF005007047F4410020BF
:101A7000F0B583B0514B1E6866B3514B1D68691CAD
:101A80001960504B5855504B1B68012B4ED016D83F
:101A9000DBB94C4B1B78552B1ED10A2915D9494C63
:101AA0000A212046FFF756FFA37A83421CD0444BFD
:101AB0001D6020462A46611C02F0A0FA0AE0023BA3
:101AC000012B02D83E4B00221A603D4B1B68B3F538
:101AD000807F6FD003B0F0BD394B1D6039482A4676
:101AE000411C02F08BFAF5E7364BD9789A7842EA36
:101AF0000122ADF8002059791A7942EA0122ADF8A5
:101B00000220D9799A7942EA0122ADF80420597A63
:101B10001A7A42EA0122ADF8062004226946587872
:101B2000FFF724FF264B00221A60CEE70229CCD90A
:101B3000244B5B78032B26D1224B9F787B1D994247
:101B4000C8D38A1E1F4B9A5C40EA0224023989B22C
:101B50001846FFF7E3FE84421DD179080C460023A6
:101B6000A34220D25A00D51C1648455D0432805C41
:101B7000164A12681A4440EA0520154D25F812004D
:101B800001339BB2ECE70E4B1D600E482A46411C08
:101B900002F034FA9EE70A4B1D600A482A46411CAF
:101BA00002F02CFA96E7094B1868B047044B002264
:101BB0001A608AE7024B00221A608BE7F04100208E
:101BC0002044002018430020184400201C4400201A
:101BD000F841002018B1034A1060002070476FF0F0
:101BE00005007047F04100208F286FD810B582B0F3
:101BF0000B463F4A1268032A6BD8DFE802F002194D
:101C00003B523C4A1268002A66D0FF218DF8001032
:101C1000AA218DF801108DF802008DF803301B0AFF
:101C20008DF80430052168469047002002B010BDB1
:101C3000304A1468002C52D02F4A12788DF80020B8
:101C400006218DF80110020A8DF802208DF803009C
:101C50001A0A8DF804208DF805306846FFF75EFEFD
:101C6000030A8DF806308DF8070008216846A04762
:101C70000020DBE7214A1468A4B3FF228DF800207E
:101C8000AA228DF801208DF802008DF803301B0A7E
:101C90008DF8043005226946174B1878A0470020BC
:101CA000C4E7174A146804B38DF800301B0A8DF896
:101CB0000130114B93F800C04FEA4C0C02236A46E6
:101CC000C1B20CF0FE00A0470020AFE76FF00500A6
:101CD00070476FF00500A9E76FF00400A6E76FF00A
:101CE0000400A3E76FF00400A0E76FF004009DE795
:101CF00018440020F441002004000020E4410020AA
:101D0000EC410020032807D8054B1860054B1970DB
:101D10000020054B186070476FF00500704700BF4A
:101D200018440020040000202044002018B1034A79
:101D30001060002070476FF005007047E8410020F8
:101D4000884203DB904203DD00207047002070478B
:101D50000120704708B54BF288516920FFF744FF16
:101D600098B90D4B1B68012B05D043B90B4B1B6871
:101D70000120984703E0094B1B6814209847012174
:101D80000846FFF731FF18B908BD6FF00200FBE706
:101D90006FF00200F8E700BF18440020E84100207F
:101DA00008B54BF288516920FFF71EFF90B90B4B25
:101DB0001B68012B05D043B9094B1B6801209847CC
:101DC00003E0074B1B6814209847FF210020FFF712
:101DD0000BFF08B16FF0020008BD00BF18440020DF
:101DE000E841002010B504460722012100B2FFF7A8
:101DF000A7FFC8B14BF288516920FFF7F5FEB0B9D3
:101E00000E4B1B68012B05D043B90D4B1B680120FD
:101E1000984703E00A4B1B6814209847A1B204209E
:101E2000FFF7E2FE30B910BD6FF00500FBE76FF081
:101E30000200F8E76FF00200F5E700BF1844002049
:101E4000E841002037283CD03D2865D034281BD0FD
:101E5000704703F13400334A32F9102007EE902A1C
:101E6000F8EEE77A9FED307A67EE877AB3EE007A84
:101E700067EE877A981C2D4A02EB8002C2ED027A47
:101E800001338B42E5D370470023FAE703F13700B3
:101E9000244A32F9102007EE902AF8EEE77A9FEDF7
:101EA000227A67EE877A9FED227A67EE877A981D0D
:101EB0001E4A02EB8002C2ED017A01338B42E5D368
:101EC00070470023FAE703F13D00164A32F910206B
:101ED00007EE902AF8EEE77A9FED137A67EE877A9D
:101EE0009FED147A67EE877A104A02EB8302C2ED07
:101EF000017A01338B42E6D30C4BD3ED037AF5EE36
:101F0000C07AF1EE10FA09DD9FED0B7A77EE677A71
:101F1000064BC3ED037A9BE70023EBE7F1EE677A0C
:101F2000F6E700BFF84100200000003828440020F8
:101F30000000FA44000034430000B44310B500240C
:101F400005E0044B1B68185DFFF792FD0134202C5F
:101F5000F7DD10BD2844002030B585B00546124B92
:101F60000393124B029321238DF8043001A8FFF74D
:101F700079FC0F4C44F8040B50210020FFF7C2FEFF
:101F80000C48FFF76BFD0C48FFF7D0FE0B48FFF73E
:101F900021FE2846FFF726FFFFF7DCFE6420FFF74F
:101FA0001FFC204605B030BD3D1F00084001002049
:101FB00028440020B1180008E1170008451E000859
:101FC00010B5A820FFF7BAFB0620FFF7C5FF054CA8
:101FD0002060FFF7E5FEB0EE000AFFF7E7FB2046C2
:101FE00010BD00BF2444002010B503460C4A0D4923
:101FF0000D48006840B10C4800680344521A9342EF
:1020000006D8094A136010BD0748084C0460F2E77F
:1020100001F0C8FF0C2303604FF0FF30F3E700BF6F
:10202000000002200004000060440020F845002069
:1020300030B589B0044600230193214B1A6C42F459
:1020400080721A641B6C03F480730193019B02A9D4
:1020500003A800F065FB069BCBB900F041FB0346EB
:10206000184AA2FB03239B0C013B1748174A026046
:1020700040F2E732C2604360002303618360836102
:1020800001F0DEF8054630B1284609B030BD00F059
:1020900027FB4300E4E70C4800F070FF05460028EA
:1020A000F2D12D2000F000FF0F2C01D90125EBE724
:1020B000002221462D2000F0BFFE054B1C60E3E707
:1020C0000038024083DE1B436444002000200040AF
:1020D00008000020002800F0E08170B582B00446BE
:1020E000036813F0010F3BD09F4B9B6803F00C0378
:1020F000042B2CD09C4B9B6803F00C03082B21D0A5
:102100006368B3F5803F4FD0B3F5A02F52D0964B04
:102110001A6822F480321A601A6822F480221A6047
:102120006368002B50D000F0F3FE05468E4B1B6811
:1021300013F4003F14D100F0EBFE401B6428F5D9E6
:102140000320B1E1884B5B6813F4800FD8D0864B35
:102150001B6813F4003F03D06368002B00F09F81DD
:10216000236813F0020F54D07F4B9B6813F00C0FC1
:102170003ED07D4B9B6803F00C03082B33D0E36803
:10218000002B68D0794B01221A6000F0C1FE054691
:10219000754B1B6813F0020F54D100F0B9FE401BC1
:1021A0000228F5D903207FE16F4A136843F4803396
:1021B0001360B5E76C4B1A6842F480221A601A6803
:1021C00042F480321A60ABE700F0A2FE0546664B8F
:1021D0001B6813F4003FC3D000F09AFE401B642834
:1021E000F5D9032060E1604B5B6813F4800FC6D122
:1021F0005D4B1B6813F0020F03D0E368012B40F026
:102200005081594A136823F0F803216943EAC10356
:102210001360236813F0080F42D063696BB3534B0C
:102220000122C3F8802E00F073FE05464E4B5B6F13
:1022300013F0020F34D100F06BFE401B0228F5D9D9
:10224000032031E1484A136823F0F803216943EA87
:10225000C1031360DDE7454B00221A6000F058FE11
:102260000546414B1B6813F0020FD2D000F050FE20
:10227000401B0228F5D9032016E13C4B0022C3F88D
:10228000802E00F045FE0546374B5B6F13F0020FC2
:1022900006D000F03DFE401B0228F5D9032003E1E3
:1022A000236813F0040F77D02F4B1B6C13F0805F63
:1022B00033D1002301932C4B1A6C42F080521A64E4
:1022C0001B6C03F080530193019B0125284B1B6875
:1022D00013F4807F23D0A368012B34D0052B38D092
:1022E000214B1A6F22F001021A671A6F22F00402C2
:1022F0001A67A368002B3DD000F00AFE06461A4B71
:102300001B6F13F0020F46D100F002FE801B41F25A
:1023100088339842F3D90320C6E00025D6E7144A53
:10232000136843F48073136000F0F2FD0646104B0F
:102330001B6813F4807FCED100F0EAFD801B0228D9
:10234000F5D90320B0E0084A136F43F00103136787
:10235000CFE7054B1A6F42F004021A671A6F42F07A
:1023600001021A67C5E700BF00380240000047427B
:102370000070004000F0CCFD0646524B1B6F13F07E
:10238000020F08D000F0C4FD801B41F28833984250
:10239000F3D9032088E0EDB9A369002B00F0838016
:1023A000484A926802F00C02082A51D0022B17D03A
:1023B000454B00221A6600F0ABFD0446414B1B68FA
:1023C00013F0007F42D000F0A3FD001B0228F5D9D6
:1023D000032069E03B4A136C23F080531364DBE76E
:1023E000394B00221A6600F093FD0546354B1B68F9
:1023F00013F0007F06D000F08BFD401B0228F5D9BA
:10240000032051E0E369226A1343626A43EA8213BC
:10241000A26A5208013A43EA0243E26A43EA0263CB
:10242000284A5360284B01221A6600F071FD0446C9
:10243000244B1B6813F0007F06D100F069FD001BE0
:102440000228F5D903202FE000202DE000202BE00A
:10245000012B2BD01B4B5B6803F48001E269914296
:1024600026D103F03F02216A8A4223D1616A47F6EE
:10247000C0721A40B2EB811F1ED103F44031A26A30
:102480005208013AB1EB024F18D103F07063E26ACF
:10249000B3EB026F14D1002006E001207047012049
:1024A00002E0012000E0002002B070BD0120FBE747
:1024B0000120F9E70120F7E70120F5E70120F3E724
:1024C0000120F1E7003802400000474208B5264BE2
:1024D0009B6803F00C03042B41D0082B41D1224B05
:1024E0005A6802F03F025B6813F4800F12D01E4B53
:1024F0005968C1F388111D480023A1FB0001FDF7B5
:1025000067FE194B5B68C3F3014301335B00B0FB0B
:10251000F3F027E0144B5868C0F388104FEA401CD2
:10252000BCEB000C6EEB0E0E4FEA8E1343EA9C637D
:102530004FEA8C11B1EB0C0163EB0E03DB0043EAB5
:102540005173C90011EB000C43F100039902002301
:102550004FEA8C2041EA9C51FDF73AFED1E703484F
:1025600000E0034808BD00BF0038024040787D010C
:102570000024F400002800F09B8070B50D4604464E
:102580004F4B1B6803F007038B4208D2CBB24C4A77
:102590001370136803F007038B4240F08B802368AD
:1025A00013F0020F17D013F0040F04D0454A9368BC
:1025B00043F4E0539360236813F0080F04D0414ABA
:1025C000936843F4604393603E4A936823F0F003BA
:1025D000A1680B439360236813F0010F32D0636846
:1025E000012B21D09A1E012A25D9364A126812F0F1
:1025F000020F61D033498A6822F0030213438B60D3
:1026000000F086FC06462F4B9B6803F00C036268C3
:10261000B3EB820F16D000F07BFC801B41F28833B5
:102620009842F0D9032042E0264A126812F4003F93
:10263000E0D101203BE0234A126812F0007FD9D19B
:10264000012034E01E4B1B6803F00703AB4207D99F
:10265000EAB21B4B1A701B6803F00703AB422DD183
:10266000236813F0040F06D0164A936823F4E0534E
:10267000E1680B439360236813F0080F07D0114AF9
:10268000936823F46043216943EAC1039360FFF731
:102690001DFF0C4B9B68C3F303130B4AD35CD8405C
:1026A0000A4B18600A4B1868FFF7C2FC002070BD87
:1026B000012070470120FAE70120F8E70120F6E742
:1026C000003C024000380240684200080C00002034
:1026D00008000020014B1868704700BF0C00002064
:1026E00008B5FFF7F7FF044B9B68C3F38223034A47
:1026F000D35CD84008BD00BF0038024078420008D3
:1027000008B5FFF7E7FF044B9B68C3F34233034A66
:10271000D35CD84008BD00BF0038024078420008B2
:102720000F2303600B4B9A6802F0030242609A6821
:1027300002F0F00282609A6802F4E052C2609B6884
:10274000DB0803F4E0530361034B1B6803F007034A
:102750000B60704700380240003C024000230F2B02
:1027600000F2E98070B582B065E085684FEA430EFB
:10277000032404FA0EF425EA0405CC6804FA0EF4E6
:102780002C438460446824EA02044A68C2F30012BD
:102790009A40224342605CE0DC08083450F8242070
:1027A00003F00705AD004FF00F0E0EFA05FE22EA0A
:1027B0000E0E0A69AA4042EA0E0240F824205CE0AC
:1027C000072200E0002202FA0EF22A4302345A4D98
:1027D00045F82420594A94686FEA0C0224EA0C0553
:1027E0004E6816F4801F01D04CEA0405534CA560D6
:1027F000E46802EA04054E6816F4001F01D04CEAB2
:1028000004054E4CE560646802EA04054E6816F45F
:10281000003F01D04CEA0405484C65602468224022
:102820004D6815F4803F01D04CEA0402434C22600D
:1028300001330F2B7DD801229A400C6804EA020C68
:1028400032EA0404F4D14C6804F00304013C012C86
:102850008BD94A6802F00302032A09D0C4685D00DC
:102860000322AA4024EA02048A68AA402243C260E2
:102870004A6802F00302022A8ED004684FEA430E2F
:10288000032202FA0EF224EA02044A6802F003026A
:1028900002FA0EF2224302604A6812F4403FC7D0A7
:1028A00000220192264A546C44F480445464526CD1
:1028B00002F480420192019A9C08A51C1E4A52F81B
:1028C000255003F0030E4FEA8E0E0F2202FA0EF28D
:1028D00025EA02051B4A90423FF474AF02F580627C
:1028E00090421AD002F58062904218D002F58062C0
:1028F000904216D002F58062904214D002F58062B8
:10290000904212D002F58062904210D002F58062AF
:1029100090423FF455AF082255E7012253E70222C7
:1029200051E703224FE704224DE705224BE7062239
:1029300049E702B070BD704700380140003C0140DB
:10294000003802400000024030B405682C6824F4CE
:1029500080242C60046863608368402B05D0036882
:1029600099600368DA6030BC704703689A60036856
:10297000D960F8E710B40368D9B210390C4AA2FB49
:10298000014212090B4CA25CC2655F2909D923F4EC
:102990007F7323F0030304338365806D5DF8044B7C
:1029A000704723F47F7323F003038365F5E700BFCB
:1029B000ABAAAAAA60420008836A826992B9012B75
:1029C0000AD0022B02D00BB100207047C36A13F06B
:1029D000807F28D100207047C36AB3F1C07F24D024
:1029E00000207047B2F5005F09D0022B25D9032BD8
:1029F00025D1C36A13F0807F23D100207047032BB9
:102A000003D8DFE803F01404140A00207047C36AF7
:102A100013F0807F0DD100207047C36AB3F1C07FEF
:102A200009D0002070470120704701207047012025
:102A30007047012070470120704701207047002037
:102A4000704701207047000070B5044600F060FA3E
:102A5000002C5BD00546022384F83530002384F82F
:102A600034302268136823F00103136023681A6866
:102A700012F0010F0AD000F04BFA431B052BF5D9D9
:102A800020236365032084F8350070BD1A6820494F
:102A900011406268A0680243E06802432069024373
:102AA00060690243A0690243E0690243206A02436D
:102AB0000A43616A04291ED01A602668756925F0E8
:102AC0000705636A1D43042B07D1A36A1D43E36A0C
:102AD0001BB12046FFF770FF90B975612046FFF7E4
:102AE00049FFE26D3F23934083600020606501232E
:102AF00084F83530C9E7E16A206B01430A43DBE71C
:102B000040236365012084F83500BEE70120BCE75F
:102B10003F8010F038B50446856D90F834000128E8
:102B20002BD0012084F8340094F83500C0B201287D
:102B300004D0002384F83430022038BD022084F809
:102B40003500002060652046FFF7FEFEE26D3F2362
:102B50009340AB602268136843F016031360236C44
:102B600023B12268136843F00803136022681368D6
:102B700043F0010313600020DFE70220DDE770B5BA
:102B80000446866D00F0C4F994F83530DBB2022BB0
:102B900006D080236365002384F83430012070BDA3
:102BA00005462268136823F01603136022685369F0
:102BB00023F080035361236CE3B12268136823F090
:102BC000080313602268136823F00103136023686D
:102BD0001B6813F0010F11D000F09AF9431B052B6D
:102BE000F5D920236365032084F83500002384F899
:102BF0003430D4E7A36C002BDFD1E3E7E26D3F2351
:102C00009340B360012384F83530002084F8340009
:102C1000C5E790F83530DBB2022B03D08023436543
:102C200001207047052380F835300268136823F0CF
:102C30000103136000207047F0B583B00446002301
:102C40000193724B1D68724BA3FB0535AD0A876D6E
:102C50003E68C26D08239340334210D003681A685F
:102C600012F0040F0BD01A6822F004021A60C26D31
:102C700008239340BB60436D43F001034365E26D5D
:102C800001239340334209D02268526912F0800F29
:102C900004D0BB60636D43F002036365E26D0423FF
:102CA0009340334209D02268126812F0020F04D018
:102CB000BB60636D43F004036365E26D10239340D2
:102CC000334224D02268126812F0080F1FD0BB6074
:102CD00023681A6812F4802F0DD01B6813F4002F9C
:102CE00004D1236C9BB12046984710E0A36C73B1CC
:102CF000204698470BE01A6812F4807F03D11A68C7
:102D000022F008021A60236C0BB120469847E26D4E
:102D100020239340334255D02268126812F0100FDE
:102D200050D0BB6094F83530DBB2052B0ED0236851
:102D30001A6812F4802F33D01B6813F4002F2AD1A5
:102D4000636C002B3ED0204698473BE02268136816
:102D500023F0160313602268536923F08003536144
:102D6000236CA3B12268136823F008031360E26D9B
:102D70003F239340BB60012384F83530002384F85F
:102D80003430236D002B3FD0204698473CE0A36CA5
:102D9000002BE7D1EBE7E36BA3B12046984711E0A6
:102DA0001A6812F4807F09D11A6822F010021A60A2
:102DB000012384F83530002384F83430E36B0BB101
:102DC00020469847636DFBB1636D13F0010F17D078
:102DD000052384F835302268136823F0010313605B
:102DE000019B01330193AB4204D823681B6813F0A5
:102DF000010FF5D1012384F83530002384F83430F5
:102E0000E36C0BB12046984703B0F0BD0C000020E6
:102E1000B5814E1B074AD36823F4E0631B041B0CE7
:102E2000000200F4E060034343F0BF6343F4003367
:102E3000D360704700ED00E000B5194BDB68C3F3C9
:102E40000223C3F1070CBCF1040F28BF4FF0040CA0
:102E500003F1040EBEF1060F18D9033B4FF0FF3EFD
:102E60000EFA0CFC21EA0C0199400EFA03FE22EA4C
:102E70000E020A4300280BDB1201D2B200F16040BF
:102E800000F5614080F800235DF804FB0023E5E7CE
:102E900000F00F001201D2B2024B1A54F4E700BF47
:102EA00000ED00E014ED00E0002807DB00F01F0259
:102EB000400901239340024A42F82030704700BF86
:102EC00000E100E008B50B4B1A6842F400721A608A
:102ED0001A6842F480621A601A6842F480721A60BA
:102EE0000320FFF797FF0020FFF7A2F8FDF74CFC47
:102EF000002008BD003C0240034A1168034B1B78C8
:102F00000B441360704700BFAC4400200500002054
:102F1000014B1868704700BFAC44002010B4036A2E
:102F2000046A24F001040462846924F0F00C4CEA81
:102F3000021223F00A030B43826103625DF8044B23
:102F4000704710B4036A046A24F0100404628469B0
:102F500024F4704C4CEA023223F0A00343EA01133C
:102F6000826103625DF8044B7047836823F070034D
:102F70000B4343F0070383607047000090F83D3037
:102F8000DBB2012B37D1022380F83D300268D368D1
:102F900043F00103D3600368194A934220D0B3F190
:102FA000804F1DD0A2F57C42934219D002F5806279
:102FB000934215D002F58062934211D002F5784217
:102FC00093420DD002F57052934209D0A2F594328B
:102FD000934205D01A6842F001021A60002070473F
:102FE0009A6802F00702062A07D01A6842F0010226
:102FF0001A6000207047012070470020704700BF12
:103000000000014070477047704770B50446036880
:10301000DE681D6915F0020F10D016F0020F0DD0FA
:103020006FF002021A610123037703689B6913F0B2
:10303000030F5ED0FFF7E7FF0023237715F0040F9F
:1030400012D016F0040F0FD023686FF004021A613B
:103050000223237723689B6913F4407F4FD02046D7
:10306000FFF7D1FF0023237715F0080F12D016F0D9
:10307000080F0FD023686FF008021A61042323772A
:103080002368DB6913F0030F40D02046FFF7BBFF36
:103090000023237715F0100F12D016F0100F0FD069
:1030A00023686FF010021A61082323772368DB6915
:1030B00013F4407F31D02046FFF7A5FF002323778C
:1030C00015F0010F02D016F0010F2DD115F0800F71
:1030D00002D016F0800F2FD115F0400F02D016F05D
:1030E000400F31D115F0200F02D016F0200F33D150
:1030F00070BDFFF787FF2046FEF780FB9CE7204668
:10310000FFF780FF2046FEF779FBABE72046FFF78D
:1031100079FF2046FEF772FBBAE72046FFF772FF01
:103120002046FEF76BFBC9E723686FF001021A61C6
:103130002046FDF7CBF9C9E723686FF080021A61DA
:10314000204600F07CF9C7E723686FF040021A615F
:103150002046FFF759FFC5E723686FF020021A6188
:10316000204600F06BF9C3E70368344A904212D05E
:10317000B0F1804F0FD0A2F57C4290420BD002F507
:103180008062904207D002F58062904203D002F53F
:103190007842904203D123F070034A681343274AD0
:1031A00090422AD0B0F1804F27D0A2F57C429042C5
:1031B00023D002F5806290421FD002F580629042D7
:1031C0001BD002F57842904217D002F5705290421F
:1031D00013D002F5806290420FD002F580629042D7
:1031E0000BD0A2F59832904207D002F5806290424F
:1031F00003D002F58062904203D123F44073CA6881
:10320000134323F080034A69134303608B68C3624E
:103210000B688362094B984203D003F580639842A0
:1032200001D10B69036301234361036913F0010FAB
:1032300003D0036923F001030361704700000140DC
:1032400040B310B5044690F83D30F3B1022384F842
:103250003D30214651F8040BFFF786FF012384F827
:10326000463084F83E3084F83F3084F8403084F8AB
:10327000413084F8423084F8433084F8443084F894
:10328000453084F83D30002010BD80F83C30FDF71B
:1032900021FBDBE70120704710B4846824F47F4CE5
:1032A00042EA03220A4342EA0C0282605DF8044BC0
:1032B000704790F83C30012B78D010B504460123BC
:1032C00080F83C30022380F83D300268936823F494
:1032D0007F4323F0770393600B68602B4CD029D891
:1032E000402B54D00CD9502B22D1CA6849680068B1
:1032F000FFF714FE50212068FFF737FE002005E09D
:10330000202B0DD009D9302B0AD00120012384F8BD
:103310003D30002384F83C3010BD0BB1102B05D19B
:1033200019462068FFF721FE0020EFE70120EDE7B6
:103330000120EBE7B3F5805F34D0B3F5005F0CD12B
:10334000CB684A6889680068FFF7A6FF226893681F
:1033500043F4804393600020D8E7702B24D1CB68DE
:103360004A6889680068FFF797FF2268936843F00E
:10337000770393600020C9E7CA6849680068FFF7CF
:10338000E0FD60212068FFF7F0FD0020BEE7CA687D
:1033900049680068FFF7C2FD40212068FFF7E5FD9E
:1033A0000020B3E70020B1E70120AFE7022070471B
:1033B00090F83C20012A3DD010B40346012280F849
:1033C0003C20022280F83D2002685068946820F07A
:1033D000700C086840EA0C0050601A681648824277
:1033E0001AD0B2F1804F17D0A0F57C40824213D0A2
:1033F00000F5806082420FD000F5806082420BD0E1
:1034000000F57840824207D000F57050824203D028
:10341000A0F59430824204D124F08004496821430D
:103420009160012283F83D20002083F83C005DF884
:10343000044B7047022070470000014070477047FE
:10344000026802F10C0353E8003F23F0C0030C3282
:1034500042E800310029F3D1202380F84130704741
:10346000026802F10C0353E8003F23F490730C321E
:1034700042E800310029F3D1026802F1140353E855
:10348000003F23F00103143242E800310029F3D158
:10349000036B012B05D0202380F842300023036307
:1034A0007047026802F10C0353E8003F23F0100359
:1034B0000C3242E800310029F3D1ECE790F84130BA
:1034C000DBB2212B01D0022070478368B3F5805F07
:1034D00017D0036A5A1C02621A7803685A60C38CB8
:1034E0009BB2013B9BB2C3844BB90268D36823F003
:1034F0008003D3600268D36843F04003D3600020A8
:1035000070470369002BE4D1036A1B880268C3F388
:1035100008035360036A02330362E0E710B5044610
:103520000268136923F44053C1680B431361836835
:1035300002691A4343691A43C3691A430168CB6895
:1035400023F4164323F00C031343CB600268536942
:1035500023F4407381690B4353610368314A9342FA
:1035600006D002F58062934202D0FFF7B9F801E07D
:10357000FFF7C6F8E369B3F5004F29D0002103181F
:1035800049411B1841F10001C90041EA5371DB00B8
:10359000181863684FEA83024FEA937341F1000100
:1035A000FCF716FE204AA2FB00314909642303FB05
:1035B00011031B013233A2FB03235B0903F0F0026A
:1035C00002EB011203F00F03216813448B6010BD5E
:1035D0000023021843EB0301121841F10001C90056
:1035E00041EA5271D200101841F10001626892184C
:1035F0005B41FCF7EDFD0C4AA2FB00314909642355
:1036000003FB1103DB003233A2FB03235B095A00E7
:1036100002F4F87202EB011203F00703216813446D
:103620008B60D4E7001001401F85EB512DE9F0437A
:1036300083B005460E4617469946DDF828802B686C
:103640001C6836EA04040CBF01240024BC4228D1C3
:10365000B8F1FF3FF3D0FFF75BFCA0EB090040455A
:1036600023D8B8F1000F22D02B68DA6812F0040FCB
:10367000E5D0802EE3D0402EE1D01A6812F0080F7A
:10368000DDD0002401941A6801925B680193019BCC
:103690002846FFF7E5FE08236B6485F840400120CB
:1036A00000E0002003B0BDE8F0830320FAE7032028
:1036B000F8E760B310B5044690F8413013B3242303
:1036C00084F841302268D36823F40053D360204645
:1036D000FFF724FF2268136923F4904313612268E3
:1036E000536923F02A0353612268D36843F40053DB
:1036F000D36000206064202384F8413084F8423095
:10370000606310BD80F84030FCF79CFFD7E70120D4
:1037100070472DE9F04182B01E4690F84130DBB28F
:10372000202B56D104460D469046002955D00AB9A3
:1037300001204FE000234364212380F84130FFF74C
:10374000E7FB0746A4F82480A4F82680A368B3F515
:10375000805F02D04FF0000814E023692BB34FF0D4
:1037600000080FE0202384F84130032032E038F8CD
:10377000023B2268C3F308035360E28C92B2013A21
:1037800092B2E284E38C9BB293B100963B46002256
:1037900080212046FFF74AFF0028E3D1002DE6D024
:1037A00015F8012B23685A60E7E7A8460025E9E7EA
:1037B00000963B46002240212046FFF737FF18B90C
:1037C000202384F8413005E0202384F84130032091
:1037D00000E0022002B0BDE8F0810120FAE7704766
:1037E00008B50168CA6822F04002CA60202280F849
:1037F0004120FFF7F4FF002008BD70477047704775
:1038000010B5846B23685A6994F84130DBB2212BE0
:1038100010D023685A6902F0400294F84230DBB2BB
:10382000222B11D0636C43F0100363642046FFF732
:10383000E6FF10BD02F08002002AEAD00023E384F4
:103840002046FFF7FDFDE4E7002AEBD00023E385E7
:103850002046FFF705FEE5E708B5806B0023C3852A
:10386000C384FFF7CCFF08BD90F84230DBB2222BB7
:1038700069D18368B3F5805F4FD0826AB3F5805F0A
:1038800004D0002B56D10369002B53D103685B6829
:103890001370836A01338362C38D9BB2013B9BB279
:1038A000C385002B51D100B583B00268D36823F0E3
:1038B0002003D3600268D36823F48073D360026866
:1038C000536923F001035361202380F84230002321
:1038D0004363036B012B33D100230363026802F1BE
:1038E0000C0353E8003F23F010030C3242E8003190
:1038F0000029F3D103681A6812F0100F06D00022D5
:1039000001921A6801925B680193019B818DFDF71A
:10391000D9FF002003B05DF804FB0269002AACD196
:10392000826A03685B68C3F308031380836A023307
:103930008362B1E703685B6803F07F031370A8E755
:10394000FFF75BFFE5E702207047002070470000AB
:1039500030B583B0044602681368D068516913F02B
:103960000F0505D113F0200F02D010F0200F19D150
:103970002DB111F0010119D110F4907F16D1216BF6
:1039800001297DD013F0800F03D010F0800F40F09C
:10399000198113F0400F03D010F0400F40F0168152
:1039A00003B030BD2046FFF75FFFF9E713F0010FCA
:1039B00006D010F4807F03D0626C42F00102626492
:1039C00013F0040F04D019B1626C42F00202626479
:1039D00013F0020F04D019B1626C42F00402626469
:1039E00013F0080F07D010F0200F00D119B1626C4E
:1039F00042F008026264626C002AD1D013F0200FFA
:103A000002D010F0200F29D123685B6903F0400336
:103A1000626C12F0080F00D163B32046FFF720FD5F
:103A200023685B6913F0400F20D0226802F1140371
:103A300053E8003F23F04003143242E800310029EC
:103A4000F3D1E36B73B1634A1A65E06BFFF7E1F8FA
:103A50000028A5D0E06B036D9847A1E72046FFF74B
:103A600003FFD1E72046FFF7CAFE99E72046FFF79C
:103A7000C6FE95E72046FFF7C2FE002363648FE78A
:103A800013F0100F3FF47EAF10F0100F3FF47AAF39
:103A9000002301931368019353680193019B5369B9
:103AA00013F0400F52D0E26B13685B689BB2002B9F
:103AB0003FF476AFA18D99427FF672AFE385D3696B
:103AC000B3F5807F37D0226802F10C0353E8003F42
:103AD00023F480730C3242E800310029F3D12268CC
:103AE00002F1140353E8003F23F00103143242E8CB
:103AF00000310029F3D1226802F1140353E8003F9A
:103B000023F04003143242E800310029F3D120238E
:103B100084F8423000232363226802F10C0353E847
:103B2000003F23F010030C3242E800310029F3D1AA
:103B3000E06BFFF724F802236363A18DE38D9BB252
:103B4000C91A89B22046FDF7BDFE29E7A18DE38D94
:103B50009BB2C91A89B2E38D9BB2002B3FF420AF10
:103B600000293FF41DAF226802F10C0353E8003F27
:103B700023F490730C3242E800300028F3D122681D
:103B800002F1140353E8003F23F00103143242E82A
:103B900000300028F3D1202384F84230002323632F
:103BA000226802F10C0353E8003F23F010030C32AB
:103BB00042E800300028F3D1022363632046FDF77A
:103BC00081FEEDE62046FFF779FCE9E62046FFF7A7
:103BD00007FEE5E65938000808B5806B012343630A
:103BE000036B012B02D0FFF709FE08BD818D490848
:103BF000FDF768FEF9E708B50346806B1B681B6894
:103C000013F4807F2BD10023C385026802F10C03DB
:103C100053E8003F23F480730C3242E8003100295E
:103C2000F3D1026802F1140353E8003F23F00103CB
:103C3000143242E800310029F3D1026802F1140382
:103C400053E8003F23F04003143242E800310029DA
:103C5000F3D1202380F84230036B012B07D00023DF
:103C60004363036B012B0FD0FFF7C7FD08BD02684C
:103C700002F10C0353E8003F23F010030C3242E83A
:103C800000310029F3D1EAE7818DFDF71BFEEDE756
:103C900030B583B0044613468162828500254564B1
:103CA000222280F84220C26B1F48D063E26B1F487B
:103CB0001064E26B1E48D064E26B156520680A460A
:103CC000011DE06BFEF726FF019523681A6801923B
:103CD0005B680193019B23695BB1226802F10C03CD
:103CE00053E8003F43F480730C3242E8003100296E
:103CF000F3D1226802F1140353E8003F43F00103BB
:103D0000143242E800310029F3D1226802F1140391
:103D100053E8003F43F04003143242E800310029E9
:103D2000F3D1002003B030BDF73B0008D93B0008B9
:103D30000138000890F84230DBB2202B29D110B5B1
:103D400082B0044639B312B9012002B010BD01237C
:103D5000036300234363FFF79BFF0028F5D1236B28
:103D6000012B01D00120F0E70023019323681A689A
:103D700001925B680193019B226802F10C0353E8F6
:103D8000003F43F010030C3242E800310029F3D128
:103D9000DBE7022070470120D7E70000054BD3F88E
:103DA000882042F47002C3F888204FF000629A60C5
:103DB000704700BF00ED00E0DFF834D0002103E0E1
:103DC0000C4B5B58435004310B480C4B42189A4241
:103DD000F6D30B4A02E0002342F8043B094B9A4217
:103DE000F9D3FFF7DBFF00F0E3F8FCF7D3FB7047F4
:103DF0000000022090420008000000206000002027
:103E000060000020F8450020FEE70000024B01465C
:103E1000186800F023B800BF5C00002070B50E4E9B
:103E20000C463168054611B900F0ACF83060214607
:103E3000284600F0A7F8431C0AD0C41C24F0030451
:103E4000A04207D0211A284600F09CF8013001D189
:103E50004FF0FF34204670BDB44400202DE9F843F4
:103E6000CD1C25F0030508350C2D38BF0C25002D81
:103E7000074601DBA94205D90C233B6000263046EA
:103E8000BDE8F883DFF8D08000F068F8D8F800309B
:103E90001C465CBB29463846FFF7C0FF431C04465E
:103EA00055D1D8F800402646002E45D1002C48D0E8
:103EB00023683146384604EB030900F063F8814576
:103EC0003FD121686D1A29463846FFF7A7FF013018
:103ED00037D023682B442360D8F80030002B38D02B
:103EE0005A68A2422BD100225A600FE02268521B6E
:103EF0001FD40B2A17D96119A342256018BF596036
:103F0000636808BFC8F8001062514B60384604F17E
:103F10000B0600F029F826F00706231DF21AAED092
:103F20009B1BA350ABE7A3426268DDD1C8F8002019
:103F3000ECE723466468ACE734467668B4E713469A
:103F4000CCE70C233B60384600F00EF897E725607D
:103F5000DCE75B60FFDE00BFB0440020014800F0FA
:103F60004BB800BFF4450020014800F046B800BF40
:103F7000F445002002440346934200D1704703F801
:103F8000011BF9E738B5064D0023044608462B60AF
:103F9000FEF72AF8431C02D12B6803B1236038BD19
:103FA000F0450020014B1868704700BF5C000020FE
:103FB00070B50D4D0D4C641BA4100026A64209D10E
:103FC0000B4D0C4C00F028F8641BA4100026A642F0
:103FD00005D170BD55F8043B98470136EEE755F81A
:103FE000043B98470136F2E78842000888420008FF
:103FF000884200088C420008704770470A4491428A
:1040000000F1FF3300D1704710B511F8014B03F8F0
:10401000014F9142F9D110BDF8B500BFF8BC08BC02
:104020009E467047F8B500BFF8BC08BC9E46704776
:104030004C400008CD070008000000000000000010
:104040008000000000000000000000006465666160
:10405000756C745461736B0049444C45000000005A
:1040600000C1814001C0804101C0804100C1814048
:1040700001C0804100C1814000C1814001C0804138
:1040800001C0804100C1814000C1814001C0804128
:1040900000C1814001C0804101C0804100C1814018
:1040A00001C0804100C1814000C1814001C0804108
:1040B00000C1814001C0804101C0804100C18140F8
:1040C00000C1814001C0804101C0804100C18140E8
:1040D00001C0804100C1814000C1814001C08041D8
:1040E00001C0804100C1814000C1814001C08041C8
:1040F00000C1814001C0804101C0804100C18140B8
:1041000000C1814001C0804101C0804100C18140A7
:1041100001C0804100C1814000C1814001C0804197
:1041200000C1814001C0804101C0804100C1814087
:1041300001C0804100C1814000C1814001C0804177
:1041400001C0804100C1814000C1814001C0804167
:1041500000C1814001C0804101C0804100C1814057
:1041600000C0C101C30302C2C60607C705C5C40417
:10417000CC0C0DCD0FCFCE0E0ACACB0BC90908C887
:10418000D81819D91BDBDA1A1EDEDF1FDD1D1CDC77
:1041900014D4D515D71716D6D21213D311D1D010E7
:1041A000F03031F133F3F23236F6F737F53534F4D7
:1041B0003CFCFD3DFF3F3EFEFA3A3BFB39F9F83847
:1041C00028E8E929EB2B2AEAEE2E2FEF2DEDEC2C37
:1041D000E42425E527E7E62622E2E323E12120E0A7
:1041E000A06061A163A3A26266A6A767A56564A497
:1041F0006CACAD6DAF6F6EAEAA6A6BAB69A9A86807
:1042000078B8B979BB7B7ABABE7E7FBF7DBDBC7CF6
:10421000B47475B577B7B67672B2B373B17170B066
:104220005090915193535292965657975595945456
:104230009C5C5D9D5F9F9E5E5A9A9B5B99595898C6
:10424000884849894B8B8A4A4E8E8F4F8D4D4C8CB6
:104250004484854587474686824243834181804026
:1042600000061016000610160000000000000000F6
:10427000010203040607080900000000010203040C
:0842800080BFFF7F0100000078
:04428800B501000874
:04428C009101000894
:10429000AAAAAAAAFF010000100000000024F4004E
:1042A00000000000B8440020204500208845002080
:1042B00000000000000000000000000000000000FE
:1042C00000000000000000000000000000000000EE
:1042D00000000000000000000000000000000000DE
:1042E000000000000000000000000000100000209E
:0400000508003DB9F9
:00000001FF
