:020000040800F2
:10000000000002207D2D0008B9070008BB0700088A
:10001000BD070008BF070008C10700080000000076
:10002000000000000000000000000000C3070008FE
:10003000C507000800000000C7070008C90700083E
:10004000CD2D0008CD2D0008CD2D0008CD2D0008A8
:10005000CD2D0008CD2D0008CD2D0008CD2D000898
:10006000CD2D0008CD2D0008CD2D0008CD2D000888
:10007000D1070008CD2D0008E1070008CD2D0008AC
:10008000CD2D0008CD2D0008CD2D0008CD2D000868
:10009000CD2D0008CD2D0008CD2D0008CD2D000858
:1000A000CD2D0008CD2D0008CD2D0008CD2D000848
:1000B000CD2D0008CD2D0008CD2D0008CD2D000838
:1000C000CD2D0008CD2D0008CD2D0008CD2D000828
:1000D000CD2D0008F1070008CD2D0008010800080B
:1000E000CD2D0008CD2D0008CD2D0008CD2D000808
:1000F000CD2D0008CD2D0008CD2D0008CD2D0008F8
:10010000CD2D0008CD2D0008CD2D0008CD2D0008E7
:10011000CD2D0008CD2D0008CD2D0008CD2D0008D7
:10012000CD2D0008CD2D0008CD2D0008CD2D0008C7
:10013000CD2D00080000000000000000CD2D0008BB
:10014000CD2D0008CD2D0008CD2D0008CD2D0008A7
:10015000CD2D0008CD2D0008CD2D0008CD2D000897
:10016000CD2D0008CD2D0008CD2D0008CD2D000887
:10017000CD2D0008CD2D000800000000000000007B
:08018000CD2D0008CD2D000873
:1001880010B5054C237833B9044B13B10448AFF3C9
:1001980000800123237010BD7000002000000000C3
:1001A800C42F000808B5034B1BB103490348AFF33C
:1001B800008008BD0000000074000020C42F000863
:1001C80053B94AB9002908BF00281CBF4FF0FF31B6
:1001D8004FF0FF3000F074B9ADF1080C6DE904CEB2
:1001E80000F006F8DDF804E0DDE9022304B070470A
:1001F8002DE9F047089D04468E46002B4DD18A42D2
:10020800944669D9B2FA82F252B101FA02F3C2F104
:10021800200120FA01F10CFA02FC41EA030E944095
:100228004FEA1C48210CBEFBF8F61FFA8CF708FBB6
:1002380016E341EA034306FB07F199420AD91CEB8E
:10024800030306F1FF3080F01F81994240F21C81C0
:10025800023E63445B1AA4B2B3FBF8F008FB103308
:1002680044EA034400FB07F7A7420AD91CEB04043D
:1002780000F1FF3380F00A81A74240F2078164440D
:10028800023840EA0640E41B00261DB1D440002392
:10029800C5E900433146BDE8F0878B4209D9002DF6
:1002A80000F0EF800026C5E9000130463146BDE880
:1002B800F087B3FA83F6002E4AD18B4202D38242EA
:1002C80000F2F980841A61EB030301209E46002D99
:1002D800E0D0C5E9004EDDE702B9FFDEB2FA82F2EE
:1002E800002A40F09280A1EB0C014FEA1C471FFA4C
:1002F8008CFE0126200CB1FBF7F307FB131140EA33
:1003080001410EFB03F0884208D91CEB010103F1FF
:10031800FF3802D2884200F2CB804346091AA4B2C1
:10032800B1FBF7F007FB101144EA01440EFB00FE95
:10033800A64508D91CEB040400F1FF3102D2A645FA
:1003480000F2BB800846A4EB0E0440EA03409CE799
:10035800C6F12007B34022FA07FC4CEA030C20FA46
:1003680007F401FA06F31C43F9404FEA1C4900FA66
:1003780006F3B1FBF9F8200C1FFA8CFE09FB1811E3
:1003880040EA014108FB0EF0884202FA06F20BD956
:100398001CEB010108F1FF3A80F08880884240F2A6
:1003A8008580A8F102086144091AA4B2B1FBF9F0EA
:1003B80009FB101144EA014100FB0EFE8E4508D9E5
:1003C8001CEB010100F1FF346CD28E456AD902386A
:1003D800614440EA0840A0FB0294A1EB0E01A1424F
:1003E800C846A64656D353D05DB1B3EB080261EBBD
:1003F8000E0101FA07F722FA06F3F1401F43C5E997
:10040800007100263146BDE8F087C2F12003D840CC
:100418000CFA02FC21FA03F3914001434FEA1C470E
:100428001FFA8CFEB3FBF7F007FB10360B0C43EA00
:10043800064300FB0EF69E4204FA02F408D91CEBB0
:10044800030300F1FF382FD29E422DD902386344AE
:100458009B1B89B2B3FBF7F607FB163341EA03414E
:1004680006FB0EF38B4208D91CEB010106F1FF389D
:1004780016D28B4214D9023E6144C91A46EA004694
:1004880038E72E46284605E70646E3E61846F8E626
:100498004B45A9D2B9EB020864EB0C0E0138A3E76F
:1004A8004646EAE7204694E74046D1E7D0467BE750
:1004B800023B614432E7304609E76444023842E7C8
:1004C800704700BF72B6FEE700B595B03022002134
:1004D80008A802F0B9FC002303930493059306933C
:1004E80007930193214A116C41F080511164126CF9
:1004F80002F080520192019A02931D4B1A6842F44D
:1005080080421A601B6803F480430293029B012314
:1005180008934FF48033099302230E934FF480021B
:100528000F92192210924FF4A87211921293042379
:10053800139308A800F08EFE98B90F2303930223A3
:100548000493002305934FF4A05306934FF480536C
:100558000793052103A801F0CBF820B915B05DF881
:1005680004FBFFF7AFFFFFF7ADFF00BF0038024005
:100578000070004008B501F07BFDFFF7A5FF00F013
:100588000FF800F05DF900F04BF800F07BF900F08F
:100598002DF800F027FE014B1860FEE78C000020C4
:1005A80084B000220192104B196B41F0800119634D
:1005B800196B01F08001019101990292196B41F0C8
:1005C80002011963196B01F0020102910299039269
:1005D8001A6B42F001021A631B6B03F001030393C9
:1005E800039B04B0704700BF0038024008B50A48B2
:1005F8000A4B03604FF41653436000238360C360C3
:1006080003610C2242618361C36102F032F800B9D0
:1006180008BDFFF757FFFBE750010020001001401D
:1006280008B50A480A4B03604FF416534360002389
:100638008360C36003610C2242618361C36102F07D
:1006480018F800B908BDFFF73DFFFBE79801002047
:100658000048004030B58BB00023059306930793FC
:100668000893099303684A4A934205D00446494AC5
:1006780093422CD00BB030BD00240194464B5A6CE9
:1006880042F010025A645A6C02F010020192019A68
:1006980002941A6B42F002021A631B6B03F0020306
:1006A8000293029BC0230593022306930323089316
:1006B8000723099305A9394801F0F0F82246214695
:1006C800252001F055FC252001F08AFCD2E7002501
:1006D8000395314B1A6C42F480221A641A6C02F4A6
:1006E80080220392039A04951A6B42F002021A635D
:1006F8001B6B03F002030493049B4FF440630593C0
:1007080002230693032308930723099305A9234883
:1007180001F0C4F82248234B03604FF000634360A4
:100728008560C5604FF48063036145618561C5617B
:100738000562456201F024FA18BB194BE3639C6318
:1007480019481A4B03604FF00063436040238360ED
:100758000023C3604FF48062026143618361C36117
:100768000362436201F00CFA70B90F4BA3639C63F8
:1007780000221146272001F0FBFB272001F030FC66
:1007880078E7FFF79FFED8E7FFF79CFEEDE700BF8D
:1007980000100140004800400038024000040240B8
:1007A8009000002028600240F000002058600240BD
:1007B800FEE7FEE7FEE7FEE7FEE770477047704793
:1007C80008B501F06FFC08BD08B5024801F0D0FA81
:1007D80008BD00BF9000002008B5024801F0C8FA23
:1007E80008BD00BFF000002008B5024802F08EF8EE
:1007F80008BD00BF5001002008B5024802F086F885
:1008080008BD00BF9801002082B0002100910B4B69
:100818005A6C42F480425A645A6C02F48042009244
:10082800009A01911A6C42F080521A641B6C03F012
:1008380080530193019B02B0704700BF003802400B
:1008480010B582B0002401940D4B1A6B42F40012CB
:100858001A631B6B03F400130193019B2246214684
:100868000C2001F085FB0C2001F0BAFB2246214642
:100878000E2001F07DFB0E2001F0B2FB02B010BD8E
:100888000038024000B587B0002302930393049315
:100898000593009301931548154A026043608360ED
:1008A8004FF6FF72C26003614361836101F0A8FCE7
:1008B80090B94FF48053029302A90C4801F0D9FC77
:1008C80068B90023009301936946084801F050FD78
:1008D80040B907B05DF804FBFFF7F4FDE9E7FFF75F
:1008E800F1FDEEE7FFF7EEFDF3E700BFE0010020C2
:1008F800000001400268094B9A4200D0704782B05C
:1009080000230193064B5A6C42F001025A645B6C57
:1009180003F001030193019B02B0704700000140FE
:10092800003802400E4B1B78C3B982B00C4B012231
:100938001A700C4B5B680193019A0B4B1B689A4227
:1009480003D20A4A136801331360064B5A68064BF0
:100958001A60034B00221A7002B07047704700BF3C
:100968003C020020001000E0340200203802002081
:1009780008B5124AD2F8FC3043F08073C2F8FC3054
:100988000F4B002159601A6842F001021A600D4BA2
:1009980003FB00F00C4B18600C4BA3FB00239B09D6
:1009A8000B4A13600B4BA3FB0030800C0A4B1860FA
:1009B8000A4B1960FFF7B6FF08BD00BF00ED00E065
:1009C800001000E040420F0028020020D34D6210C2
:1009D8002C02002083DE1B43300200203802002056
:1009E8000A4B5A68094B5B689B1A07EE903AB8EEB7
:1009F800677A074BD3ED007AF8EE677A67EE807A6C
:100A0800B4EEE77AF1EE10FAECD47047001000E08B
:100A18002802002008B507EE900AF8EE677A9FEDE5
:100A2800030A87EE800AFFF7DBFF08BD00007A445F
:100A380010B5044690F800210146D0F8040102F0F0
:100A480057F9D4F80431DB6B1A68136823F00803EC
:100A5800136010BD38B505464FF4867002F0DEF914
:100A680004464FF48672002102F0EEF96B68C4F870
:100A780004312B7884F80031AB68C4F80831064A91
:100A88001378591C1170054A42F823402046FFF795
:100A9800CFFF204638BD00BF3D02002040020020A5
:100AA80008B50A4601230146014801F012FE08BDB7
:100AB8009801002038B50C46002301E00133DBB271
:100AC800104A92F800C09C451BD91D460E4A52F8A0
:100AD8002320D2F804118142F0D1D2F808313BB179
:100AE800984722460021084B53F8250002F0ACF93C
:100AF800054B53F8251091F80021D1F8040102F0B4
:100B0800F7F838BD3D0200204002002008B58446B1
:100B1800002301E00133DBB2074A12789A420AD96E
:100B2800064A52F82310D1F804016045F2D191F831
:100B3800002102F0DDF808BD3D020020400200203F
:100B480010B54FF0000C4FF0FF0E72460BE010F896
:100B58000C305340064AD25C82EA0E02054C14F867
:100B680003E00CF1010C6145F1DC4EEA022010BDF6
:100B7800DC2F0008DC30000884460020034604E02F
:100B88001CF803201044C0B201338B42F8D37047DD
:100B98002DE9F0418F1D50380F2822D8DFE800F0EA
:100BA8000E082353292F34393E4348212121214D52
:100BB800012403254FF04008342603E000240425CF
:100BC800A0463026032A44D055B16A00294800EBD4
:100BD800460002F02BF9284B1B68294630469847F7
:100BE800D4BBBDE8F08100240425A04637260322A3
:100BF800E8E700240425A0463A260322E2E7002479
:100C08000425A0464126DDE700240425A046452604
:100C1800D8E700240425A0464926D3E70024042564
:100C2800A0464D26CEE700240425A0465126C9E754
:100C380000240425A0465526C4E7104B1E6800244E
:100C48000425A046BEE7012403254FF02E083D26C3
:100C5800B8E715460024B8E762003946054800EBB6
:100C6800480002F0E3F8044B1B68214640469847C9
:100C7800B7E700BF6002002058020020840400206B
:100C880018B1034A1060002070476FF005007047E4
:100C98005C020020F0B583B0514B1E6866B3514B1F
:100CA8001D68691C1960504B5855504B1B68012B27
:100CB8004ED016D8DBB94C4B1B78552B1ED10A29C0
:100CC80015D9494C0A212046FFF756FFA37A8342DB
:100CD8001CD0444B1D6020462A46611C02F0A6F831
:100CE8000AE0023B012B02D83E4B00221A603D4B22
:100CF8001B68B3F5807F6FD003B0F0BD394B1D6022
:100D080039482A46411C02F091F8F5E7364BD97864
:100D18009A7842EA0122ADF8002059791A7942EA14
:100D28000122ADF80220D9799A7942EA0122ADF878
:100D38000420597A1A7A42EA0122ADF806200422E0
:100D480069465878FFF724FF264B00221A60CEE741
:100D58000229CCD9244B5B78032B26D1224B9F78D0
:100D68007B1D9942C8D38A1E1F4B9C5C40EA042411
:100D780091B21846FFF7E4FE84421ED179080D4669
:100D88000023AB4221D25A00D01C174C14F800C0E3
:100D98000432A05C164A12681A4440EA0C20154C2A
:100DA80024F8120001339BB2EBE70E4B1D600E488E
:100DB8002A46411C02F03AF89EE70A4B1D600A4891
:100DC8002A46411C02F032F896E7094B1868B047EA
:100DD800044B00221A608AE7024B00221A608BE754
:100DE800580200208804002080030020800400208E
:100DF800840400206002002018B1034A106000201B
:100E080070476FF005007047580200208F286FD890
:100E180010B582B03F4B1B68032B6CD8DFE803F09A
:100E280002193C533C4B1B68002B67D0FF228DF8FE
:100E38000020AA228DF801208DF802008DF80310F9
:100E4800090A8DF80410052168469847002002B069
:100E580010BD314B1C68002C53D0304B1B788DF8DB
:100E6800003006238DF80130020A8DF802208DF833
:100E780003000A0A8DF804208DF805101946684603
:100E8800FFF75EFE030A8DF806308DF8070008218B
:100E98006846A0470020DAE7214B1B68A3B3FF226E
:100EA8008DF80020AA228DF801208DF802008DF817
:100EB8000310090A8DF804100522694617480078BE
:100EC80098470020C3E7174B1C6804B38DF800103F
:100ED800090A8DF80110114B93F800C04FEA4C0C29
:100EE80002236A46C1B20CF0FE00A0470020AEE71C
:100EF8006FF0050070476FF00500A8E76FF0040079
:100F0800A5E76FF00400A2E76FF004009FE76FF019
:100F180004009CE7800400205C0200200000002000
:100F28004C02002054020020032807D8054B186003
:100F3800054B19700020054B186070476FF00500CD
:100F4800704700BF800400200000002088040020B3
:100F580018B1034A1060002070476FF00500704711
:100F680050020020884203DB904203DD00207047D6
:100F7800002070470120704708B54BF2885169205E
:100F8800FFF744FF98B90D4B1B68012B05D043B9F7
:100F98000B4B1B680120984703E0094B1B68142082
:100FA800984701210846FFF731FF18B908BD6FF0CF
:100FB8000200FBE76FF00200F8E700BF80040020A2
:100FC8005002002008B54BF288516920FFF71EFF38
:100FD80090B90B4B1B68012B05D043B9094B1B6813
:100FE8000120984703E0074B1B6814209847FF210E
:100FF8000020FFF70BFF08B16FF0020008BD00BF2B
:10100800800400205002002010B504460722012168
:1010180000B2FFF7A7FFC8B14BF288516920FFF76C
:10102800F5FEB0B90E4B1B68012B05D043B90D4B2B
:101038001B680120984703E00A4B1B681420984757
:10104800A1B20420FFF7E2FE30B910BD6FF0050031
:10105800FBE76FF00200F8E76FF00200F5E700BF6A
:10106800800400205002002037283CD03D2865D05D
:1010780034281BD0704703F13400334A32F910206A
:1010880007EE902AF8EEE77A9FED307A67EE877AD6
:10109800B3EE007A67EE877A981C2D4A02EB80023D
:1010A800C2ED027A01338B42E5D370470023FAE799
:1010B80003F13700244A32F9102007EE902AF8EE9F
:1010C800E77A9FED227A67EE877A9FED227A67EEBC
:1010D800877A981D1E4A02EB8002C2ED017A01331D
:1010E8008B42E5D370470023FAE703F13D00164A27
:1010F80032F9102007EE902AF8EEE77A9FED137A7E
:1011080067EE877A9FED147A67EE877A104A02EBCA
:101118008302C2ED017A01338B42E6D30C4BD3ED47
:10112800037AF5EEC07AF1EE10FA09DD9FED0B7A3D
:1011380077EE677A064BC3ED037A9BE70023EBE76C
:10114800F1EE677AF6E700BF600200200000003881
:10115800900400200000FA44000034430000B44327
:1011680010B5002405E0044B1B68185DFFF792FDDD
:101178000134202CF7DD10BD9004002030B585B077
:101188000546124B0393124B029321238DF804302A
:1011980001A8FFF75FFC0F4C44F8040B5021002016
:1011A800FFF7C2FE0C48FFF76BFD0C48FFF7D0FEB7
:1011B8000B48FFF721FE2846FFF726FFFFF7DCFE66
:1011C8006420FFF727FC204605B030BD69110008F0
:1011D8009801002090040020A90A00081D0A0008B0
:1011E8007110000810B5A820FFF7C2FB0220FFF716
:1011F800C5FF054C2060FFF7E5FEB0EE000AFFF7DB
:10120800EFFB204610BD00BF8C04002010B503463C
:101218000C4A0D490D48006840B10C480068034469
:10122800521A934206D8094A136010BD0748084C61
:101238000460F2E701F0C8FD0C2303604FF0FF30B3
:10124800F3E700BF0000022000040000B8040020FB
:10125800D0040020002800F0E08170B582B0044678
:10126800036813F0010F3BD09F4B9B6803F00C03FE
:10127800042B2CD09C4B9B6803F00C03082B21D02B
:101288006368B3F5803F4FD0B3F5A02F52D0964B8B
:101298001A6822F480321A601A6822F480221A60CE
:1012A8006368002B50D000F009FF05468E4B1B6881
:1012B80013F4003F14D100F001FF401B6428F5D956
:1012C8000320B1E1884B5B6813F4800FD8D0864BBC
:1012D8001B6813F4003F03D06368002B00F09F8164
:1012E800236813F0020F54D07F4B9B6813F00C0F48
:1012F8003ED07D4B9B6803F00C03082B33D0E3688A
:10130800002B68D0794B01221A6000F0D7FE054601
:10131800754B1B6813F0020F54D100F0CFFE401B31
:101328000228F5D903207FE16F4A136843F480331C
:101338001360B5E76C4B1A6842F480221A601A6889
:1013480042F480321A60ABE700F0B8FE0546664BFF
:101358001B6813F4003FC3D000F0B0FE401B6428A4
:10136800F5D9032060E1604B5B6813F4800FC6D1A8
:101378005D4B1B6813F0020F03D0E368012B40F0AC
:101388005081594A136823F0F803216943EAC103DD
:101398001360236813F0080F42D063696BB3534B93
:1013A8000122C3F8802E00F089FE05464E4B5B6F84
:1013B80013F0020F34D100F081FE401B0228F5D94A
:1013C800032031E1484A136823F0F803216943EA0E
:1013D800C1031360DDE7454B00221A6000F06EFE82
:1013E8000546414B1B6813F0020FD2D000F066FE91
:1013F800401B0228F5D9032016E13C4B0022C3F814
:10140800802E00F05BFE0546374B5B6F13F0020F32
:1014180006D000F053FE401B0228F5D9032003E153
:10142800236813F0040F77D02F4B1B6C13F0805FE9
:1014380033D1002301932C4B1A6C42F080521A646A
:101448001B6C03F080530193019B0125284B1B68FB
:1014580013F4807F23D0A368012B34D0052B38D018
:10146800214B1A6F22F001021A671A6F22F0040248
:101478001A67A368002B3DD000F020FE06461A4BE1
:101488001B6F13F0020F46D100F018FE801B41F2CB
:1014980088339842F3D90320C6E00025D6E7144ADA
:1014A800136843F48073136000F008FE0646104B7F
:1014B8001B6813F4807FCED100F000FE801B022849
:1014C800F5D90320B0E0084A136F43F0010313670E
:1014D800CFE7054B1A6F42F004021A671A6F42F001
:1014E80001021A67C5E700BF003802400000474202
:1014F8000070004000F0E2FD0646524B1B6F13F0EF
:10150800020F08D000F0DAFD801B41F288339842C0
:10151800F3D9032088E0EDB9A369002B00F083809C
:10152800484A926802F00C02082A51D0022B17D0C0
:10153800454B00221A6600F0C1FD0446414B1B686A
:1015480013F0007F42D000F0B9FD001B0228F5D946
:10155800032069E03B4A136C23F080531364DBE7F4
:10156800394B00221A6600F0A9FD0546354B1B6869
:1015780013F0007F06D000F0A1FD401B0228F5D92A
:10158800032051E0E369226A1343626A43EA821343
:10159800A26A5208013A43EA0243E26A43EA026352
:1015A800284A5360284B01221A6600F087FD04463A
:1015B800244B1B6813F0007F06D100F07FFD001B51
:1015C8000228F5D903202FE000202DE000202BE091
:1015D800012B2BD01B4B5B6803F48001E26991421D
:1015E80026D103F03F02216A8A4223D1616A47F675
:1015F800C0721A40B2EB811F1ED103F44031A26AB7
:101608005208013AB1EB024F18D103F07063E26A55
:10161800B3EB026F14D1002006E0012070470120CF
:1016280002E0012000E0002002B070BD0120FBE7CD
:101638000120F9E70120F7E70120F5E70120F3E7AA
:101648000120F1E7003802400000474208B5254B69
:101658009B6803F00C03042B3FD0082B3FD1214B90
:101668005A6802F03F025B6813F4800F12D01D4BDA
:101678005968C1F388111C480023A1FB0001FEF73B
:101688009FFD184B5B68C3F3014301335B00B0FB5C
:10169800F3F025E0134B5968C1F3881C4FEA4C114D
:1016A800B1EB0C006EEB0E0E4FEA8E1343EA90631B
:1016B8008101091A63EB0E03DB0043EA5173C90089
:1016C80011EB0C0C43F10003990200234FEA8C2024
:1016D80041EA9C51FEF774FDD3E7034800E0034854
:1016E80008BD00BF0038024040787D010024F400A6
:1016F800002800F09B8070B50D4604464F4B1B68D0
:1017080003F007038B4208D2CBB24C4A137013681C
:1017180003F007038B4240F08B80236813F0020F1D
:1017280017D013F0040F04D0454A936843F4E053EC
:101738009360236813F0080F04D0414A936843F478
:10174800604393603E4A936823F0F003A1680B431B
:101758009360236813F0010F32D06368012B21D006
:101768009A1E012A25D9364A126812F0020F61D052
:1017780033498A6822F0030213438B6000F09EFC11
:1017880006462F4B9B6803F00C036268B3EB820F8D
:1017980016D000F093FC801B41F288339842F0D9B0
:1017A800032042E0264A126812F4003FE0D10120EB
:1017B8003BE0234A126812F0007FD9D1012034E0BF
:1017C8001E4B1B6803F00703AB4207D9EAB21B4B59
:1017D8001A701B6803F00703AB422DD1236813F07E
:1017E800040F06D0164A936823F4E053E1680B43CC
:1017F8009360236813F0080F07D0114A936823F405
:101808006043216943EAC1039360FFF71FFF0C4B54
:101818009B68C3F303130B4AD35CD8400A4B186088
:101828000A4B186800F0FEFB002070BD01207047CD
:101838000120FAE70120F8E70120F6E7003C024022
:1018480000380240E43100080800002004000020AD
:10185800014B1868704700BF0800002008B5FFF763
:10186800F7FF044B9B68C3F38223034AD35CD84039
:1018780008BD00BF00380240F431000808B5FFF782
:10188800E7FF044B9B68C3F34233034AD35CD84059
:1018980008BD00BF00380240F431000800230F2BB8
:1018A80000F2E48070B582B060E085685E000324D1
:1018B800B44025EA0405CC68B4402C4384604568EC
:1018C80025EA02054C68C4F300129A402A43426094
:1018D8005AE0DC08083450F8246003F00702950049
:1018E8000F22AA4026EA020E0A69AA4042EA0E021C
:1018F80040F824205CE0072200E0002202FA0EF201
:101908002A4302345A4D45F824205A4A94686FEA0B
:101918000C0224EA0C054E6816F4801F01D04CEA2C
:101928000405544CA560E46802EA04054E6816F400
:10193800001F01D04CEA04054E4CE560646802EAD9
:1019480004054E6816F4003F01D04CEA0405494CE2
:101958006560246822404D6815F4803F01D04CEA48
:101968000402444C226001330F2B7DD801229A4097
:101978000C6804EA020C32EA0404F4D14C6804F05E
:101988000304013C012C90D94A6802F00302032A9F
:1019980009D0C4685D000322AA4024EA02048A68C8
:1019A800AA402243C2604A6802F00302022A90D089
:1019B80004684FEA430E032202FA0EF224EA0204F4
:1019C8004A6802F0030202FA0EF2224302604A68F1
:1019D80012F4403FC7D000220192274A546C44F4C5
:1019E80080445464526C02F480420192019A9C082B
:1019F800A51C1F4A52F8255003F003024FEA820E35
:101A08000F2202FA0EF225EA02051C4A90423FF420
:101A180074AF02F5806290421AD002F5806290425B
:101A280018D002F58062904216D002F5806290428A
:101A380014D002F58062904212D002F58062904282
:101A480010D002F5806290423FF455AF082255E766
:101A5800012253E7022251E703224FE704224DE710
:101A680005224BE7062249E702B070BD704700BF68
:101A780000380140003C01400038024000000240AC
:101A880030B405682C6824F480242C6004686360F2
:101A98008368402B05D0036899600368DA6030BC1E
:101AA800704703689A600368D960F8E710B4036860
:101AB800D9B210390C4AA2FB014212090B4CA25CA4
:101AC800C2655F2909D923F47F7323F00303043324
:101AD8008365806D5DF8044B704723F47F7323F0B2
:101AE80003038365F5E700BFABAAAAAADC310008A7
:101AF800836A826992B9012B0AD0022B02D00BB1FA
:101B080000207047C36A13F0807F28D100207047F7
:101B1800C36AB3F1C07F24D000207047B2F5005FDC
:101B280009D0022B25D9032B25D1C36A13F0807F56
:101B380023D100207047032B03D8DFE803F01404F7
:101B4800140A00207047C36A13F0807F0DD100206B
:101B58007047C36AB3F1C07F09D0002070470120E5
:101B6800704701207047012070470120704701200D
:101B7800704701207047002070470120704700001F
:101B880070B5044600F09AFA002C5BD00546022393
:101B980084F83530002384F834302268136823F041
:101BA8000103136023681A6812F0010F0AD000F0CD
:101BB80085FA431B052BF5D920236365032084F898
:101BC800350070BD1A68204810406168A2680A4351
:101BD800E1680A4321690A4361690A43A1690A4322
:101BE800E1690A43216A0A430243616A04291ED053
:101BF8001A602668756925F00705636A1D43042B7A
:101C080007D1A36A1D43E36A1BB12046FFF770FFA3
:101C180090B975612046FFF749FFE26D3F23934075
:101C2800836000206065012384F83530C9E7E16AE4
:101C3800206B01430A43DBE740236365012084F8F6
:101C48003500BEE70120BCE73F8010F038B50446F8
:101C5800856D90F8340001282BD0012084F83400D9
:101C680094F83500C0B2012804D0002384F8343039
:101C7800022038BD022084F8350000206065204627
:101C8800FFF7FEFEE26D3F239340AB6022681368C6
:101C980043F016031360236C23B12268136843F0E2
:101CA800080313602268136843F0010313600020DF
:101CB800DFE70220DDE770B50446866D00F0FEF927
:101CC80094F83530DBB2022B06D0802363650023FD
:101CD80084F83430012070BD05462268136823F06B
:101CE800160313602268536923F080035361236C41
:101CF800E3B12268136823F00803136022681368AD
:101D080023F00103136023681B6813F0010F11D03F
:101D180000F0D4F9431B052BF5D920236365032074
:101D280084F83500002384F83430D4E7A36C002B02
:101D3800DFD1E3E7E26D3F239340B360012384F8EA
:101D48003530002084F83400C5E790F83530DBB230
:101D5800022B03D08023436501207047052380F8B8
:101D680035300268136823F00103136000207047C0
:101D7800F0B583B0044600230193724B1D68724B83
:101D8800A3FB0535AD0A876D3E68C26D08239340F5
:101D9800334210D003681A6812F0040F0BD01A6887
:101DA80022F004021A60C26D08239340BB60436DA1
:101DB80043F001034365E26D01239340334209D0A8
:101DC8002268526912F0800F04D0BB60636D43F043
:101DD80002036365E26D04239340334209D022680D
:101DE800126812F0020F04D0BB60636D43F0040365
:101DF8006365E26D10239340334224D02268126851
:101E080012F0080F1FD0BB6023681A6812F4802FE5
:101E18000DD01B6813F4002F04D1236C9BB120460E
:101E2800984710E0A36C73B1204698470BE01A68F6
:101E380012F4807F03D11A6822F008021A60236C1A
:101E48000BB120469847E26D20239340334255D08A
:101E58002268126812F0100F50D0BB6094F8353029
:101E6800DBB2052B0ED023681A6812F4802F33D00A
:101E78001B6813F4002F2AD1636C002B3ED0204638
:101E880098473BE02268136823F016031360226822
:101E9800536923F080035361236CA3B1226813684C
:101EA80023F008031360E26D3F239340BB600123D6
:101EB80084F83530002384F83430236D002B3FD06C
:101EC800204698473CE0A36C002BE7D1EBE7E36B97
:101ED800A3B12046984711E01A6812F4807F09D10F
:101EE8001A6822F010021A60012384F835300023A2
:101EF80084F83430E36B0BB120469847636DFBB12F
:101F0800636D13F0010F17D0052384F8353022686C
:101F1800136823F001031360019B01330193AB4263
:101F280004D823681B6813F0010FF5D1012384F846
:101F38003530002384F83430E36C0BB120469847E1
:101F480003B0F0BD08000020B5814E1B074AD368D6
:101F580023F4E0631B041B0C000200F4E06003435D
:101F680043F0BF6343F40033D360704700ED00E0F3
:101F780000B5194BDB68C3F30223C3F1070CBCF1AE
:101F8800040F28BF4FF0040C03F1040EBEF1060F36
:101F980018D9033B4FF0FF3E0EFA0CFC21EA0C0166
:101FA80099400EFA03F322EA0303194300280BDBD6
:101FB8000901C9B200F1604000F5614080F80013E2
:101FC8005DF804FB0023E5E700F00F000901C9B242
:101FD800024B1954F4E700BF00ED00E014ED00E0F7
:101FE800002807DB00F01F02400901239340024A42
:101FF80042F82030704700BF00E100E00138B0F13E
:10200800807F0BD24FF0E0235861054AF02182F817
:1020180023100020986107221A6170470120704739
:1020280000ED00E010B504460E4B18784FF47A73B3
:10203800B3FBF0F30C4A1068B0FBF3F0FFF7DEFFD8
:1020480068B90F2C01D901200AE0002221464FF07F
:10205800FF30FFF78DFF054B1C60002000E00120DA
:1020680010BD00BF0100002008000020040000206F
:1020780008B50B4B1A6842F400721A601A6842F4E9
:1020880080621A601A6842F480721A600320FFF7AF
:102098005DFF0F20FFF7C6FFFEF7B6FB002008BD67
:1020A800003C0240034A1168034B1B780B44136041
:1020B800704700BFBC04002001000020014B1868D5
:1020C800704700BFBC04002010B4036A046A24F0FF
:1020D80001040462846924F0F00C4CEA021223F033
:1020E8000A030B43826103625DF8044B704710B426
:1020F800036A046A24F010040462846924F4704CAE
:102108004CEA023223F0A00343EA0113826103621E
:102118005DF8044B7047836823F070030B4343F06A
:1021280007038360704700000368344A904212D066
:10213800B0F1804F0FD0A2F57C4290420BD002F54F
:102148008062904207D002F58062904203D002F587
:102158007842904203D123F070034A681343274A18
:1021680090422AD0B0F1804F27D0A2F57C4290420D
:1021780023D002F5806290421FD002F5806290421F
:102188001BD002F57842904217D002F57052904267
:1021980013D002F5806290420FD002F5806290421F
:1021A8000BD0A2F59832904207D002F58062904297
:1021B80003D002F58062904203D123F44073CA68C9
:1021C800134323F080034A69134303608B68C36297
:1021D8000B688362094B984203D003F580639842E9
:1021E80001D10B69036301234361036913F0010FF4
:1021F80003D0036923F00103036170470000014025
:1022080040B310B5044690F83D30F3B1022384F88A
:102218003D30214651F8040BFFF786FF012384F86F
:10222800463084F83E3084F83F3084F8403084F8F3
:10223800413084F8423084F8433084F8443084F8DC
:10224800453084F83D30002010BD80F83C30FEF762
:1022580051FBDBE70120704710B4846824F47F4CFD
:1022680042EA03220A4342EA0C0282605DF8044B08
:10227800704790F83C30012B78D010B50446012304
:1022880080F83C30022380F83D300268936823F4DC
:102298007F4323F0770393600B68602B4CD029D8D9
:1022A800402B54D00CD9502B22D1CA6849680068F9
:1022B800FFF70AFF50212068FFF72DFF002005E0F7
:1022C800202B0DD009D9302B0AD00120012384F806
:1022D8003D30002384F83C3010BD0BB1102B05D1E4
:1022E80019462068FFF717FF0020EFE70120EDE708
:1022F8000120EBE7B3F5805F34D0B3F5005F0CD174
:10230800CB684A6889680068FFF7A6FF2268936867
:1023180043F4804393600020D8E7702B24D1CB6826
:102328004A6889680068FFF797FF2268936843F056
:10233800770393600020C9E7CA6849680068FFF717
:10234800D6FE60212068FFF7E6FE0020BEE7CA68D7
:1023580049680068FFF7B8FE40212068FFF7DBFEF8
:102368000020B3E70020B1E70120AFE70220704763
:1023780090F83C30012B3DD010B4012380F83C305C
:10238800022380F83D3003685A689C6822F0700C7C
:102398000A6842EA0C025A600368174A93421AD044
:1023A800B3F1804F17D0A2F57C42934213D002F5C7
:1023B800806293420FD002F5806293420BD002F5FF
:1023C8007842934207D002F57052934203D0A2F5A7
:1023D8009432934204D124F080044A6814439C60E8
:1023E800012380F83D30002380F83C3018465DF822
:1023F800044B70470220704700000140026802F158
:102408000C0353E8003F23F0C0030C3242E80031CC
:102418000029F3D1202380F841307047026802F187
:102428000C0353E8003F23F490730C3242E8003168
:102438000029F3D1026802F1140353E8003F23F0A6
:102448000103143242E800310029F3D1036B012B58
:1024580005D0202380F842300023036370470268C8
:1024680002F10C0353E8003F23F010030C3242E85A
:1024780000310029F3D1ECE790F84130DBB2212B91
:1024880001D0022070478368B3F5805F17D0036AD4
:102498005A1C02621A7803685A60C38C9BB2013BCB
:1024A8009BB2C3844BB90268D36823F08003D3601E
:1024B8000268D36843F04003D36000207047036983
:1024C800002BE4D1036A1B880268C3F30803536036
:1024D800036A02330362E0E738B504460268136909
:1024E80023F44053C1680B431361836802691343A3
:1024F80042691343C2691A430168CB6823F416433F
:1025080023F00C031343CB600268536923F4407330
:1025180081690B4353610368314A934206D002F53F
:102528008062934202D0FFF799F901E0FFF7A6F91C
:10253800E369B3F5004F29D00021031849411B185E
:1025480041F10001C90041EA5371DB0018186368C2
:102558004FEA83024FEA937341F10001FDF730FE21
:10256800204DA5FB00325109642303FB11031B0115
:102578003233A5FB03235B0903F0F00202EB0112DF
:1025880003F00F03216813448B6038BD0023021841
:1025980043EB0301121841F10001C90041EA5271ED
:1025A800D200101841F10001626892185B41FDF7F2
:1025B80007FE0C4DA5FB00325109642303FB1103F0
:1025C800DB003233A5FB03235B095A0002F4F872DF
:1025D80002EB011203F00703216813448B60D4E770
:1025E800001001401F85EB512DE9F04383B00546EB
:1025F8000E4617469946DDF828802C68246836EA86
:1026080004030CBF4FF0010C4FF0000CBC4528D15F
:10261800B8F1FF3FF1D0FFF751FDA0EB09004045AD
:1026280023D8B8F1000F22D02B68DA6812F0040F13
:10263800E3D0802EE1D0402EDFD01A6812F0080FC8
:10264800DBD0002401941A6801925B680193019B16
:102658002846FFF7E3FE08236B6485F84040012015
:1026680000E0002003B0BDE8F0830320FAE7032070
:10267800F8E760B310B5044690F8413013B324234B
:1026880084F841302268D36823F40053D36020468D
:10269800FFF722FF2268136923F49043136122682D
:1026A800536923F02A0353612268D36843F4005323
:1026B800D36000206064202384F8413084F84230DD
:1026C800606310BD80F84030FDF7C4FFD7E70120F4
:1026D80070472DE9F04182B01E4690F84130DBB2D8
:1026E800202B56D104460D469046002955D00AB9EC
:1026F80001204FE000234364212380F84130FFF795
:10270800DDFC0746A4F82480A4F82680A368B3F566
:10271800805F02D04FF0000814E023692BB34FF01C
:1027280000080FE0202384F84130032032E038F815
:10273800023B2268C3F308035360E28C92B2013A69
:1027480092B2E284E38C9BB293B100963B4600229E
:1027580080212046FFF748FF0028E3D1002DE6D06E
:1027680015F8012B23685A60E7E7A8460025E9E732
:1027780000963B46002240212046FFF735FF18B956
:10278800202384F8413005E0202384F841300320D9
:1027980000E0022002B0BDE8F0810120FAE77047AE
:1027A80008B50168CA6822F04002CA60202280F891
:1027B8004120FFF7F4FF002008BD7047704710B5AF
:1027C800846B23685A6994F84130DBB2212B10D00E
:1027D80023685A6902F0400294F84230DBB2222B97
:1027E80011D0636C43F0100363642046FEF78EF942
:1027F80010BD02F08002002AEAD00023E3842046BC
:10280800FFF7FCFDE4E7002AEBD00023E385204630
:10281800FFF704FEE5E708B5806B0023C385C38492
:10282800FEF774F908BD90F84230DBB2222B69D16B
:102838008368B3F5805F4FD0826AB3F5805F04D0B8
:10284800002B56D10369002B53D103685B681370C2
:10285800836A01338362C38D9BB2013B9BB2C385FC
:10286800002B51D100B583B00268D36823F0200350
:10287800D3600268D36823F48073D3600268536915
:1028880023F001035361202380F84230002343637F
:10289800036B012B33D100230363026802F10C039D
:1028A80053E8003F23F010030C3242E800310029BE
:1028B800F3D103681A6812F0100F06D000220192B3
:1028C8001A6801925B680193019B818DFEF7F2F80B
:1028D800002003B05DF804FB0269002AACD1826ACB
:1028E80003685B68C3F308031380836A0233836257
:1028F800B1E703685B6803F07F031370A8E7FFF78D
:102908005CFFE5E7022070470020704730B583B0D0
:10291800044602681368D068516913F00F0505D1A1
:1029280013F0200F02D010F0200F19D12DB111F0A3
:10293800010119D110F4907F16D1216B01297DD0A6
:1029480013F0800F03D010F0800F40F0198113F0BE
:10295800400F03D010F0400F40F0168103B030BD97
:102968002046FFF760FFF9E713F0010F06D010F4D7
:10297800807F03D0626C42F00102626413F0040F9E
:1029880004D019B1626C42F00202626413F0020FC3
:1029980004D019B1626C42F00402626413F0080FAB
:1029A80007D010F0200F00D119B1626C42F0080274
:1029B8006264626C002AD1D013F0200F02D010F0AC
:1029C800200F29D123685B6903F04003626C12F081
:1029D800080F00D163B32046FFF720FD23685B6929
:1029E80013F0400F20D0226802F1140353E8003F8F
:1029F80023F04003143242E800310029F3D1E36B9D
:102A080073B1634A1A65E06BFFF79FF90028A5D0F8
:102A1800E06B036D9847A1E72046FFF704FFD1E775
:102A28002046FEF773F899E72046FEF76FF895E71A
:102A38002046FEF76BF8002363648FE713F0100F4E
:102A48003FF47EAF10F0100F3FF47AAF00230193EC
:102A58001368019353680193019B536913F0400F66
:102A680052D0E26B13685B689BB2002B3FF476AFE1
:102A7800A18D99427FF672AFE385D369B3F5807F64
:102A880037D0226802F10C0353E8003F23F4807327
:102A98000C3242E800310029F3D1226802F1140314
:102AA80053E8003F23F00103143242E800310029C3
:102AB800F3D1226802F1140353E8003F23F04003E6
:102AC800143242E800310029F3D1202384F842303F
:102AD80000232363226802F10C0353E8003F23F02C
:102AE80010030C3242E800310029F3D1E06BFFF704
:102AF800E2F802236363A18DE38D9BB2C91A89B200
:102B08002046FDF7D7FF29E7A18DE38D9BB2C91AAF
:102B180089B2E38D9BB2002B3FF420AF00293FF42C
:102B28001DAF226802F10C0353E8003F23F49073B1
:102B38000C3242E800300028F3D1226802F1140375
:102B480053E8003F23F00103143242E80030002824
:102B5800F3D1202384F8423000232363226802F152
:102B68000C0353E8003F23F010030C3242E8003016
:102B78000028F3D1022363632046FDF79BFFEDE6AF
:102B88002046FFF779FCE9E62046FFF709FEE5E66F
:102B98001F28000808B5806B01234363036B012BD2
:102BA80002D0FFF70BFE08BD818D4908FDF782FFB3
:102BB800F9E708B50346806B1B681B6813F4807F30
:102BC8002BD10023C385026802F10C0353E8003FB0
:102BD80023F480730C3242E800310029F3D10268F3
:102BE80002F1140353E8003F23F00103143242E8D2
:102BF80000310029F3D1026802F1140353E8003FC1
:102C080023F04003143242E800310029F3D1202395
:102C180080F84230036B012B07D000234363036B1A
:102C2800012B0FD0FFF7C9FD08BD026802F10C03A4
:102C380053E8003F23F010030C3242E8003100292A
:102C4800F3D1EAE7818DFDF735FFEDE730B583B0C5
:102C5800044613468162828500254564222280F855
:102C68004220C26B1F48D063E26B1F481064E26BBE
:102C78001E48D064E26B156520680A46011DE06BAA
:102C8800FEF7E4FF019523681A6801925B680193D7
:102C9800019B23695BB1226802F10C0353E8003FF2
:102CA80043F480730C3242E800310029F3D12268E2
:102CB80002F1140353E8003F43F00103143242E8E1
:102CC80000310029F3D1226802F1140353E8003FD0
:102CD80043F04003143242E800310029F3D10020C8
:102CE80003B030BDBB2B00089D2B0008C727000888
:102CF80090F84230DBB2202B29D110B582B00446BF
:102D080039B312B9012002B010BD012303630023B7
:102D18004363FFF79BFF0028F5D1236B012B01D0FC
:102D28000120F0E70023019323681A6801925B6889
:102D38000193019B226802F10C0353E8003F43F022
:102D480010030C3242E800310029F3D1DBE70220FE
:102D580070470120D7E70000054BD3F8882042F4DC
:102D68007002C3F888204FF000629A60704700BF75
:102D780000ED00E0DFF834D0002103E00C4B5B5895
:102D8800435004310B480C4B42189A42F6D30B4A75
:102D980002E0002342F8043B094B9A42F9D3FFF7BB
:102DA800DBFF00F017F8FDF7E5FB70470000022095
:102DB8000C32000800000020700000207000002085
:102DC800D0040020FEE70000014B1868704700BFE0
:102DD8000C00002070B50D4D0D4C641BA41000268E
:102DE800A64209D10B4D0C4C00F0E8F8641BA41066
:102DF8000026A64205D170BD55F8043B9847013618
:102E0800EEE755F8043B98470136F2E7043200082C
:102E1800043200080432000808320008024B014658
:102E2800186800F039B800BF0C0000200A4491422D
:102E380000F1FF3300D1704710B511F8014B03F8CA
:102E4800014F9142F9D110BD02440346934200D18B
:102E5800704703F8011BF9E770B50E4E0C46316850
:102E6800054611B900F08CF830602146284600F07C
:102E780087F8431C0AD0C41C24F00304A04207D0DE
:102E8800211A284600F07CF8013001D14FF0FF34B8
:102E9800204670BDC40400202DE9F041CD1C25F06A
:102EA800030508350C2D38BF0C25002D074601DB1E
:102EB800A94205D90C233B6000263046BDE8F081C5
:102EC8002E4E00F06DF833681C4634BB2946384650
:102ED800FFF7C2FF431C04464DD134682646002E36
:102EE80040D123683146384604EB030800F048F81F
:102EF80080453AD1216803356D1A25F00305083558
:102F08000C2D38BF0C2529463846FFF7A5FF0130A0
:102F18002BD023682B4423600EE02268521B1ED45A
:102F28000B2A16D96119A342256018BF5960636836
:102F380008BF316062514B60384604F10B0600F05F
:102F480035F826F00706231DF21AB6D09B1BA350AE
:102F5800B3E76268A3420CBF32605A60ECE72346CD
:102F68006468B2E734467668B9E70C233B603846B4
:102F780000F01CF8A1E72560DEE700BFC0040020D0
:102F880038B5064D0023044608462B60FEF73EF987
:102F9800431C02D12B6803B1236038BDC80400204C
:102FA800014800F009B800BFCC040020014800F037
:102FB80004B800BFCC04002070477047F8B500BFC4
:102FC800F8BC08BC9E467047F8B500BFF8BC08BC02
:042FD8009E4670475A
:102FDC0000C1814001C0804101C0804100C18140DD
:102FEC0001C0804100C1814000C1814001C08041CD
:102FFC0001C0804100C1814000C1814001C08041BD
:10300C0000C1814001C0804101C0804100C18140AC
:10301C0001C0804100C1814000C1814001C080419C
:10302C0000C1814001C0804101C0804100C181408C
:10303C0000C1814001C0804101C0804100C181407C
:10304C0001C0804100C1814000C1814001C080416C
:10305C0001C0804100C1814000C1814001C080415C
:10306C0000C1814001C0804101C0804100C181404C
:10307C0000C1814001C0804101C0804100C181403C
:10308C0001C0804100C1814000C1814001C080412C
:10309C0000C1814001C0804101C0804100C181401C
:1030AC0001C0804100C1814000C1814001C080410C
:1030BC0001C0804100C1814000C1814001C08041FC
:1030CC0000C1814001C0804101C0804100C18140EC
:1030DC0000C0C101C30302C2C60607C705C5C404AC
:1030EC00CC0C0DCD0FCFCE0E0ACACB0BC90908C81C
:1030FC00D81819D91BDBDA1A1EDEDF1FDD1D1CDC0C
:10310C0014D4D515D71716D6D21213D311D1D0107B
:10311C00F03031F133F3F23236F6F737F53534F46B
:10312C003CFCFD3DFF3F3EFEFA3A3BFB39F9F838DB
:10313C0028E8E929EB2B2AEAEE2E2FEF2DEDEC2CCB
:10314C00E42425E527E7E62622E2E323E12120E03B
:10315C00A06061A163A3A26266A6A767A56564A42B
:10316C006CACAD6DAF6F6EAEAA6A6BAB69A9A8689B
:10317C0078B8B979BB7B7ABABE7E7FBF7DBDBC7C8B
:10318C00B47475B577B7B67672B2B373B17170B0FB
:10319C0050909151935352929656579755959454EB
:1031AC009C5C5D9D5F9F9E5E5A9A9B5B995958985B
:1031BC00884849894B8B8A4A4E8E8F4F8D4D4C8C4B
:1031CC0044848545874746868242438341818040BB
:1031DC00000610160006101600000000000000008B
:1031EC0001020304060708090000000001020304A1
:0831FC00FCCFFF7F0100000081
:04320400AD01000810
:043208008901000830
:10320C00FF010000100000000024F400100000205A
:10321C0000000000000000000000000000000000A2
:10322C000000000000000000000000000000000092
:10323C000000000000000000000000000000000082
:10324C000000000000000000000000000000000072
:10325C000000000000000000000000000000000062
:10326C000000000000000000000000000000000052
:0400000508002D7D45
:00000001FF
